{
  "address": "0x43563c27e9Cd782904A9801fBd08C84CC1a81Db7",
  "abi": [
    {
      "inputs": [
        {
          "internalType": "string",
          "name": "name_",
          "type": "string"
        },
        {
          "internalType": "string",
          "name": "symbol_",
          "type": "string"
        },
        {
          "internalType": "uint96",
          "name": "feeNumerator_",
          "type": "uint96"
        }
      ],
      "stateMutability": "nonpayable",
      "type": "constructor"
    },
    {
      "anonymous": false,
      "inputs": [
        {
          "indexed": true,
          "internalType": "address",
          "name": "owner",
          "type": "address"
        },
        {
          "indexed": true,
          "internalType": "address",
          "name": "approved",
          "type": "address"
        },
        {
          "indexed": true,
          "internalType": "uint256",
          "name": "tokenId",
          "type": "uint256"
        }
      ],
      "name": "Approval",
      "type": "event"
    },
    {
      "anonymous": false,
      "inputs": [
        {
          "indexed": true,
          "internalType": "address",
          "name": "owner",
          "type": "address"
        },
        {
          "indexed": true,
          "internalType": "address",
          "name": "operator",
          "type": "address"
        },
        {
          "indexed": false,
          "internalType": "bool",
          "name": "approved",
          "type": "bool"
        }
      ],
      "name": "ApprovalForAll",
      "type": "event"
    },
    {
      "anonymous": false,
      "inputs": [
        {
          "indexed": false,
          "internalType": "uint256",
          "name": "_fromTokenId",
          "type": "uint256"
        },
        {
          "indexed": false,
          "internalType": "uint256",
          "name": "_toTokenId",
          "type": "uint256"
        }
      ],
      "name": "BatchMetadataUpdate",
      "type": "event"
    },
    {
      "anonymous": false,
      "inputs": [
        {
          "indexed": false,
          "internalType": "uint256",
          "name": "_tokenId",
          "type": "uint256"
        }
      ],
      "name": "MetadataUpdate",
      "type": "event"
    },
    {
      "anonymous": false,
      "inputs": [
        {
          "indexed": true,
          "internalType": "uint256",
          "name": "tokenId",
          "type": "uint256"
        },
        {
          "indexed": true,
          "internalType": "address",
          "name": "recipient",
          "type": "address"
        },
        {
          "indexed": false,
          "internalType": "string",
          "name": "tokenURI",
          "type": "string"
        }
      ],
      "name": "MintFireVerseNFT",
      "type": "event"
    },
    {
      "anonymous": false,
      "inputs": [
        {
          "indexed": true,
          "internalType": "address",
          "name": "previousOwner",
          "type": "address"
        },
        {
          "indexed": true,
          "internalType": "address",
          "name": "newOwner",
          "type": "address"
        }
      ],
      "name": "OwnershipTransferStarted",
      "type": "event"
    },
    {
      "anonymous": false,
      "inputs": [
        {
          "indexed": true,
          "internalType": "address",
          "name": "previousOwner",
          "type": "address"
        },
        {
          "indexed": true,
          "internalType": "address",
          "name": "newOwner",
          "type": "address"
        }
      ],
      "name": "OwnershipTransferred",
      "type": "event"
    },
    {
      "anonymous": false,
      "inputs": [
        {
          "indexed": true,
          "internalType": "address",
          "name": "from",
          "type": "address"
        },
        {
          "indexed": true,
          "internalType": "address",
          "name": "to",
          "type": "address"
        },
        {
          "indexed": true,
          "internalType": "uint256",
          "name": "tokenId",
          "type": "uint256"
        }
      ],
      "name": "Transfer",
      "type": "event"
    },
    {
      "anonymous": false,
      "inputs": [
        {
          "indexed": false,
          "internalType": "uint96",
          "name": "newDefaultFeeNumerator",
          "type": "uint96"
        }
      ],
      "name": "UpdateDefaultFeeNumerator",
      "type": "event"
    },
    {
      "inputs": [],
      "name": "acceptOwnership",
      "outputs": [],
      "stateMutability": "nonpayable",
      "type": "function"
    },
    {
      "inputs": [
        {
          "internalType": "address",
          "name": "to",
          "type": "address"
        },
        {
          "internalType": "uint256",
          "name": "tokenId",
          "type": "uint256"
        }
      ],
      "name": "approve",
      "outputs": [],
      "stateMutability": "nonpayable",
      "type": "function"
    },
    {
      "inputs": [
        {
          "internalType": "address",
          "name": "owner",
          "type": "address"
        }
      ],
      "name": "balanceOf",
      "outputs": [
        {
          "internalType": "uint256",
          "name": "",
          "type": "uint256"
        }
      ],
      "stateMutability": "view",
      "type": "function"
    },
    {
      "inputs": [
        {
          "internalType": "uint256[]",
          "name": "tokenIds",
          "type": "uint256[]"
        },
        {
          "internalType": "string[]",
          "name": "tokenURIs",
          "type": "string[]"
        }
      ],
      "name": "batchMint",
      "outputs": [],
      "stateMutability": "nonpayable",
      "type": "function"
    },
    {
      "inputs": [
        {
          "internalType": "uint256",
          "name": "tokenId",
          "type": "uint256"
        }
      ],
      "name": "burn",
      "outputs": [],
      "stateMutability": "nonpayable",
      "type": "function"
    },
    {
      "inputs": [],
      "name": "defaultFeeNumerator",
      "outputs": [
        {
          "internalType": "uint96",
          "name": "",
          "type": "uint96"
        }
      ],
      "stateMutability": "view",
      "type": "function"
    },
    {
      "inputs": [
        {
          "internalType": "uint256",
          "name": "tokenId",
          "type": "uint256"
        }
      ],
      "name": "getApproved",
      "outputs": [
        {
          "internalType": "address",
          "name": "",
          "type": "address"
        }
      ],
      "stateMutability": "view",
      "type": "function"
    },
    {
      "inputs": [
        {
          "internalType": "address",
          "name": "owner",
          "type": "address"
        },
        {
          "internalType": "address",
          "name": "operator",
          "type": "address"
        }
      ],
      "name": "isApprovedForAll",
      "outputs": [
        {
          "internalType": "bool",
          "name": "",
          "type": "bool"
        }
      ],
      "stateMutability": "view",
      "type": "function"
    },
    {
      "inputs": [
        {
          "internalType": "uint256",
          "name": "tokenId",
          "type": "uint256"
        },
        {
          "internalType": "string",
          "name": "tokenURI_",
          "type": "string"
        }
      ],
      "name": "mint",
      "outputs": [],
      "stateMutability": "nonpayable",
      "type": "function"
    },
    {
      "inputs": [],
      "name": "name",
      "outputs": [
        {
          "internalType": "string",
          "name": "",
          "type": "string"
        }
      ],
      "stateMutability": "view",
      "type": "function"
    },
    {
      "inputs": [],
      "name": "owner",
      "outputs": [
        {
          "internalType": "address",
          "name": "",
          "type": "address"
        }
      ],
      "stateMutability": "view",
      "type": "function"
    },
    {
      "inputs": [
        {
          "internalType": "uint256",
          "name": "tokenId",
          "type": "uint256"
        }
      ],
      "name": "ownerOf",
      "outputs": [
        {
          "internalType": "address",
          "name": "",
          "type": "address"
        }
      ],
      "stateMutability": "view",
      "type": "function"
    },
    {
      "inputs": [],
      "name": "pendingOwner",
      "outputs": [
        {
          "internalType": "address",
          "name": "",
          "type": "address"
        }
      ],
      "stateMutability": "view",
      "type": "function"
    },
    {
      "inputs": [],
      "name": "renounceOwnership",
      "outputs": [],
      "stateMutability": "nonpayable",
      "type": "function"
    },
    {
      "inputs": [
        {
          "internalType": "uint256",
          "name": "tokenId",
          "type": "uint256"
        },
        {
          "internalType": "uint256",
          "name": "salePrice",
          "type": "uint256"
        }
      ],
      "name": "royaltyInfo",
      "outputs": [
        {
          "internalType": "address",
          "name": "",
          "type": "address"
        },
        {
          "internalType": "uint256",
          "name": "",
          "type": "uint256"
        }
      ],
      "stateMutability": "view",
      "type": "function"
    },
    {
      "inputs": [
        {
          "internalType": "address",
          "name": "from",
          "type": "address"
        },
        {
          "internalType": "address",
          "name": "to",
          "type": "address"
        },
        {
          "internalType": "uint256",
          "name": "tokenId",
          "type": "uint256"
        }
      ],
      "name": "safeTransferFrom",
      "outputs": [],
      "stateMutability": "nonpayable",
      "type": "function"
    },
    {
      "inputs": [
        {
          "internalType": "address",
          "name": "from",
          "type": "address"
        },
        {
          "internalType": "address",
          "name": "to",
          "type": "address"
        },
        {
          "internalType": "uint256",
          "name": "tokenId",
          "type": "uint256"
        },
        {
          "internalType": "bytes",
          "name": "data",
          "type": "bytes"
        }
      ],
      "name": "safeTransferFrom",
      "outputs": [],
      "stateMutability": "nonpayable",
      "type": "function"
    },
    {
      "inputs": [
        {
          "internalType": "address",
          "name": "operator",
          "type": "address"
        },
        {
          "internalType": "bool",
          "name": "approved",
          "type": "bool"
        }
      ],
      "name": "setApprovalForAll",
      "outputs": [],
      "stateMutability": "nonpayable",
      "type": "function"
    },
    {
      "inputs": [
        {
          "internalType": "uint96",
          "name": "feeNumerator",
          "type": "uint96"
        }
      ],
      "name": "setDefaultFeeNumerator",
      "outputs": [],
      "stateMutability": "nonpayable",
      "type": "function"
    },
    {
      "inputs": [
        {
          "internalType": "uint256",
          "name": "tokenId",
          "type": "uint256"
        },
        {
          "internalType": "address",
          "name": "receiver",
          "type": "address"
        },
        {
          "internalType": "uint96",
          "name": "feeNumerator",
          "type": "uint96"
        }
      ],
      "name": "setTokenRoyalty",
      "outputs": [],
      "stateMutability": "nonpayable",
      "type": "function"
    },
    {
      "inputs": [
        {
          "internalType": "bytes4",
          "name": "interfaceId",
          "type": "bytes4"
        }
      ],
      "name": "supportsInterface",
      "outputs": [
        {
          "internalType": "bool",
          "name": "",
          "type": "bool"
        }
      ],
      "stateMutability": "view",
      "type": "function"
    },
    {
      "inputs": [],
      "name": "symbol",
      "outputs": [
        {
          "internalType": "string",
          "name": "",
          "type": "string"
        }
      ],
      "stateMutability": "view",
      "type": "function"
    },
    {
      "inputs": [
        {
          "internalType": "uint256",
          "name": "tokenId",
          "type": "uint256"
        }
      ],
      "name": "tokenURI",
      "outputs": [
        {
          "internalType": "string",
          "name": "",
          "type": "string"
        }
      ],
      "stateMutability": "view",
      "type": "function"
    },
    {
      "inputs": [
        {
          "internalType": "address",
          "name": "from",
          "type": "address"
        },
        {
          "internalType": "address",
          "name": "to",
          "type": "address"
        },
        {
          "internalType": "uint256",
          "name": "tokenId",
          "type": "uint256"
        }
      ],
      "name": "transferFrom",
      "outputs": [],
      "stateMutability": "nonpayable",
      "type": "function"
    },
    {
      "inputs": [
        {
          "internalType": "address",
          "name": "newOwner",
          "type": "address"
        }
      ],
      "name": "transferOwnership",
      "outputs": [],
      "stateMutability": "nonpayable",
      "type": "function"
    }
  ],
  "transactionHash": "0x8731b803c4ecc19f130ec682beb1bf7fd7932848c3b9f579507057873f97fa51",
  "args": [
    "FireVerse NFT",
    "FireVerseNFT",
    100
  ],
  "numDeployments": 1,
  "solcInputHash": "30eb4bafd67f8775d777c54cf3befb83",
  "bytecode": "0x60806040523480156200001157600080fd5b50604051620025d4380380620025d48339810160408190526200003491620001e4565b8282600062000044838262000300565b50600162000053828262000300565b505050620000706200006a6200009f60201b60201c565b620000a3565b600a80546001600160601b03909216600160a01b026001600160a01b0390921691909117905550620003cc9050565b3390565b600a80546001600160a01b0319169055620000ca81620000cd602090811b62000d4417901c565b50565b600980546001600160a01b038381166001600160a01b0319831681179093556040519116919082907f8be0079c531659141344cd1fd0a4f28419497f9722a3daafe3b4186f6b6457e090600090a35050565b634e487b7160e01b600052604160045260246000fd5b600082601f8301126200014757600080fd5b81516001600160401b03808211156200016457620001646200011f565b604051601f8301601f19908116603f011681019082821181831017156200018f576200018f6200011f565b81604052838152602092508683858801011115620001ac57600080fd5b600091505b83821015620001d05785820183015181830184015290820190620001b1565b600093810190920192909252949350505050565b600080600060608486031215620001fa57600080fd5b83516001600160401b03808211156200021257600080fd5b620002208783880162000135565b945060208601519150808211156200023757600080fd5b50620002468682870162000135565b604086015190935090506001600160601b03811681146200026657600080fd5b809150509250925092565b600181811c908216806200028657607f821691505b602082108103620002a757634e487b7160e01b600052602260045260246000fd5b50919050565b601f821115620002fb57600081815260208120601f850160051c81016020861015620002d65750805b601f850160051c820191505b81811015620002f757828155600101620002e2565b5050505b505050565b81516001600160401b038111156200031c576200031c6200011f565b62000334816200032d845462000271565b84620002ad565b602080601f8311600181146200036c5760008415620003535750858301515b600019600386901b1c1916600185901b178555620002f7565b600085815260208120601f198616915b828110156200039d578886015182559484019460019091019084016200037c565b5085821015620003bc5787850151600019600388901b60f8161c191681555b5050505050600190811b01905550565b6121f880620003dc6000396000f3fe608060405234801561001057600080fd5b50600436106101735760003560e01c806377097fc8116100de578063ad94ae7311610097578063c87b56dd11610071578063c87b56dd14610361578063e30c397814610374578063e985e9c514610385578063f2fde38b146103c157600080fd5b8063ad94ae7314610309578063af3f6f4d1461031c578063b88d4fde1461034e57600080fd5b806377097fc8146102af57806379ba5097146102c257806388c2ac5a146102ca5780638da5cb5b146102dd57806395d89b41146102ee578063a22cb465146102f657600080fd5b806342842e0e1161013057806342842e0e1461023a57806342966c681461024d5780635944c753146102605780636352211e1461027357806370a0823114610286578063715018a6146102a757600080fd5b806301ffc9a71461017857806306fdde03146101a0578063081812fc146101b5578063095ea7b3146101e057806323b872dd146101f55780632a55205a14610208575b600080fd5b61018b6101863660046119d0565b6103d4565b60405190151581526020015b60405180910390f35b6101a86103e5565b6040516101979190611a3d565b6101c86101c3366004611a50565b610477565b6040516001600160a01b039091168152602001610197565b6101f36101ee366004611a85565b61049e565b005b6101f3610203366004611aaf565b6105b8565b61021b610216366004611aeb565b6105ea565b604080516001600160a01b039093168352602083019190915201610197565b6101f3610248366004611aaf565b610698565b6101f361025b366004611a50565b6106b3565b6101f361026e366004611b24565b610741565b6101c8610281366004611a50565b610754565b610299610294366004611b60565b6107b4565b604051908152602001610197565b6101f361083a565b6101f36102bd366004611c07565b61084e565b6101f36108c8565b6101f36102d8366004611ca7565b61093f565b6009546001600160a01b03166101c8565b6101a8610b09565b6101f3610304366004611d13565b610b18565b6101f3610317366004611d4f565b610b27565b600a5461033690600160a01b90046001600160601b031681565b6040516001600160601b039091168152602001610197565b6101f361035c366004611d6a565b610b8b565b6101a861036f366004611a50565b610bc3565b600a546001600160a01b03166101c8565b61018b610393366004611de6565b6001600160a01b03918216600090815260056020908152604080832093909416825291909152205460ff1690565b6101f36103cf366004611b60565b610cd3565b60006103df82610d96565b92915050565b6060600080546103f490611e19565b80601f016020809104026020016040519081016040528092919081815260200182805461042090611e19565b801561046d5780601f106104425761010080835404028352916020019161046d565b820191906000526020600020905b81548152906001019060200180831161045057829003601f168201915b5050505050905090565b600061048282610dbb565b506000908152600460205260409020546001600160a01b031690565b60006104a982610754565b9050806001600160a01b0316836001600160a01b03160361051b5760405162461bcd60e51b815260206004820152602160248201527f4552433732313a20617070726f76616c20746f2063757272656e74206f776e656044820152603960f91b60648201526084015b60405180910390fd5b336001600160a01b038216148061053757506105378133610393565b6105a95760405162461bcd60e51b815260206004820152603d60248201527f4552433732313a20617070726f76652063616c6c6572206973206e6f7420746f60448201527f6b656e206f776e6572206f7220617070726f76656420666f7220616c6c0000006064820152608401610512565b6105b38383610e1a565b505050565b6105c3335b82610e88565b6105df5760405162461bcd60e51b815260040161051290611e53565b6105b3838383610f06565b60008281526008602090815260408083208151808301909252546001600160a01b038116808352600160a01b9091046001600160601b031692820192909252829161065f5750604080518082019091526007546001600160a01b0381168252600160a01b90046001600160601b031660208201525b60208101516000906127109061067e906001600160601b031687611eb6565b6106889190611ed5565b91519350909150505b9250929050565b6105b383838360405180602001604052806000815250610b8b565b6106bc336105bd565b6107245760405162461bcd60e51b815260206004820152603360248201527f4669726556657273654e46543a2063616c6c6572206973206e6f7420746f6b656044820152721b881bdddb995c881bdc88185c1c1c9bdd9959606a1b6064820152608401610512565b61072d8161106a565b600090815260086020526040812055565b50565b6107496110aa565b6105b3838383611104565b6000818152600260205260408120546001600160a01b0316806103df5760405162461bcd60e51b8152602060048201526018602482015277115490cdcc8c4e881a5b9d985b1a59081d1bdad95b88125160421b6044820152606401610512565b60006001600160a01b03821661081e5760405162461bcd60e51b815260206004820152602960248201527f4552433732313a2061646472657373207a65726f206973206e6f7420612076616044820152683634b21037bbb732b960b91b6064820152608401610512565b506001600160a01b031660009081526003602052604090205490565b6108426110aa565b61084c6000611212565b565b610858338361122b565b61086282826113b6565b6108828233600a60149054906101000a90046001600160601b0316611104565b336001600160a01b0316827f451e25b53df3039d20f7b4888dfe16d91279b341fdf5e97e24309b9f87ace367836040516108bc9190611a3d565b60405180910390a35050565b600a5433906001600160a01b031681146109365760405162461bcd60e51b815260206004820152602960248201527f4f776e61626c6532537465703a2063616c6c6572206973206e6f7420746865206044820152683732bb9037bbb732b960b91b6064820152608401610512565b61073e81611212565b8281811461099b5760405162461bcd60e51b815260206004820152602360248201527f4669726556657273654e46543a206172726179206c656e677468206d69736d616044820152620e8c6d60eb1b6064820152608401610512565b60005b81811015610b01576109c8338787848181106109bc576109bc611ef7565b9050602002013561122b565b610a428686838181106109dd576109dd611ef7565b905060200201358585848181106109f6576109f6611ef7565b9050602002810190610a089190611f0d565b8080601f0160208091040260200160405190810160405280939291908181526020018383808284376000920191909152506113b692505050565b610a7a868683818110610a5757610a57611ef7565b9050602002013533600a60149054906101000a90046001600160601b0316611104565b33868683818110610a8d57610a8d611ef7565b905060200201357f451e25b53df3039d20f7b4888dfe16d91279b341fdf5e97e24309b9f87ace367868685818110610ac757610ac7611ef7565b9050602002810190610ad99190611f0d565b604051610ae7929190611f54565b60405180910390a380610af981611f83565b91505061099e565b505050505050565b6060600180546103f490611e19565b610b23338383611481565b5050565b610b2f6110aa565b600a80546001600160a01b0316600160a01b6001600160601b038416908102919091179091556040519081527f2244cfe256195e95f93b312d1dfd6b26e1587f0ddfac84ec5524dfdbf72bdec49060200160405180910390a150565b610b953383610e88565b610bb15760405162461bcd60e51b815260040161051290611e53565b610bbd8484848461154f565b50505050565b6060610bce82610dbb565b60008281526006602052604081208054610be790611e19565b80601f0160208091040260200160405190810160405280929190818152602001828054610c1390611e19565b8015610c605780601f10610c3557610100808354040283529160200191610c60565b820191906000526020600020905b815481529060010190602001808311610c4357829003601f168201915b505050505090506000610c7e60408051602081019091526000815290565b90508051600003610c90575092915050565b815115610cc2578082604051602001610caa929190611f9c565b60405160208183030381529060405292505050919050565b610ccb84611582565b949350505050565b610cdb6110aa565b600a80546001600160a01b0383166001600160a01b03199091168117909155610d0c6009546001600160a01b031690565b6001600160a01b03167f38d16b8cac22d99fc7c124b9cd0de2d3fa1faef420bfe791d8c362d765e2270060405160405180910390a350565b600980546001600160a01b038381166001600160a01b0319831681179093556040519116919082907f8be0079c531659141344cd1fd0a4f28419497f9722a3daafe3b4186f6b6457e090600090a35050565b60006001600160e01b0319821663152a902d60e11b14806103df57506103df826115f6565b6000818152600260205260409020546001600160a01b031661073e5760405162461bcd60e51b8152602060048201526018602482015277115490cdcc8c4e881a5b9d985b1a59081d1bdad95b88125160421b6044820152606401610512565b600081815260046020526040902080546001600160a01b0319166001600160a01b0384169081179091558190610e4f82610754565b6001600160a01b03167f8c5be1e5ebec7d5bd14f71427d1e84f3dd0314c0f7b2291e5b200ac8c7c3b92560405160405180910390a45050565b600080610e9483610754565b9050806001600160a01b0316846001600160a01b03161480610edb57506001600160a01b0380821660009081526005602090815260408083209388168352929052205460ff165b80610ccb5750836001600160a01b0316610ef484610477565b6001600160a01b031614949350505050565b826001600160a01b0316610f1982610754565b6001600160a01b031614610f3f5760405162461bcd60e51b815260040161051290611fcb565b6001600160a01b038216610fa15760405162461bcd60e51b8152602060048201526024808201527f4552433732313a207472616e7366657220746f20746865207a65726f206164646044820152637265737360e01b6064820152608401610512565b826001600160a01b0316610fb482610754565b6001600160a01b031614610fda5760405162461bcd60e51b815260040161051290611fcb565b600081815260046020908152604080832080546001600160a01b03199081169091556001600160a01b0387811680865260038552838620805460001901905590871680865283862080546001019055868652600290945282852080549092168417909155905184937fddf252ad1be2c89b69c2b068fc378daa952ba7f163c4a11628f55a4df523b3ef91a4505050565b6110738161161b565b6000818152600660205260409020805461108c90611e19565b15905061073e57600081815260066020526040812061073e9161196c565b6009546001600160a01b0316331461084c5760405162461bcd60e51b815260206004820181905260248201527f4f776e61626c653a2063616c6c6572206973206e6f7420746865206f776e65726044820152606401610512565b6127106001600160601b03821611156111725760405162461bcd60e51b815260206004820152602a60248201527f455243323938313a20726f79616c7479206665652077696c6c206578636565646044820152692073616c65507269636560b01b6064820152608401610512565b6001600160a01b0382166111c85760405162461bcd60e51b815260206004820152601b60248201527f455243323938313a20496e76616c696420706172616d657465727300000000006044820152606401610512565b6040805180820182526001600160a01b0393841681526001600160601b0392831660208083019182526000968752600890529190942093519051909116600160a01b029116179055565b600a80546001600160a01b031916905561073e81610d44565b6001600160a01b0382166112815760405162461bcd60e51b815260206004820181905260248201527f4552433732313a206d696e7420746f20746865207a65726f20616464726573736044820152606401610512565b6000818152600260205260409020546001600160a01b0316156112e65760405162461bcd60e51b815260206004820152601c60248201527f4552433732313a20746f6b656e20616c7265616479206d696e746564000000006044820152606401610512565b6000818152600260205260409020546001600160a01b03161561134b5760405162461bcd60e51b815260206004820152601c60248201527f4552433732313a20746f6b656e20616c7265616479206d696e746564000000006044820152606401610512565b6001600160a01b038216600081815260036020908152604080832080546001019055848352600290915280822080546001600160a01b0319168417905551839291907fddf252ad1be2c89b69c2b068fc378daa952ba7f163c4a11628f55a4df523b3ef908290a45050565b6000828152600260205260409020546001600160a01b03166114315760405162461bcd60e51b815260206004820152602e60248201527f45524337323155524953746f726167653a2055524920736574206f66206e6f6e60448201526d32bc34b9ba32b73a103a37b5b2b760911b6064820152608401610512565b60008281526006602052604090206114498282612056565b506040518281527ff8e1a15aba9398e019f0b49df1a4fde98ee17ae345cb5f6b5e2c27f5033e8ce79060200160405180910390a15050565b816001600160a01b0316836001600160a01b0316036114e25760405162461bcd60e51b815260206004820152601960248201527f4552433732313a20617070726f766520746f2063616c6c6572000000000000006044820152606401610512565b6001600160a01b03838116600081815260056020908152604080832094871680845294825291829020805460ff191686151590811790915591519182527f17307eab39ab6107e8899845ad3d59bd9653f200f220920489ca2b5937696c31910160405180910390a3505050565b61155a848484610f06565b611566848484846116b0565b610bbd5760405162461bcd60e51b815260040161051290612116565b606061158d82610dbb565b60006115a460408051602081019091526000815290565b905060008151116115c457604051806020016040528060008152506115ef565b806115ce846117b1565b6040516020016115df929190611f9c565b6040516020818303038152906040525b9392505050565b60006001600160e01b03198216632483248360e11b14806103df57506103df82611844565b600061162682610754565b905061163182610754565b600083815260046020908152604080832080546001600160a01b03199081169091556001600160a01b0385168085526003845282852080546000190190558785526002909352818420805490911690555192935084927fddf252ad1be2c89b69c2b068fc378daa952ba7f163c4a11628f55a4df523b3ef908390a45050565b60006001600160a01b0384163b156117a657604051630a85bd0160e11b81526001600160a01b0385169063150b7a02906116f4903390899088908890600401612168565b6020604051808303816000875af192505050801561172f575060408051601f3d908101601f1916820190925261172c918101906121a5565b60015b61178c573d80801561175d576040519150601f19603f3d011682016040523d82523d6000602084013e611762565b606091505b5080516000036117845760405162461bcd60e51b815260040161051290612116565b805181602001fd5b6001600160e01b031916630a85bd0160e11b149050610ccb565b506001949350505050565b606060006117be83611894565b600101905060008167ffffffffffffffff8111156117de576117de611b7b565b6040519080825280601f01601f191660200182016040528015611808576020820181803683370190505b5090508181016020015b600019016f181899199a1a9b1b9c1cb0b131b232b360811b600a86061a8153600a850494508461181257509392505050565b60006001600160e01b031982166380ac58cd60e01b148061187557506001600160e01b03198216635b5e139f60e01b145b806103df57506301ffc9a760e01b6001600160e01b03198316146103df565b60008072184f03e93ff9f4daa797ed6e38ed64bf6a1f0160401b83106118d35772184f03e93ff9f4daa797ed6e38ed64bf6a1f0160401b830492506040015b6d04ee2d6d415b85acef810000000083106118ff576d04ee2d6d415b85acef8100000000830492506020015b662386f26fc10000831061191d57662386f26fc10000830492506010015b6305f5e1008310611935576305f5e100830492506008015b612710831061194957612710830492506004015b6064831061195b576064830492506002015b600a83106103df5760010192915050565b50805461197890611e19565b6000825580601f10611988575050565b601f01602090049060005260206000209081019061073e91905b808211156119b657600081556001016119a2565b5090565b6001600160e01b03198116811461073e57600080fd5b6000602082840312156119e257600080fd5b81356115ef816119ba565b60005b83811015611a085781810151838201526020016119f0565b50506000910152565b60008151808452611a298160208601602086016119ed565b601f01601f19169290920160200192915050565b6020815260006115ef6020830184611a11565b600060208284031215611a6257600080fd5b5035919050565b80356001600160a01b0381168114611a8057600080fd5b919050565b60008060408385031215611a9857600080fd5b611aa183611a69565b946020939093013593505050565b600080600060608486031215611ac457600080fd5b611acd84611a69565b9250611adb60208501611a69565b9150604084013590509250925092565b60008060408385031215611afe57600080fd5b50508035926020909101359150565b80356001600160601b0381168114611a8057600080fd5b600080600060608486031215611b3957600080fd5b83359250611b4960208501611a69565b9150611b5760408501611b0d565b90509250925092565b600060208284031215611b7257600080fd5b6115ef82611a69565b634e487b7160e01b600052604160045260246000fd5b600067ffffffffffffffff80841115611bac57611bac611b7b565b604051601f8501601f19908116603f01168101908282118183101715611bd457611bd4611b7b565b81604052809350858152868686011115611bed57600080fd5b858560208301376000602087830101525050509392505050565b60008060408385031215611c1a57600080fd5b82359150602083013567ffffffffffffffff811115611c3857600080fd5b8301601f81018513611c4957600080fd5b611c5885823560208401611b91565b9150509250929050565b60008083601f840112611c7457600080fd5b50813567ffffffffffffffff811115611c8c57600080fd5b6020830191508360208260051b850101111561069157600080fd5b60008060008060408587031215611cbd57600080fd5b843567ffffffffffffffff80821115611cd557600080fd5b611ce188838901611c62565b90965094506020870135915080821115611cfa57600080fd5b50611d0787828801611c62565b95989497509550505050565b60008060408385031215611d2657600080fd5b611d2f83611a69565b915060208301358015158114611d4457600080fd5b809150509250929050565b600060208284031215611d6157600080fd5b6115ef82611b0d565b60008060008060808587031215611d8057600080fd5b611d8985611a69565b9350611d9760208601611a69565b925060408501359150606085013567ffffffffffffffff811115611dba57600080fd5b8501601f81018713611dcb57600080fd5b611dda87823560208401611b91565b91505092959194509250565b60008060408385031215611df957600080fd5b611e0283611a69565b9150611e1060208401611a69565b90509250929050565b600181811c90821680611e2d57607f821691505b602082108103611e4d57634e487b7160e01b600052602260045260246000fd5b50919050565b6020808252602d908201527f4552433732313a2063616c6c6572206973206e6f7420746f6b656e206f776e6560408201526c1c881bdc88185c1c1c9bdd9959609a1b606082015260800190565b634e487b7160e01b600052601160045260246000fd5b6000816000190483118215151615611ed057611ed0611ea0565b500290565b600082611ef257634e487b7160e01b600052601260045260246000fd5b500490565b634e487b7160e01b600052603260045260246000fd5b6000808335601e19843603018112611f2457600080fd5b83018035915067ffffffffffffffff821115611f3f57600080fd5b60200191503681900382131561069157600080fd5b60208152816020820152818360408301376000818301604090810191909152601f909201601f19160101919050565b600060018201611f9557611f95611ea0565b5060010190565b60008351611fae8184602088016119ed565b835190830190611fc28183602088016119ed565b01949350505050565b60208082526025908201527f4552433732313a207472616e736665722066726f6d20696e636f72726563742060408201526437bbb732b960d91b606082015260800190565b601f8211156105b357600081815260208120601f850160051c810160208610156120375750805b601f850160051c820191505b81811015610b0157828155600101612043565b815167ffffffffffffffff81111561207057612070611b7b565b6120848161207e8454611e19565b84612010565b602080601f8311600181146120b957600084156120a15750858301515b600019600386901b1c1916600185901b178555610b01565b600085815260208120601f198616915b828110156120e8578886015182559484019460019091019084016120c9565b50858210156121065787850151600019600388901b60f8161c191681555b5050505050600190811b01905550565b60208082526032908201527f4552433732313a207472616e7366657220746f206e6f6e20455243373231526560408201527131b2b4bb32b91034b6b83632b6b2b73a32b960711b606082015260800190565b6001600160a01b038581168252841660208201526040810183905260806060820181905260009061219b90830184611a11565b9695505050505050565b6000602082840312156121b757600080fd5b81516115ef816119ba56fea264697066735822122081f600144ff6566598b169c7d1fa41033fa42a3d7a55875a53c14c7f9e9e113664736f6c63430008100033",
  "devdoc": {
    "kind": "dev",
    "methods": {
      "acceptOwnership()": {
        "details": "The new owner accepts the ownership transfer."
      },
      "approve(address,uint256)": {
        "details": "See {IERC721-approve}."
      },
      "balanceOf(address)": {
        "details": "See {IERC721-balanceOf}."
      },
      "getApproved(uint256)": {
        "details": "See {IERC721-getApproved}."
      },
      "isApprovedForAll(address,address)": {
        "details": "See {IERC721-isApprovedForAll}."
      },
      "name()": {
        "details": "See {IERC721Metadata-name}."
      },
      "owner()": {
        "details": "Returns the address of the current owner."
      },
      "ownerOf(uint256)": {
        "details": "See {IERC721-ownerOf}."
      },
      "pendingOwner()": {
        "details": "Returns the address of the pending owner."
      },
      "renounceOwnership()": {
        "details": "Leaves the contract without owner. It will not be possible to call `onlyOwner` functions. Can only be called by the current owner. NOTE: Renouncing ownership will leave the contract without an owner, thereby disabling any functionality that is only available to the owner."
      },
      "royaltyInfo(uint256,uint256)": {
        "details": "Returns how much royalty is owed and to whom, based on a sale price that may be denominated in any unit of exchange. The royalty amount is denominated and should be paid in that same unit of exchange."
      },
      "safeTransferFrom(address,address,uint256)": {
        "details": "See {IERC721-safeTransferFrom}."
      },
      "safeTransferFrom(address,address,uint256,bytes)": {
        "details": "See {IERC721-safeTransferFrom}."
      },
      "setApprovalForAll(address,bool)": {
        "details": "See {IERC721-setApprovalForAll}."
      },
      "symbol()": {
        "details": "See {IERC721Metadata-symbol}."
      },
      "tokenURI(uint256)": {
        "details": "See {IERC721Metadata-tokenURI}."
      },
      "transferFrom(address,address,uint256)": {
        "details": "See {IERC721-transferFrom}."
      },
      "transferOwnership(address)": {
        "details": "Starts the ownership transfer of the contract to a new account. Replaces the pending transfer if there is one. Can only be called by the current owner."
      }
    },
    "version": 1
  },
  "userdoc": {
    "kind": "user",
    "methods": {},
    "version": 1
  },
  "storageLayout": {
    "storage": [
      {
        "astId": 268,
        "contract": "contracts/FireVerseNFT.sol:FireVerseNFT",
        "label": "_name",
        "offset": 0,
        "slot": "0",
        "type": "t_string_storage"
      },
      {
        "astId": 270,
        "contract": "contracts/FireVerseNFT.sol:FireVerseNFT",
        "label": "_symbol",
        "offset": 0,
        "slot": "1",
        "type": "t_string_storage"
      },
      {
        "astId": 274,
        "contract": "contracts/FireVerseNFT.sol:FireVerseNFT",
        "label": "_owners",
        "offset": 0,
        "slot": "2",
        "type": "t_mapping(t_uint256,t_address)"
      },
      {
        "astId": 278,
        "contract": "contracts/FireVerseNFT.sol:FireVerseNFT",
        "label": "_balances",
        "offset": 0,
        "slot": "3",
        "type": "t_mapping(t_address,t_uint256)"
      },
      {
        "astId": 282,
        "contract": "contracts/FireVerseNFT.sol:FireVerseNFT",
        "label": "_tokenApprovals",
        "offset": 0,
        "slot": "4",
        "type": "t_mapping(t_uint256,t_address)"
      },
      {
        "astId": 288,
        "contract": "contracts/FireVerseNFT.sol:FireVerseNFT",
        "label": "_operatorApprovals",
        "offset": 0,
        "slot": "5",
        "type": "t_mapping(t_address,t_mapping(t_address,t_bool))"
      },
      {
        "astId": 1319,
        "contract": "contracts/FireVerseNFT.sol:FireVerseNFT",
        "label": "_tokenURIs",
        "offset": 0,
        "slot": "6",
        "type": "t_mapping(t_uint256,t_string_storage)"
      },
      {
        "astId": 1503,
        "contract": "contracts/FireVerseNFT.sol:FireVerseNFT",
        "label": "_defaultRoyaltyInfo",
        "offset": 0,
        "slot": "7",
        "type": "t_struct(RoyaltyInfo)1500_storage"
      },
      {
        "astId": 1508,
        "contract": "contracts/FireVerseNFT.sol:FireVerseNFT",
        "label": "_tokenRoyaltyInfo",
        "offset": 0,
        "slot": "8",
        "type": "t_mapping(t_uint256,t_struct(RoyaltyInfo)1500_storage)"
      },
      {
        "astId": 7,
        "contract": "contracts/FireVerseNFT.sol:FireVerseNFT",
        "label": "_owner",
        "offset": 0,
        "slot": "9",
        "type": "t_address"
      },
      {
        "astId": 120,
        "contract": "contracts/FireVerseNFT.sol:FireVerseNFT",
        "label": "_pendingOwner",
        "offset": 0,
        "slot": "10",
        "type": "t_address"
      },
      {
        "astId": 3293,
        "contract": "contracts/FireVerseNFT.sol:FireVerseNFT",
        "label": "defaultFeeNumerator",
        "offset": 20,
        "slot": "10",
        "type": "t_uint96"
      }
    ],
    "types": {
      "t_address": {
        "encoding": "inplace",
        "label": "address",
        "numberOfBytes": "20"
      },
      "t_bool": {
        "encoding": "inplace",
        "label": "bool",
        "numberOfBytes": "1"
      },
      "t_mapping(t_address,t_bool)": {
        "encoding": "mapping",
        "key": "t_address",
        "label": "mapping(address => bool)",
        "numberOfBytes": "32",
        "value": "t_bool"
      },
      "t_mapping(t_address,t_mapping(t_address,t_bool))": {
        "encoding": "mapping",
        "key": "t_address",
        "label": "mapping(address => mapping(address => bool))",
        "numberOfBytes": "32",
        "value": "t_mapping(t_address,t_bool)"
      },
      "t_mapping(t_address,t_uint256)": {
        "encoding": "mapping",
        "key": "t_address",
        "label": "mapping(address => uint256)",
        "numberOfBytes": "32",
        "value": "t_uint256"
      },
      "t_mapping(t_uint256,t_address)": {
        "encoding": "mapping",
        "key": "t_uint256",
        "label": "mapping(uint256 => address)",
        "numberOfBytes": "32",
        "value": "t_address"
      },
      "t_mapping(t_uint256,t_string_storage)": {
        "encoding": "mapping",
        "key": "t_uint256",
        "label": "mapping(uint256 => string)",
        "numberOfBytes": "32",
        "value": "t_string_storage"
      },
      "t_mapping(t_uint256,t_struct(RoyaltyInfo)1500_storage)": {
        "encoding": "mapping",
        "key": "t_uint256",
        "label": "mapping(uint256 => struct ERC2981.RoyaltyInfo)",
        "numberOfBytes": "32",
        "value": "t_struct(RoyaltyInfo)1500_storage"
      },
      "t_string_storage": {
        "encoding": "bytes",
        "label": "string",
        "numberOfBytes": "32"
      },
      "t_struct(RoyaltyInfo)1500_storage": {
        "encoding": "inplace",
        "label": "struct ERC2981.RoyaltyInfo",
        "members": [
          {
            "astId": 1497,
            "contract": "contracts/FireVerseNFT.sol:FireVerseNFT",
            "label": "receiver",
            "offset": 0,
            "slot": "0",
            "type": "t_address"
          },
          {
            "astId": 1499,
            "contract": "contracts/FireVerseNFT.sol:FireVerseNFT",
            "label": "royaltyFraction",
            "offset": 20,
            "slot": "0",
            "type": "t_uint96"
          }
        ],
        "numberOfBytes": "32"
      },
      "t_uint256": {
        "encoding": "inplace",
        "label": "uint256",
        "numberOfBytes": "32"
      },
      "t_uint96": {
        "encoding": "inplace",
        "label": "uint96",
        "numberOfBytes": "12"
      }
    }
  }
}