{
  "address": "0xBd5014d06DcCE29ADD0a17976023870B471E1541",
  "abi": [
    {
      "inputs": [
        {
          "internalType": "string",
          "name": "name_",
          "type": "string"
        },
        {
          "internalType": "string",
          "name": "symbol_",
          "type": "string"
        },
        {
          "internalType": "uint96",
          "name": "feeNumerator_",
          "type": "uint96"
        }
      ],
      "stateMutability": "nonpayable",
      "type": "constructor"
    },
    {
      "anonymous": false,
      "inputs": [
        {
          "indexed": true,
          "internalType": "address",
          "name": "owner",
          "type": "address"
        },
        {
          "indexed": true,
          "internalType": "address",
          "name": "approved",
          "type": "address"
        },
        {
          "indexed": true,
          "internalType": "uint256",
          "name": "tokenId",
          "type": "uint256"
        }
      ],
      "name": "Approval",
      "type": "event"
    },
    {
      "anonymous": false,
      "inputs": [
        {
          "indexed": true,
          "internalType": "address",
          "name": "owner",
          "type": "address"
        },
        {
          "indexed": true,
          "internalType": "address",
          "name": "operator",
          "type": "address"
        },
        {
          "indexed": false,
          "internalType": "bool",
          "name": "approved",
          "type": "bool"
        }
      ],
      "name": "ApprovalForAll",
      "type": "event"
    },
    {
      "anonymous": false,
      "inputs": [
        {
          "indexed": false,
          "internalType": "uint256",
          "name": "_fromTokenId",
          "type": "uint256"
        },
        {
          "indexed": false,
          "internalType": "uint256",
          "name": "_toTokenId",
          "type": "uint256"
        }
      ],
      "name": "BatchMetadataUpdate",
      "type": "event"
    },
    {
      "anonymous": false,
      "inputs": [
        {
          "indexed": false,
          "internalType": "uint256",
          "name": "_tokenId",
          "type": "uint256"
        }
      ],
      "name": "MetadataUpdate",
      "type": "event"
    },
    {
      "anonymous": false,
      "inputs": [
        {
          "indexed": true,
          "internalType": "uint256",
          "name": "tokenId",
          "type": "uint256"
        },
        {
          "indexed": true,
          "internalType": "address",
          "name": "recipient",
          "type": "address"
        },
        {
          "indexed": false,
          "internalType": "string",
          "name": "tokenURI",
          "type": "string"
        }
      ],
      "name": "MintFireVerseNFT",
      "type": "event"
    },
    {
      "anonymous": false,
      "inputs": [
        {
          "indexed": true,
          "internalType": "address",
          "name": "previousOwner",
          "type": "address"
        },
        {
          "indexed": true,
          "internalType": "address",
          "name": "newOwner",
          "type": "address"
        }
      ],
      "name": "OwnershipTransferred",
      "type": "event"
    },
    {
      "anonymous": false,
      "inputs": [
        {
          "indexed": true,
          "internalType": "address",
          "name": "from",
          "type": "address"
        },
        {
          "indexed": true,
          "internalType": "address",
          "name": "to",
          "type": "address"
        },
        {
          "indexed": true,
          "internalType": "uint256",
          "name": "tokenId",
          "type": "uint256"
        }
      ],
      "name": "Transfer",
      "type": "event"
    },
    {
      "inputs": [
        {
          "internalType": "address",
          "name": "to",
          "type": "address"
        },
        {
          "internalType": "uint256",
          "name": "tokenId",
          "type": "uint256"
        }
      ],
      "name": "approve",
      "outputs": [],
      "stateMutability": "nonpayable",
      "type": "function"
    },
    {
      "inputs": [
        {
          "internalType": "address",
          "name": "owner",
          "type": "address"
        }
      ],
      "name": "balanceOf",
      "outputs": [
        {
          "internalType": "uint256",
          "name": "",
          "type": "uint256"
        }
      ],
      "stateMutability": "view",
      "type": "function"
    },
    {
      "inputs": [
        {
          "internalType": "address[]",
          "name": "recipients",
          "type": "address[]"
        },
        {
          "internalType": "string[]",
          "name": "tokenURIs",
          "type": "string[]"
        }
      ],
      "name": "batchMint",
      "outputs": [],
      "stateMutability": "nonpayable",
      "type": "function"
    },
    {
      "inputs": [
        {
          "internalType": "uint256",
          "name": "tokenId",
          "type": "uint256"
        }
      ],
      "name": "burn",
      "outputs": [],
      "stateMutability": "nonpayable",
      "type": "function"
    },
    {
      "inputs": [],
      "name": "defaultFeeNumerator",
      "outputs": [
        {
          "internalType": "uint96",
          "name": "",
          "type": "uint96"
        }
      ],
      "stateMutability": "view",
      "type": "function"
    },
    {
      "inputs": [
        {
          "internalType": "uint256",
          "name": "tokenId",
          "type": "uint256"
        }
      ],
      "name": "getApproved",
      "outputs": [
        {
          "internalType": "address",
          "name": "",
          "type": "address"
        }
      ],
      "stateMutability": "view",
      "type": "function"
    },
    {
      "inputs": [
        {
          "internalType": "address",
          "name": "owner",
          "type": "address"
        },
        {
          "internalType": "address",
          "name": "operator",
          "type": "address"
        }
      ],
      "name": "isApprovedForAll",
      "outputs": [
        {
          "internalType": "bool",
          "name": "",
          "type": "bool"
        }
      ],
      "stateMutability": "view",
      "type": "function"
    },
    {
      "inputs": [
        {
          "internalType": "address",
          "name": "recipient",
          "type": "address"
        },
        {
          "internalType": "string",
          "name": "tokenURI_",
          "type": "string"
        }
      ],
      "name": "mint",
      "outputs": [],
      "stateMutability": "nonpayable",
      "type": "function"
    },
    {
      "inputs": [],
      "name": "name",
      "outputs": [
        {
          "internalType": "string",
          "name": "",
          "type": "string"
        }
      ],
      "stateMutability": "view",
      "type": "function"
    },
    {
      "inputs": [],
      "name": "owner",
      "outputs": [
        {
          "internalType": "address",
          "name": "",
          "type": "address"
        }
      ],
      "stateMutability": "view",
      "type": "function"
    },
    {
      "inputs": [
        {
          "internalType": "uint256",
          "name": "tokenId",
          "type": "uint256"
        }
      ],
      "name": "ownerOf",
      "outputs": [
        {
          "internalType": "address",
          "name": "",
          "type": "address"
        }
      ],
      "stateMutability": "view",
      "type": "function"
    },
    {
      "inputs": [],
      "name": "renounceOwnership",
      "outputs": [],
      "stateMutability": "nonpayable",
      "type": "function"
    },
    {
      "inputs": [
        {
          "internalType": "uint256",
          "name": "tokenId",
          "type": "uint256"
        },
        {
          "internalType": "uint256",
          "name": "salePrice",
          "type": "uint256"
        }
      ],
      "name": "royaltyInfo",
      "outputs": [
        {
          "internalType": "address",
          "name": "",
          "type": "address"
        },
        {
          "internalType": "uint256",
          "name": "",
          "type": "uint256"
        }
      ],
      "stateMutability": "view",
      "type": "function"
    },
    {
      "inputs": [
        {
          "internalType": "address",
          "name": "from",
          "type": "address"
        },
        {
          "internalType": "address",
          "name": "to",
          "type": "address"
        },
        {
          "internalType": "uint256",
          "name": "tokenId",
          "type": "uint256"
        }
      ],
      "name": "safeTransferFrom",
      "outputs": [],
      "stateMutability": "nonpayable",
      "type": "function"
    },
    {
      "inputs": [
        {
          "internalType": "address",
          "name": "from",
          "type": "address"
        },
        {
          "internalType": "address",
          "name": "to",
          "type": "address"
        },
        {
          "internalType": "uint256",
          "name": "tokenId",
          "type": "uint256"
        },
        {
          "internalType": "bytes",
          "name": "data",
          "type": "bytes"
        }
      ],
      "name": "safeTransferFrom",
      "outputs": [],
      "stateMutability": "nonpayable",
      "type": "function"
    },
    {
      "inputs": [
        {
          "internalType": "address",
          "name": "operator",
          "type": "address"
        },
        {
          "internalType": "bool",
          "name": "approved",
          "type": "bool"
        }
      ],
      "name": "setApprovalForAll",
      "outputs": [],
      "stateMutability": "nonpayable",
      "type": "function"
    },
    {
      "inputs": [
        {
          "internalType": "uint96",
          "name": "feeNumerator",
          "type": "uint96"
        }
      ],
      "name": "setDefaultFeeNumerator",
      "outputs": [],
      "stateMutability": "nonpayable",
      "type": "function"
    },
    {
      "inputs": [
        {
          "internalType": "uint256",
          "name": "tokenId",
          "type": "uint256"
        },
        {
          "internalType": "address",
          "name": "receiver",
          "type": "address"
        },
        {
          "internalType": "uint96",
          "name": "feeNumerator",
          "type": "uint96"
        }
      ],
      "name": "setTokenRoyalty",
      "outputs": [],
      "stateMutability": "nonpayable",
      "type": "function"
    },
    {
      "inputs": [
        {
          "internalType": "bytes4",
          "name": "interfaceId",
          "type": "bytes4"
        }
      ],
      "name": "supportsInterface",
      "outputs": [
        {
          "internalType": "bool",
          "name": "",
          "type": "bool"
        }
      ],
      "stateMutability": "view",
      "type": "function"
    },
    {
      "inputs": [],
      "name": "symbol",
      "outputs": [
        {
          "internalType": "string",
          "name": "",
          "type": "string"
        }
      ],
      "stateMutability": "view",
      "type": "function"
    },
    {
      "inputs": [
        {
          "internalType": "uint256",
          "name": "tokenId",
          "type": "uint256"
        }
      ],
      "name": "tokenURI",
      "outputs": [
        {
          "internalType": "string",
          "name": "",
          "type": "string"
        }
      ],
      "stateMutability": "view",
      "type": "function"
    },
    {
      "inputs": [
        {
          "internalType": "address",
          "name": "from",
          "type": "address"
        },
        {
          "internalType": "address",
          "name": "to",
          "type": "address"
        },
        {
          "internalType": "uint256",
          "name": "tokenId",
          "type": "uint256"
        }
      ],
      "name": "transferFrom",
      "outputs": [],
      "stateMutability": "nonpayable",
      "type": "function"
    },
    {
      "inputs": [
        {
          "internalType": "address",
          "name": "newOwner",
          "type": "address"
        }
      ],
      "name": "transferOwnership",
      "outputs": [],
      "stateMutability": "nonpayable",
      "type": "function"
    }
  ],
  "transactionHash": "0x8c24620c94a79d6c22d89aec5d969b1249d996b6d0990b8df2bebe2bcbd6987d",
  "args": [
    "FireVerse NFT",
    "FireVerseNFT",
    100
  ],
  "numDeployments": 1,
  "solcInputHash": "34ddaf35c15419b40e49d524a2a7265f",
  "bytecode": "0x60806040523480156200001157600080fd5b50604051620024d6380380620024d68339810160408190526200003491620001b4565b82826000620000448382620002d0565b506001620000538282620002d0565b505050620000706200006a6200009960201b60201c565b6200009d565b600b80546001600160601b0319166001600160601b0392909216919091179055506200039c9050565b3390565b600980546001600160a01b038381166001600160a01b0319831681179093556040519116919082907f8be0079c531659141344cd1fd0a4f28419497f9722a3daafe3b4186f6b6457e090600090a35050565b634e487b7160e01b600052604160045260246000fd5b600082601f8301126200011757600080fd5b81516001600160401b0380821115620001345762000134620000ef565b604051601f8301601f19908116603f011681019082821181831017156200015f576200015f620000ef565b816040528381526020925086838588010111156200017c57600080fd5b600091505b83821015620001a0578582018301518183018401529082019062000181565b600093810190920192909252949350505050565b600080600060608486031215620001ca57600080fd5b83516001600160401b0380821115620001e257600080fd5b620001f08783880162000105565b945060208601519150808211156200020757600080fd5b50620002168682870162000105565b604086015190935090506001600160601b03811681146200023657600080fd5b809150509250925092565b600181811c908216806200025657607f821691505b6020821081036200027757634e487b7160e01b600052602260045260246000fd5b50919050565b601f821115620002cb57600081815260208120601f850160051c81016020861015620002a65750805b601f850160051c820191505b81811015620002c757828155600101620002b2565b5050505b505050565b81516001600160401b03811115620002ec57620002ec620000ef565b6200030481620002fd845462000241565b846200027d565b602080601f8311600181146200033c5760008415620003235750858301515b600019600386901b1c1916600185901b178555620002c7565b600085815260208120601f198616915b828110156200036d578886015182559484019460019091019084016200034c565b50858210156200038c5787850151600019600388901b60f8161c191681555b5050505050600190811b01905550565b61212a80620003ac6000396000f3fe608060405234801561001057600080fd5b506004361061014d5760003560e01c806370a08231116100c3578063af3f6f4d1161007c578063af3f6f4d146102db578063b88d4fde14610306578063c87b56dd14610319578063d0def5211461032c578063e985e9c51461033f578063f2fde38b1461035257600080fd5b806370a0823114610273578063715018a6146102945780638da5cb5b1461029c57806395d89b41146102ad578063a22cb465146102b5578063ad94ae73146102c857600080fd5b80632a55205a116101155780632a55205a146101e257806342842e0e1461021457806342966c68146102275780635944c7531461023a5780636352211e1461024d57806364ba144e1461026057600080fd5b806301ffc9a71461015257806306fdde031461017a578063081812fc1461018f578063095ea7b3146101ba57806323b872dd146101cf575b600080fd5b6101656101603660046118e8565b610365565b60405190151581526020015b60405180910390f35b610182610376565b6040516101719190611955565b6101a261019d366004611968565b610408565b6040516001600160a01b039091168152602001610171565b6101cd6101c836600461199d565b61042f565b005b6101cd6101dd3660046119c7565b610549565b6101f56101f0366004611a03565b61057b565b604080516001600160a01b039093168352602083019190915201610171565b6101cd6102223660046119c7565b610629565b6101cd610235366004611968565b610644565b6101cd610248366004611a3c565b6106c1565b6101a261025b366004611968565b6106d4565b6101cd61026e366004611abd565b610734565b610286610281366004611b29565b610933565b604051908152602001610171565b6101cd6109b9565b6009546001600160a01b03166101a2565b6101826109cd565b6101cd6102c3366004611b44565b6109dc565b6101cd6102d6366004611b80565b6109eb565b600b546102ee906001600160601b031681565b6040516001600160601b039091168152602001610171565b6101cd610314366004611c27565b610a1a565b610182610327366004611968565b610a52565b6101cd61033a366004611ca3565b610b62565b61016561034d366004611d05565b610bf9565b6101cd610360366004611b29565b610c27565b600061037082610c9d565b92915050565b60606000805461038590611d38565b80601f01602080910402602001604051908101604052809291908181526020018280546103b190611d38565b80156103fe5780601f106103d3576101008083540402835291602001916103fe565b820191906000526020600020905b8154815290600101906020018083116103e157829003601f168201915b5050505050905090565b600061041382610cc2565b506000908152600460205260409020546001600160a01b031690565b600061043a826106d4565b9050806001600160a01b0316836001600160a01b0316036104ac5760405162461bcd60e51b815260206004820152602160248201527f4552433732313a20617070726f76616c20746f2063757272656e74206f776e656044820152603960f91b60648201526084015b60405180910390fd5b336001600160a01b03821614806104c857506104c88133610bf9565b61053a5760405162461bcd60e51b815260206004820152603d60248201527f4552433732313a20617070726f76652063616c6c6572206973206e6f7420746f60448201527f6b656e206f776e6572206f7220617070726f76656420666f7220616c6c00000060648201526084016104a3565b6105448383610d21565b505050565b610554335b82610d8f565b6105705760405162461bcd60e51b81526004016104a390611d72565b610544838383610ded565b60008281526008602090815260408083208151808301909252546001600160a01b038116808352600160a01b9091046001600160601b03169282019290925282916105f05750604080518082019091526007546001600160a01b0381168252600160a01b90046001600160601b031660208201525b60208101516000906127109061060f906001600160601b031687611dd5565b6106199190611df4565b91519350909150505b9250929050565b61054483838360405180602001604052806000815250610a1a565b61064d3361054e565b6106b55760405162461bcd60e51b815260206004820152603360248201527f4669726556657273654e46543a2063616c6c6572206973206e6f7420746f6b656044820152721b881bdddb995c881bdc88185c1c1c9bdd9959606a1b60648201526084016104a3565b6106be81610f51565b50565b6106c9610f91565b610544838383610feb565b6000818152600260205260408120546001600160a01b0316806103705760405162461bcd60e51b8152602060048201526018602482015277115490cdcc8c4e881a5b9d985b1a59081d1bdad95b88125160421b60448201526064016104a3565b61073c610f91565b828181146107985760405162461bcd60e51b815260206004820152602360248201527f4669726556657273654e46543a206172726179206c656e677468206d69736d616044820152620e8c6d60eb1b60648201526084016104a3565b60005b8181101561092b576001600a60008282546107b69190611e16565b9091555050600a546107ee8787848181106107d3576107d3611e29565b90506020020160208101906107e89190611b29565b826110f9565b6108508186868581811061080457610804611e29565b90506020028101906108169190611e3f565b8080601f01602080910402602001604051908101604052809392919081815260200183838082843760009201919091525061128492505050565b61088c8188888581811061086657610866611e29565b905060200201602081019061087b9190611b29565b600b546001600160601b0316610feb565b86868381811061089e5761089e611e29565b90506020020160208101906108b39190611b29565b6001600160a01b0316817f451e25b53df3039d20f7b4888dfe16d91279b341fdf5e97e24309b9f87ace3678787868181106108f0576108f0611e29565b90506020028101906109029190611e3f565b604051610910929190611e86565b60405180910390a3508061092381611eb5565b91505061079b565b505050505050565b60006001600160a01b03821661099d5760405162461bcd60e51b815260206004820152602960248201527f4552433732313a2061646472657373207a65726f206973206e6f7420612076616044820152683634b21037bbb732b960b91b60648201526084016104a3565b506001600160a01b031660009081526003602052604090205490565b6109c1610f91565b6109cb600061134f565b565b60606001805461038590611d38565b6109e73383836113a1565b5050565b6109f3610f91565b600b80546bffffffffffffffffffffffff19166001600160601b0392909216919091179055565b610a243383610d8f565b610a405760405162461bcd60e51b81526004016104a390611d72565b610a4c84848484611467565b50505050565b6060610a5d82610cc2565b60008281526006602052604081208054610a7690611d38565b80601f0160208091040260200160405190810160405280929190818152602001828054610aa290611d38565b8015610aef5780601f10610ac457610100808354040283529160200191610aef565b820191906000526020600020905b815481529060010190602001808311610ad257829003601f168201915b505050505090506000610b0d60408051602081019091526000815290565b90508051600003610b1f575092915050565b815115610b51578082604051602001610b39929190611ece565b60405160208183030381529060405292505050919050565b610b5a8461149a565b949350505050565b610b6a610f91565b6001600a6000828254610b7d9190611e16565b9091555050600a54610b8f83826110f9565b610b998183611284565b600b54610bb290829085906001600160601b0316610feb565b826001600160a01b0316817f451e25b53df3039d20f7b4888dfe16d91279b341fdf5e97e24309b9f87ace36784604051610bec9190611955565b60405180910390a3505050565b6001600160a01b03918216600090815260056020908152604080832093909416825291909152205460ff1690565b610c2f610f91565b6001600160a01b038116610c945760405162461bcd60e51b815260206004820152602660248201527f4f776e61626c653a206e6577206f776e657220697320746865207a65726f206160448201526564647265737360d01b60648201526084016104a3565b6106be8161134f565b60006001600160e01b0319821663152a902d60e11b148061037057506103708261150e565b6000818152600260205260409020546001600160a01b03166106be5760405162461bcd60e51b8152602060048201526018602482015277115490cdcc8c4e881a5b9d985b1a59081d1bdad95b88125160421b60448201526064016104a3565b600081815260046020526040902080546001600160a01b0319166001600160a01b0384169081179091558190610d56826106d4565b6001600160a01b03167f8c5be1e5ebec7d5bd14f71427d1e84f3dd0314c0f7b2291e5b200ac8c7c3b92560405160405180910390a45050565b600080610d9b836106d4565b9050806001600160a01b0316846001600160a01b03161480610dc25750610dc28185610bf9565b80610b5a5750836001600160a01b0316610ddb84610408565b6001600160a01b031614949350505050565b826001600160a01b0316610e00826106d4565b6001600160a01b031614610e265760405162461bcd60e51b81526004016104a390611efd565b6001600160a01b038216610e885760405162461bcd60e51b8152602060048201526024808201527f4552433732313a207472616e7366657220746f20746865207a65726f206164646044820152637265737360e01b60648201526084016104a3565b826001600160a01b0316610e9b826106d4565b6001600160a01b031614610ec15760405162461bcd60e51b81526004016104a390611efd565b600081815260046020908152604080832080546001600160a01b03199081169091556001600160a01b0387811680865260038552838620805460001901905590871680865283862080546001019055868652600290945282852080549092168417909155905184937fddf252ad1be2c89b69c2b068fc378daa952ba7f163c4a11628f55a4df523b3ef91a4505050565b610f5a81611533565b60008181526006602052604090208054610f7390611d38565b1590506106be5760008181526006602052604081206106be91611884565b6009546001600160a01b031633146109cb5760405162461bcd60e51b815260206004820181905260248201527f4f776e61626c653a2063616c6c6572206973206e6f7420746865206f776e657260448201526064016104a3565b6127106001600160601b03821611156110595760405162461bcd60e51b815260206004820152602a60248201527f455243323938313a20726f79616c7479206665652077696c6c206578636565646044820152692073616c65507269636560b01b60648201526084016104a3565b6001600160a01b0382166110af5760405162461bcd60e51b815260206004820152601b60248201527f455243323938313a20496e76616c696420706172616d6574657273000000000060448201526064016104a3565b6040805180820182526001600160a01b0393841681526001600160601b0392831660208083019182526000968752600890529190942093519051909116600160a01b029116179055565b6001600160a01b03821661114f5760405162461bcd60e51b815260206004820181905260248201527f4552433732313a206d696e7420746f20746865207a65726f206164647265737360448201526064016104a3565b6000818152600260205260409020546001600160a01b0316156111b45760405162461bcd60e51b815260206004820152601c60248201527f4552433732313a20746f6b656e20616c7265616479206d696e7465640000000060448201526064016104a3565b6000818152600260205260409020546001600160a01b0316156112195760405162461bcd60e51b815260206004820152601c60248201527f4552433732313a20746f6b656e20616c7265616479206d696e7465640000000060448201526064016104a3565b6001600160a01b038216600081815260036020908152604080832080546001019055848352600290915280822080546001600160a01b0319168417905551839291907fddf252ad1be2c89b69c2b068fc378daa952ba7f163c4a11628f55a4df523b3ef908290a45050565b6000828152600260205260409020546001600160a01b03166112ff5760405162461bcd60e51b815260206004820152602e60248201527f45524337323155524953746f726167653a2055524920736574206f66206e6f6e60448201526d32bc34b9ba32b73a103a37b5b2b760911b60648201526084016104a3565b60008281526006602052604090206113178282611f88565b506040518281527ff8e1a15aba9398e019f0b49df1a4fde98ee17ae345cb5f6b5e2c27f5033e8ce79060200160405180910390a15050565b600980546001600160a01b038381166001600160a01b0319831681179093556040519116919082907f8be0079c531659141344cd1fd0a4f28419497f9722a3daafe3b4186f6b6457e090600090a35050565b816001600160a01b0316836001600160a01b0316036114025760405162461bcd60e51b815260206004820152601960248201527f4552433732313a20617070726f766520746f2063616c6c65720000000000000060448201526064016104a3565b6001600160a01b03838116600081815260056020908152604080832094871680845294825291829020805460ff191686151590811790915591519182527f17307eab39ab6107e8899845ad3d59bd9653f200f220920489ca2b5937696c319101610bec565b611472848484610ded565b61147e848484846115c8565b610a4c5760405162461bcd60e51b81526004016104a390612048565b60606114a582610cc2565b60006114bc60408051602081019091526000815290565b905060008151116114dc5760405180602001604052806000815250611507565b806114e6846116c9565b6040516020016114f7929190611ece565b6040516020818303038152906040525b9392505050565b60006001600160e01b03198216632483248360e11b148061037057506103708261175c565b600061153e826106d4565b9050611549826106d4565b600083815260046020908152604080832080546001600160a01b03199081169091556001600160a01b0385168085526003845282852080546000190190558785526002909352818420805490911690555192935084927fddf252ad1be2c89b69c2b068fc378daa952ba7f163c4a11628f55a4df523b3ef908390a45050565b60006001600160a01b0384163b156116be57604051630a85bd0160e11b81526001600160a01b0385169063150b7a029061160c90339089908890889060040161209a565b6020604051808303816000875af1925050508015611647575060408051601f3d908101601f19168201909252611644918101906120d7565b60015b6116a4573d808015611675576040519150601f19603f3d011682016040523d82523d6000602084013e61167a565b606091505b50805160000361169c5760405162461bcd60e51b81526004016104a390612048565b805181602001fd5b6001600160e01b031916630a85bd0160e11b149050610b5a565b506001949350505050565b606060006116d6836117ac565b600101905060008167ffffffffffffffff8111156116f6576116f6611b9b565b6040519080825280601f01601f191660200182016040528015611720576020820181803683370190505b5090508181016020015b600019016f181899199a1a9b1b9c1cb0b131b232b360811b600a86061a8153600a850494508461172a57509392505050565b60006001600160e01b031982166380ac58cd60e01b148061178d57506001600160e01b03198216635b5e139f60e01b145b8061037057506301ffc9a760e01b6001600160e01b0319831614610370565b60008072184f03e93ff9f4daa797ed6e38ed64bf6a1f0160401b83106117eb5772184f03e93ff9f4daa797ed6e38ed64bf6a1f0160401b830492506040015b6d04ee2d6d415b85acef81000000008310611817576d04ee2d6d415b85acef8100000000830492506020015b662386f26fc10000831061183557662386f26fc10000830492506010015b6305f5e100831061184d576305f5e100830492506008015b612710831061186157612710830492506004015b60648310611873576064830492506002015b600a83106103705760010192915050565b50805461189090611d38565b6000825580601f106118a0575050565b601f0160209004906000526020600020908101906106be91905b808211156118ce57600081556001016118ba565b5090565b6001600160e01b0319811681146106be57600080fd5b6000602082840312156118fa57600080fd5b8135611507816118d2565b60005b83811015611920578181015183820152602001611908565b50506000910152565b60008151808452611941816020860160208601611905565b601f01601f19169290920160200192915050565b6020815260006115076020830184611929565b60006020828403121561197a57600080fd5b5035919050565b80356001600160a01b038116811461199857600080fd5b919050565b600080604083850312156119b057600080fd5b6119b983611981565b946020939093013593505050565b6000806000606084860312156119dc57600080fd5b6119e584611981565b92506119f360208501611981565b9150604084013590509250925092565b60008060408385031215611a1657600080fd5b50508035926020909101359150565b80356001600160601b038116811461199857600080fd5b600080600060608486031215611a5157600080fd5b83359250611a6160208501611981565b9150611a6f60408501611a25565b90509250925092565b60008083601f840112611a8a57600080fd5b50813567ffffffffffffffff811115611aa257600080fd5b6020830191508360208260051b850101111561062257600080fd5b60008060008060408587031215611ad357600080fd5b843567ffffffffffffffff80821115611aeb57600080fd5b611af788838901611a78565b90965094506020870135915080821115611b1057600080fd5b50611b1d87828801611a78565b95989497509550505050565b600060208284031215611b3b57600080fd5b61150782611981565b60008060408385031215611b5757600080fd5b611b6083611981565b915060208301358015158114611b7557600080fd5b809150509250929050565b600060208284031215611b9257600080fd5b61150782611a25565b634e487b7160e01b600052604160045260246000fd5b600067ffffffffffffffff80841115611bcc57611bcc611b9b565b604051601f8501601f19908116603f01168101908282118183101715611bf457611bf4611b9b565b81604052809350858152868686011115611c0d57600080fd5b858560208301376000602087830101525050509392505050565b60008060008060808587031215611c3d57600080fd5b611c4685611981565b9350611c5460208601611981565b925060408501359150606085013567ffffffffffffffff811115611c7757600080fd5b8501601f81018713611c8857600080fd5b611c9787823560208401611bb1565b91505092959194509250565b60008060408385031215611cb657600080fd5b611cbf83611981565b9150602083013567ffffffffffffffff811115611cdb57600080fd5b8301601f81018513611cec57600080fd5b611cfb85823560208401611bb1565b9150509250929050565b60008060408385031215611d1857600080fd5b611d2183611981565b9150611d2f60208401611981565b90509250929050565b600181811c90821680611d4c57607f821691505b602082108103611d6c57634e487b7160e01b600052602260045260246000fd5b50919050565b6020808252602d908201527f4552433732313a2063616c6c6572206973206e6f7420746f6b656e206f776e6560408201526c1c881bdc88185c1c1c9bdd9959609a1b606082015260800190565b634e487b7160e01b600052601160045260246000fd5b6000816000190483118215151615611def57611def611dbf565b500290565b600082611e1157634e487b7160e01b600052601260045260246000fd5b500490565b8082018082111561037057610370611dbf565b634e487b7160e01b600052603260045260246000fd5b6000808335601e19843603018112611e5657600080fd5b83018035915067ffffffffffffffff821115611e7157600080fd5b60200191503681900382131561062257600080fd5b60208152816020820152818360408301376000818301604090810191909152601f909201601f19160101919050565b600060018201611ec757611ec7611dbf565b5060010190565b60008351611ee0818460208801611905565b835190830190611ef4818360208801611905565b01949350505050565b60208082526025908201527f4552433732313a207472616e736665722066726f6d20696e636f72726563742060408201526437bbb732b960d91b606082015260800190565b601f82111561054457600081815260208120601f850160051c81016020861015611f695750805b601f850160051c820191505b8181101561092b57828155600101611f75565b815167ffffffffffffffff811115611fa257611fa2611b9b565b611fb681611fb08454611d38565b84611f42565b602080601f831160018114611feb5760008415611fd35750858301515b600019600386901b1c1916600185901b17855561092b565b600085815260208120601f198616915b8281101561201a57888601518255948401946001909101908401611ffb565b50858210156120385787850151600019600388901b60f8161c191681555b5050505050600190811b01905550565b60208082526032908201527f4552433732313a207472616e7366657220746f206e6f6e20455243373231526560408201527131b2b4bb32b91034b6b83632b6b2b73a32b960711b606082015260800190565b6001600160a01b03858116825284166020820152604081018390526080606082018190526000906120cd90830184611929565b9695505050505050565b6000602082840312156120e957600080fd5b8151611507816118d256fea26469706673582212204673717632f712e5f3725fb73c16061d7984b8ea27dd43b4c08364b8409c198464736f6c63430008100033",
  "devdoc": {
    "kind": "dev",
    "methods": {
      "approve(address,uint256)": {
        "details": "See {IERC721-approve}."
      },
      "balanceOf(address)": {
        "details": "See {IERC721-balanceOf}."
      },
      "getApproved(uint256)": {
        "details": "See {IERC721-getApproved}."
      },
      "isApprovedForAll(address,address)": {
        "details": "See {IERC721-isApprovedForAll}."
      },
      "name()": {
        "details": "See {IERC721Metadata-name}."
      },
      "owner()": {
        "details": "Returns the address of the current owner."
      },
      "ownerOf(uint256)": {
        "details": "See {IERC721-ownerOf}."
      },
      "renounceOwnership()": {
        "details": "Leaves the contract without owner. It will not be possible to call `onlyOwner` functions. Can only be called by the current owner. NOTE: Renouncing ownership will leave the contract without an owner, thereby disabling any functionality that is only available to the owner."
      },
      "royaltyInfo(uint256,uint256)": {
        "details": "Returns how much royalty is owed and to whom, based on a sale price that may be denominated in any unit of exchange. The royalty amount is denominated and should be paid in that same unit of exchange."
      },
      "safeTransferFrom(address,address,uint256)": {
        "details": "See {IERC721-safeTransferFrom}."
      },
      "safeTransferFrom(address,address,uint256,bytes)": {
        "details": "See {IERC721-safeTransferFrom}."
      },
      "setApprovalForAll(address,bool)": {
        "details": "See {IERC721-setApprovalForAll}."
      },
      "symbol()": {
        "details": "See {IERC721Metadata-symbol}."
      },
      "tokenURI(uint256)": {
        "details": "See {IERC721Metadata-tokenURI}."
      },
      "transferFrom(address,address,uint256)": {
        "details": "See {IERC721-transferFrom}."
      },
      "transferOwnership(address)": {
        "details": "Transfers ownership of the contract to a new account (`newOwner`). Can only be called by the current owner."
      }
    },
    "version": 1
  },
  "userdoc": {
    "kind": "user",
    "methods": {},
    "version": 1
  },
  "storageLayout": {
    "storage": [
      {
        "astId": 185,
        "contract": "contracts/FireVerseNFT.sol:FireVerseNFT",
        "label": "_name",
        "offset": 0,
        "slot": "0",
        "type": "t_string_storage"
      },
      {
        "astId": 187,
        "contract": "contracts/FireVerseNFT.sol:FireVerseNFT",
        "label": "_symbol",
        "offset": 0,
        "slot": "1",
        "type": "t_string_storage"
      },
      {
        "astId": 191,
        "contract": "contracts/FireVerseNFT.sol:FireVerseNFT",
        "label": "_owners",
        "offset": 0,
        "slot": "2",
        "type": "t_mapping(t_uint256,t_address)"
      },
      {
        "astId": 195,
        "contract": "contracts/FireVerseNFT.sol:FireVerseNFT",
        "label": "_balances",
        "offset": 0,
        "slot": "3",
        "type": "t_mapping(t_address,t_uint256)"
      },
      {
        "astId": 199,
        "contract": "contracts/FireVerseNFT.sol:FireVerseNFT",
        "label": "_tokenApprovals",
        "offset": 0,
        "slot": "4",
        "type": "t_mapping(t_uint256,t_address)"
      },
      {
        "astId": 205,
        "contract": "contracts/FireVerseNFT.sol:FireVerseNFT",
        "label": "_operatorApprovals",
        "offset": 0,
        "slot": "5",
        "type": "t_mapping(t_address,t_mapping(t_address,t_bool))"
      },
      {
        "astId": 1236,
        "contract": "contracts/FireVerseNFT.sol:FireVerseNFT",
        "label": "_tokenURIs",
        "offset": 0,
        "slot": "6",
        "type": "t_mapping(t_uint256,t_string_storage)"
      },
      {
        "astId": 1420,
        "contract": "contracts/FireVerseNFT.sol:FireVerseNFT",
        "label": "_defaultRoyaltyInfo",
        "offset": 0,
        "slot": "7",
        "type": "t_struct(RoyaltyInfo)1417_storage"
      },
      {
        "astId": 1425,
        "contract": "contracts/FireVerseNFT.sol:FireVerseNFT",
        "label": "_tokenRoyaltyInfo",
        "offset": 0,
        "slot": "8",
        "type": "t_mapping(t_uint256,t_struct(RoyaltyInfo)1417_storage)"
      },
      {
        "astId": 7,
        "contract": "contracts/FireVerseNFT.sol:FireVerseNFT",
        "label": "_owner",
        "offset": 0,
        "slot": "9",
        "type": "t_address"
      },
      {
        "astId": 3210,
        "contract": "contracts/FireVerseNFT.sol:FireVerseNFT",
        "label": "_tokenIds",
        "offset": 0,
        "slot": "10",
        "type": "t_uint256"
      },
      {
        "astId": 3212,
        "contract": "contracts/FireVerseNFT.sol:FireVerseNFT",
        "label": "defaultFeeNumerator",
        "offset": 0,
        "slot": "11",
        "type": "t_uint96"
      }
    ],
    "types": {
      "t_address": {
        "encoding": "inplace",
        "label": "address",
        "numberOfBytes": "20"
      },
      "t_bool": {
        "encoding": "inplace",
        "label": "bool",
        "numberOfBytes": "1"
      },
      "t_mapping(t_address,t_bool)": {
        "encoding": "mapping",
        "key": "t_address",
        "label": "mapping(address => bool)",
        "numberOfBytes": "32",
        "value": "t_bool"
      },
      "t_mapping(t_address,t_mapping(t_address,t_bool))": {
        "encoding": "mapping",
        "key": "t_address",
        "label": "mapping(address => mapping(address => bool))",
        "numberOfBytes": "32",
        "value": "t_mapping(t_address,t_bool)"
      },
      "t_mapping(t_address,t_uint256)": {
        "encoding": "mapping",
        "key": "t_address",
        "label": "mapping(address => uint256)",
        "numberOfBytes": "32",
        "value": "t_uint256"
      },
      "t_mapping(t_uint256,t_address)": {
        "encoding": "mapping",
        "key": "t_uint256",
        "label": "mapping(uint256 => address)",
        "numberOfBytes": "32",
        "value": "t_address"
      },
      "t_mapping(t_uint256,t_string_storage)": {
        "encoding": "mapping",
        "key": "t_uint256",
        "label": "mapping(uint256 => string)",
        "numberOfBytes": "32",
        "value": "t_string_storage"
      },
      "t_mapping(t_uint256,t_struct(RoyaltyInfo)1417_storage)": {
        "encoding": "mapping",
        "key": "t_uint256",
        "label": "mapping(uint256 => struct ERC2981.RoyaltyInfo)",
        "numberOfBytes": "32",
        "value": "t_struct(RoyaltyInfo)1417_storage"
      },
      "t_string_storage": {
        "encoding": "bytes",
        "label": "string",
        "numberOfBytes": "32"
      },
      "t_struct(RoyaltyInfo)1417_storage": {
        "encoding": "inplace",
        "label": "struct ERC2981.RoyaltyInfo",
        "members": [
          {
            "astId": 1414,
            "contract": "contracts/FireVerseNFT.sol:FireVerseNFT",
            "label": "receiver",
            "offset": 0,
            "slot": "0",
            "type": "t_address"
          },
          {
            "astId": 1416,
            "contract": "contracts/FireVerseNFT.sol:FireVerseNFT",
            "label": "royaltyFraction",
            "offset": 20,
            "slot": "0",
            "type": "t_uint96"
          }
        ],
        "numberOfBytes": "32"
      },
      "t_uint256": {
        "encoding": "inplace",
        "label": "uint256",
        "numberOfBytes": "32"
      },
      "t_uint96": {
        "encoding": "inplace",
        "label": "uint96",
        "numberOfBytes": "12"
      }
    }
  }
}