{
  "address": "0x8b9a63E9334B51B3e86017e77cF0ed3012287232",
  "abi": [
    {
      "inputs": [],
      "stateMutability": "nonpayable",
      "type": "constructor"
    },
    {
      "inputs": [],
      "name": "InvalidShortString",
      "type": "error"
    },
    {
      "inputs": [
        {
          "internalType": "string",
          "name": "str",
          "type": "string"
        }
      ],
      "name": "StringTooLong",
      "type": "error"
    },
    {
      "anonymous": false,
      "inputs": [],
      "name": "EIP712DomainChanged",
      "type": "event"
    },
    {
      "anonymous": false,
      "inputs": [
        {
          "indexed": false,
          "internalType": "address",
          "name": "nft",
          "type": "address"
        },
        {
          "indexed": false,
          "internalType": "bool",
          "name": "allowed",
          "type": "bool"
        }
      ],
      "name": "NFTAllowed",
      "type": "event"
    },
    {
      "anonymous": false,
      "inputs": [
        {
          "indexed": true,
          "internalType": "address",
          "name": "signer",
          "type": "address"
        },
        {
          "indexed": true,
          "internalType": "address",
          "name": "nft",
          "type": "address"
        },
        {
          "indexed": true,
          "internalType": "uint256",
          "name": "tokenId",
          "type": "uint256"
        },
        {
          "indexed": false,
          "internalType": "uint256",
          "name": "nonce",
          "type": "uint256"
        }
      ],
      "name": "OrderCancelled",
      "type": "event"
    },
    {
      "anonymous": false,
      "inputs": [
        {
          "indexed": true,
          "internalType": "address",
          "name": "buyer",
          "type": "address"
        },
        {
          "indexed": true,
          "internalType": "address",
          "name": "seller",
          "type": "address"
        },
        {
          "indexed": true,
          "internalType": "address",
          "name": "nft",
          "type": "address"
        },
        {
          "indexed": false,
          "internalType": "uint256",
          "name": "tokenId",
          "type": "uint256"
        },
        {
          "indexed": false,
          "internalType": "address",
          "name": "paymentToken",
          "type": "address"
        },
        {
          "indexed": false,
          "internalType": "uint256",
          "name": "price",
          "type": "uint256"
        },
        {
          "indexed": false,
          "internalType": "uint256",
          "name": "royaltyAmount",
          "type": "uint256"
        },
        {
          "indexed": false,
          "internalType": "uint256",
          "name": "platformFee",
          "type": "uint256"
        }
      ],
      "name": "OrderExecuted",
      "type": "event"
    },
    {
      "anonymous": false,
      "inputs": [
        {
          "indexed": true,
          "internalType": "address",
          "name": "previousOwner",
          "type": "address"
        },
        {
          "indexed": true,
          "internalType": "address",
          "name": "newOwner",
          "type": "address"
        }
      ],
      "name": "OwnershipTransferStarted",
      "type": "event"
    },
    {
      "anonymous": false,
      "inputs": [
        {
          "indexed": true,
          "internalType": "address",
          "name": "previousOwner",
          "type": "address"
        },
        {
          "indexed": true,
          "internalType": "address",
          "name": "newOwner",
          "type": "address"
        }
      ],
      "name": "OwnershipTransferred",
      "type": "event"
    },
    {
      "anonymous": false,
      "inputs": [
        {
          "indexed": false,
          "internalType": "address",
          "name": "token",
          "type": "address"
        },
        {
          "indexed": false,
          "internalType": "bool",
          "name": "allowed",
          "type": "bool"
        }
      ],
      "name": "PaymentTokenAllowed",
      "type": "event"
    },
    {
      "anonymous": false,
      "inputs": [
        {
          "indexed": false,
          "internalType": "address",
          "name": "recipient",
          "type": "address"
        },
        {
          "indexed": false,
          "internalType": "uint96",
          "name": "feeBps",
          "type": "uint96"
        }
      ],
      "name": "PlatformFeeUpdated",
      "type": "event"
    },
    {
      "inputs": [
        {
          "components": [
            {
              "internalType": "address",
              "name": "signer",
              "type": "address"
            },
            {
              "internalType": "address",
              "name": "nft",
              "type": "address"
            },
            {
              "internalType": "uint256",
              "name": "tokenId",
              "type": "uint256"
            },
            {
              "internalType": "uint256",
              "name": "price",
              "type": "uint256"
            },
            {
              "internalType": "address",
              "name": "paymentToken",
              "type": "address"
            },
            {
              "internalType": "uint256",
              "name": "nonce",
              "type": "uint256"
            },
            {
              "internalType": "uint256",
              "name": "expiry",
              "type": "uint256"
            }
          ],
          "internalType": "struct FireVerseNFTMarketplace.Order",
          "name": "order",
          "type": "tuple"
        },
        {
          "internalType": "bytes",
          "name": "signature",
          "type": "bytes"
        }
      ],
      "name": "acceptOffer",
      "outputs": [],
      "stateMutability": "nonpayable",
      "type": "function"
    },
    {
      "inputs": [],
      "name": "acceptOwnership",
      "outputs": [],
      "stateMutability": "nonpayable",
      "type": "function"
    },
    {
      "inputs": [
        {
          "internalType": "address",
          "name": "nft",
          "type": "address"
        },
        {
          "internalType": "bool",
          "name": "allowed",
          "type": "bool"
        }
      ],
      "name": "allowNFT",
      "outputs": [],
      "stateMutability": "nonpayable",
      "type": "function"
    },
    {
      "inputs": [
        {
          "internalType": "address",
          "name": "token",
          "type": "address"
        },
        {
          "internalType": "bool",
          "name": "allowed",
          "type": "bool"
        }
      ],
      "name": "allowPaymentToken",
      "outputs": [],
      "stateMutability": "nonpayable",
      "type": "function"
    },
    {
      "inputs": [
        {
          "internalType": "address",
          "name": "",
          "type": "address"
        }
      ],
      "name": "allowedNFTs",
      "outputs": [
        {
          "internalType": "bool",
          "name": "",
          "type": "bool"
        }
      ],
      "stateMutability": "view",
      "type": "function"
    },
    {
      "inputs": [
        {
          "internalType": "address",
          "name": "",
          "type": "address"
        }
      ],
      "name": "allowedPaymentTokens",
      "outputs": [
        {
          "internalType": "bool",
          "name": "",
          "type": "bool"
        }
      ],
      "stateMutability": "view",
      "type": "function"
    },
    {
      "inputs": [
        {
          "internalType": "address[]",
          "name": "nftContracts",
          "type": "address[]"
        },
        {
          "internalType": "uint256[]",
          "name": "tokenIds",
          "type": "uint256[]"
        },
        {
          "internalType": "uint256[]",
          "name": "nonces_",
          "type": "uint256[]"
        }
      ],
      "name": "batchCancelOrder",
      "outputs": [],
      "stateMutability": "nonpayable",
      "type": "function"
    },
    {
      "inputs": [
        {
          "components": [
            {
              "internalType": "address",
              "name": "signer",
              "type": "address"
            },
            {
              "internalType": "address",
              "name": "nft",
              "type": "address"
            },
            {
              "internalType": "uint256",
              "name": "tokenId",
              "type": "uint256"
            },
            {
              "internalType": "uint256",
              "name": "price",
              "type": "uint256"
            },
            {
              "internalType": "address",
              "name": "paymentToken",
              "type": "address"
            },
            {
              "internalType": "uint256",
              "name": "nonce",
              "type": "uint256"
            },
            {
              "internalType": "uint256",
              "name": "expiry",
              "type": "uint256"
            }
          ],
          "internalType": "struct FireVerseNFTMarketplace.Order",
          "name": "order",
          "type": "tuple"
        },
        {
          "internalType": "bytes",
          "name": "signature",
          "type": "bytes"
        }
      ],
      "name": "buy",
      "outputs": [],
      "stateMutability": "payable",
      "type": "function"
    },
    {
      "inputs": [
        {
          "internalType": "address",
          "name": "nft",
          "type": "address"
        },
        {
          "internalType": "uint256",
          "name": "tokenId",
          "type": "uint256"
        },
        {
          "internalType": "uint256",
          "name": "nonce",
          "type": "uint256"
        }
      ],
      "name": "cancelOrder",
      "outputs": [],
      "stateMutability": "nonpayable",
      "type": "function"
    },
    {
      "inputs": [],
      "name": "eip712Domain",
      "outputs": [
        {
          "internalType": "bytes1",
          "name": "fields",
          "type": "bytes1"
        },
        {
          "internalType": "string",
          "name": "name",
          "type": "string"
        },
        {
          "internalType": "string",
          "name": "version",
          "type": "string"
        },
        {
          "internalType": "uint256",
          "name": "chainId",
          "type": "uint256"
        },
        {
          "internalType": "address",
          "name": "verifyingContract",
          "type": "address"
        },
        {
          "internalType": "bytes32",
          "name": "salt",
          "type": "bytes32"
        },
        {
          "internalType": "uint256[]",
          "name": "extensions",
          "type": "uint256[]"
        }
      ],
      "stateMutability": "view",
      "type": "function"
    },
    {
      "inputs": [
        {
          "internalType": "address",
          "name": "",
          "type": "address"
        },
        {
          "internalType": "address",
          "name": "",
          "type": "address"
        },
        {
          "internalType": "uint256",
          "name": "",
          "type": "uint256"
        }
      ],
      "name": "nonces",
      "outputs": [
        {
          "internalType": "uint256",
          "name": "",
          "type": "uint256"
        }
      ],
      "stateMutability": "view",
      "type": "function"
    },
    {
      "inputs": [],
      "name": "owner",
      "outputs": [
        {
          "internalType": "address",
          "name": "",
          "type": "address"
        }
      ],
      "stateMutability": "view",
      "type": "function"
    },
    {
      "inputs": [],
      "name": "pendingOwner",
      "outputs": [
        {
          "internalType": "address",
          "name": "",
          "type": "address"
        }
      ],
      "stateMutability": "view",
      "type": "function"
    },
    {
      "inputs": [],
      "name": "platformFeeBps",
      "outputs": [
        {
          "internalType": "uint96",
          "name": "",
          "type": "uint96"
        }
      ],
      "stateMutability": "view",
      "type": "function"
    },
    {
      "inputs": [],
      "name": "platformFeeRecipient",
      "outputs": [
        {
          "internalType": "address",
          "name": "",
          "type": "address"
        }
      ],
      "stateMutability": "view",
      "type": "function"
    },
    {
      "inputs": [],
      "name": "renounceOwnership",
      "outputs": [],
      "stateMutability": "nonpayable",
      "type": "function"
    },
    {
      "inputs": [
        {
          "internalType": "address",
          "name": "recipient",
          "type": "address"
        },
        {
          "internalType": "uint96",
          "name": "feeBps",
          "type": "uint96"
        }
      ],
      "name": "setPlatformFee",
      "outputs": [],
      "stateMutability": "nonpayable",
      "type": "function"
    },
    {
      "inputs": [
        {
          "internalType": "address",
          "name": "newOwner",
          "type": "address"
        }
      ],
      "name": "transferOwnership",
      "outputs": [],
      "stateMutability": "nonpayable",
      "type": "function"
    },
    {
      "inputs": [
        {
          "internalType": "bytes32",
          "name": "typeHash",
          "type": "bytes32"
        },
        {
          "components": [
            {
              "internalType": "address",
              "name": "signer",
              "type": "address"
            },
            {
              "internalType": "address",
              "name": "nft",
              "type": "address"
            },
            {
              "internalType": "uint256",
              "name": "tokenId",
              "type": "uint256"
            },
            {
              "internalType": "uint256",
              "name": "price",
              "type": "uint256"
            },
            {
              "internalType": "address",
              "name": "paymentToken",
              "type": "address"
            },
            {
              "internalType": "uint256",
              "name": "nonce",
              "type": "uint256"
            },
            {
              "internalType": "uint256",
              "name": "expiry",
              "type": "uint256"
            }
          ],
          "internalType": "struct FireVerseNFTMarketplace.Order",
          "name": "order",
          "type": "tuple"
        },
        {
          "internalType": "bytes",
          "name": "signature",
          "type": "bytes"
        }
      ],
      "name": "verify",
      "outputs": [
        {
          "internalType": "bool",
          "name": "",
          "type": "bool"
        }
      ],
      "stateMutability": "view",
      "type": "function"
    }
  ],
  "transactionHash": "0x722b3a210d2e0ab2e2cb8acaa2fc7ab6688dd5a0f1e4719767dbc6b553ed672d",
  "args": [],
  "numDeployments": 2,
  "solcInputHash": "b7c2bf7d745783aa3bd2fdb5b8baccb1",
  "bytecode": "0x610160604052600880546001600160a01b0316601960a21b1790553480156200002757600080fd5b506040518060400160405280601781526020017f4669726556657273654e46544d61726b6574706c616365000000000000000000815250604051806040016040528060018152602001603160f81b815250620000936000836200016f60201b62001b081790919060201c565b61012052620000b08160016200016f602090811b62001b0817901c565b61014052815160208084019190912060e052815190820120610100524660a0526200013e60e05161010051604080517f8b73c3c69bb8fe3d512ecc4cf759cc79239f7b179b0ffacaa9a75d522b39400f60208201529081019290925260608201524660808201523060a082015260009060c00160405160208183030381529060405280519060200120905090565b60805250503060c0526200015233620001bf565b6001600455600880546001600160a01b0319163317905562000470565b60006020835110156200018f576200018783620001e9565b9050620001b9565b82620001a6836200023560201b62001b3b1760201c565b90620001b390826200032f565b5060ff90505b92915050565b600380546001600160a01b0319169055620001e68162000238602090811b62001b3e17901c565b50565b600080829050601f8151111562000220578260405163305a27a960e01b8152600401620002179190620003fb565b60405180910390fd5b80516200022d826200044b565b179392505050565b90565b600280546001600160a01b038381166001600160a01b0319831681179093556040519116919082907f8be0079c531659141344cd1fd0a4f28419497f9722a3daafe3b4186f6b6457e090600090a35050565b634e487b7160e01b600052604160045260246000fd5b600181811c90821680620002b557607f821691505b602082108103620002d657634e487b7160e01b600052602260045260246000fd5b50919050565b601f8211156200032a57600081815260208120601f850160051c81016020861015620003055750805b601f850160051c820191505b81811015620003265782815560010162000311565b5050505b505050565b81516001600160401b038111156200034b576200034b6200028a565b62000363816200035c8454620002a0565b84620002dc565b602080601f8311600181146200039b5760008415620003825750858301515b600019600386901b1c1916600185901b17855562000326565b600085815260208120601f198616915b82811015620003cc57888601518255948401946001909101908401620003ab565b5085821015620003eb5787850151600019600388901b60f8161c191681555b5050505050600190811b01905550565b600060208083528351808285015260005b818110156200042a578581018301518582016040015282016200040c565b506000604082860101526040601f19601f8301168501019250505092915050565b80516020808301519190811015620002d65760001960209190910360031b1b16919050565b60805160a05160c05160e051610100516101205161014051612d46620004cb60003960006111fa015260006111d0015260006121f4015260006121cc01526000612127015260006121510152600061217b0152612d466000f3fe6080604052600436106101145760003560e01c806379ba5097116100a0578063e2df991411610064578063e2df991414610326578063e30c397814610346578063eb13554f14610364578063f2fde38b14610384578063fbf58dbb146103a457600080fd5b806379ba5097146102775780637fe5d7b71461028c57806384b0196e146102ac5780638da5cb5b146102d4578063c396ba981461030657600080fd5b806361346350116100e757806361346350146101df57806361512daf146101ff578063697d312a14610212578063715018a614610242578063724c2b111461025757600080fd5b806312381ec21461011957806322dcd13e1461015e5780633db4f53f1461019d5780634472d299146101bf575b600080fd5b34801561012557600080fd5b50610149610134366004612662565b60056020526000908152604090205460ff1681565b60405190151581526020015b60405180910390f35b34801561016a57600080fd5b5060085461018590600160a01b90046001600160601b031681565b6040516001600160601b039091168152602001610155565b3480156101a957600080fd5b506101bd6101b83660046126cb565b6103f0565b005b3480156101cb57600080fd5b506101bd6101da366004612765565b610674565b3480156101eb57600080fd5b506101bd6101fa3660046127a8565b610777565b6101bd61020d36600461283b565b6107e3565b34801561021e57600080fd5b5061014961022d366004612662565b60066020526000908152604090205460ff1681565b34801561024e57600080fd5b506101bd61102a565b34801561026357600080fd5b506101bd6102723660046127a8565b61103e565b34801561028357600080fd5b506101bd6110a2565b34801561029857600080fd5b506101bd6102a7366004612890565b61111c565b3480156102b857600080fd5b506102c16111c2565b604051610155979695949392919061291a565b3480156102e057600080fd5b506002546001600160a01b03165b6040516001600160a01b039091168152602001610155565b34801561031257600080fd5b506101496103213660046129b0565b61124a565b34801561033257600080fd5b506101bd61034136600461283b565b61136e565b34801561035257600080fd5b506003546001600160a01b03166102ee565b34801561037057600080fd5b506008546102ee906001600160a01b031681565b34801561039057600080fd5b506101bd61039f366004612662565b611a97565b3480156103b057600080fd5b506103e26103bf366004612a0d565b600760209081526000938452604080852082529284528284209052825290205481565b604051908152602001610155565b84831461043c5760405162461bcd60e51b8152602060048201526015602482015274082e4e4c2f240d8cadccee8d040dad2e6dac2e8c6d605b1b60448201526064015b60405180910390fd5b60005b8581101561066b573360009081526007602052604081209088888481811061046957610469612a4e565b905060200201602081019061047e9190612662565b6001600160a01b03166001600160a01b0316815260200190815260200160002060008686848181106104b2576104b2612a4e565b905060200201358152602001908152602001600020548383838181106104da576104da612a4e565b90506020020135146105285760405162461bcd60e51b8152602060048201526017602482015276125b9d985b1a59081b9bdb98d9481d1bc818d85b98d95b604a1b6044820152606401610433565b3360009081526007602052604081209088888481811061054a5761054a612a4e565b905060200201602081019061055f9190612662565b6001600160a01b03166001600160a01b03168152602001908152602001600020600086868481811061059357610593612a4e565b90506020020135815260200190815260200160002060008154809291906105b990612a7a565b91905055508484828181106105d0576105d0612a4e565b905060200201358787838181106105e9576105e9612a4e565b90506020020160208101906105fe9190612662565b6001600160a01b0316337fdfdc8e23bf47bd8b72643392fb1484e25a8b28fe2f1e310ec0e4d4badb303fbc86868681811061063b5761063b612a4e565b9050602002013560405161065191815260200190565b60405180910390a48061066381612a7a565b91505061043f565b50505050505050565b3360009081526007602090815260408083206001600160a01b0387168452825280832085845290915290205481146106e85760405162461bcd60e51b8152602060048201526017602482015276125b9d985b1a59081b9bdb98d9481d1bc818d85b98d95b604a1b6044820152606401610433565b3360009081526007602090815260408083206001600160a01b03871684528252808320858452909152812080549161071f83612a7a565b919050555081836001600160a01b0316336001600160a01b03167fdfdc8e23bf47bd8b72643392fb1484e25a8b28fe2f1e310ec0e4d4badb303fbc8460405161076a91815260200190565b60405180910390a4505050565b61077f611b90565b6001600160a01b038216600081815260066020908152604091829020805460ff19168515159081179091558251938452908301527f44fd9e401d43b510a520ef2a3cee9de208a5ee753db6e62ed7b96714290e81e091015b60405180910390a15050565b6107eb611bea565b8260c0013542111561082f5760405162461bcd60e51b815260206004820152600d60248201526c13dc99195c88195e1c1a5c9959609a1b6044820152606401610433565b600560006108436040860160208701612662565b6001600160a01b0316815260208101919091526040016000205460ff1661089e5760405162461bcd60e51b815260206004820152600f60248201526e139195081b9bdd08185b1b1bddd959608a1b6044820152606401610433565b600660006108b260a0860160808701612662565b6001600160a01b0316815260208101919091526040016000205460ff1661090f5760405162461bcd60e51b8152602060048201526011602482015270151bdad95b881b9bdd08185b1b1bddd959607a1b6044820152606401610433565b600760006109206020860186612662565b6001600160a01b03166001600160a01b0316815260200190815260200160002060008460200160208101906109559190612662565b6001600160a01b03166001600160a01b03168152602001908152602001600020600084604001358152602001908152602001600020548360a00135146109cd5760405162461bcd60e51b815260206004820152600d60248201526c496e76616c6964206e6f6e636560981b6044820152606401610433565b6109f97f0c702876d906df881efadab8892cc25b0d0528db4d1a98413110dbb8b417739284848461124a565b610a395760405162461bcd60e51b8152602060048201526011602482015270496e76616c6964207369676e617475726560781b6044820152606401610433565b60076000610a4a6020860186612662565b6001600160a01b03166001600160a01b031681526020019081526020016000206000846020016020810190610a7f9190612662565b6001600160a01b03168152602080820192909252604090810160009081208683013582529092528120805491610ab483612a7a565b9091555060009050610acc6040850160208601612662565b9050610adb6020850185612662565b604080516331a9108f60e11b81529086013560048201526001600160a01b0391821691831690636352211e90602401602060405180830381865afa158015610b27573d6000803e3d6000fd5b505050506040513d601f19601f82011682018060405250810190610b4b9190612a93565b6001600160a01b031614610b985760405162461bcd60e51b815260206004820152601460248201527329b2b63632b9103737ba1027232a1037bbb732b960611b6044820152606401610433565b6040805163020604bf60e21b815290850135600482015230906001600160a01b0383169063081812fc90602401602060405180830381865afa158015610be2573d6000803e3d6000fd5b505050506040513d601f19601f82011682018060405250810190610c069190612a93565b6001600160a01b03161480610ca057506001600160a01b03811663e985e9c5610c326020870187612662565b6040516001600160e01b031960e084901b1681526001600160a01b039091166004820152306024820152604401602060405180830381865afa158015610c7c573d6000803e3d6000fd5b505050506040513d601f19601f82011682018060405250810190610ca09190612ab0565b610ce75760405162461bcd60e51b815260206004820152601860248201527713585c9ad95d1c1b1858d9481b9bdd08185c1c1c9bdd995960421b6044820152606401610433565b600080610d0c610cfd6040880160208901612662565b87604001358860600135611c43565b600854919350915060009061271090610d3990600160a01b90046001600160601b031660608a0135612acd565b610d439190612aec565b9050600081610d568460608b0135612b0e565b610d609190612b0e565b90506000610d7460a08a0160808b01612662565b6001600160a01b031603610e2f5787606001353414610dd55760405162461bcd60e51b815260206004820152601d60248201527f496e636f7272656374204e617469766520546f6b656e20616d6f756e740000006044820152606401610433565b8215610dee57610dee6001600160a01b03851684611d41565b8115610e0a57600854610e0a906001600160a01b031683611d41565b610e2a81610e1b60208b018b612662565b6001600160a01b031690611d41565b610ef3565b3415610e7d5760405162461bcd60e51b815260206004820152601d60248201527f496e636f7272656374204e617469766520546f6b656e20616d6f756e740000006044820152606401610433565b6000610e8f60a08a0160808b01612662565b90508315610eac57610eac6001600160a01b038216338787611e5a565b8215610ece57600854610ece906001600160a01b038381169133911686611e5a565b610ef133610edf60208c018c612662565b6001600160a01b038416919085611e5a565b505b6001600160a01b0385166342842e0e610f0f60208b018b612662565b604080516001600160e01b031960e085901b1681526001600160a01b0390921660048301523360248301528b01356044820152606401600060405180830381600087803b158015610f5f57600080fd5b505af1158015610f73573d6000803e3d6000fd5b50610f88925050506040890160208a01612662565b6001600160a01b0316610f9e60208a018a612662565b6001600160a01b0316337fb3e9ced55a48cc62499b816a0884c4df51f900cee0a669cf0d5cd016a0f24f6f60408c0135610fde60a08e0160808f01612662565b604080519283526001600160a01b0391909116602083015260608e81013583830152820189905260808201889052519081900360a00190a450505050506110256001600455565b505050565b611032611b90565b61103c6000611eba565b565b611046611b90565b6001600160a01b038216600081815260056020908152604091829020805460ff19168515159081179091558251938452908301527fdadc37c0756295cc2e547a10547188cfa920be19a3c789ca9ffc10f93d6aa02e91016107d7565b60035433906001600160a01b031681146111105760405162461bcd60e51b815260206004820152602960248201527f4f776e61626c6532537465703a2063616c6c6572206973206e6f7420746865206044820152683732bb9037bbb732b960b91b6064820152608401610433565b61111981611eba565b50565b611124611b90565b612710816001600160601b03161061116a5760405162461bcd60e51b81526020600482015260096024820152684f766572203130302560b81b6044820152606401610433565b6001600160a01b038216600160a01b6001600160601b03831690810282176008556040805192835260208301919091527f1e6478ac12ebdcc5503c6df8708a2472c76959aad3ed4089d4f4bdac6b3d970991016107d7565b6000606080828080836111f57f000000000000000000000000000000000000000000000000000000000000000083611ed3565b6112207f00000000000000000000000000000000000000000000000000000000000000006001611ed3565b60408051600080825260208201909252600f60f81b9b939a50919850469750309650945092509050565b6000808561125b6020870187612662565b61126b6040880160208901612662565b6040880135606089013561128560a08b0160808c01612662565b6040805160208101979097526001600160a01b03958616908701529284166060860152608085019190915260a084810191909152911660c0838101919091529087013560e08301528601356101008201526101200160405160208183030381529060405280519060200120905060006112fd82611f77565b905061130c6020870187612662565b6001600160a01b031661135786868080601f0160208091040260200160405190810160405280939291908181526020018383808284376000920191909152508693925050611fa49050565b6001600160a01b031614925050505b949350505050565b611376611bea565b8260c001354211156113ba5760405162461bcd60e51b815260206004820152600d60248201526c13dc99195c88195e1c1a5c9959609a1b6044820152606401610433565b600560006113ce6040860160208701612662565b6001600160a01b0316815260208101919091526040016000205460ff166114295760405162461bcd60e51b815260206004820152600f60248201526e139195081b9bdd08185b1b1bddd959608a1b6044820152606401610433565b6006600061143d60a0860160808701612662565b6001600160a01b0316815260208101919091526040016000205460ff1661149a5760405162461bcd60e51b8152602060048201526011602482015270151bdad95b881b9bdd08185b1b1bddd959607a1b6044820152606401610433565b600760006114ab6020860186612662565b6001600160a01b03166001600160a01b0316815260200190815260200160002060008460200160208101906114e09190612662565b6001600160a01b03166001600160a01b03168152602001908152602001600020600084604001358152602001908152602001600020548360a00135146115585760405162461bcd60e51b815260206004820152600d60248201526c496e76616c6964206e6f6e636560981b6044820152606401610433565b6115847feb9d44b2d2c4e292c7870fb639b98747efb492da27d03710af22dcd6a826d42e84848461124a565b6115c45760405162461bcd60e51b8152602060048201526011602482015270496e76616c6964207369676e617475726560781b6044820152606401610433565b600760006115d56020860186612662565b6001600160a01b03166001600160a01b03168152602001908152602001600020600084602001602081019061160a9190612662565b6001600160a01b0316815260208082019290925260409081016000908120868301358252909252812080549161163f83612a7a565b90915550600090506116576040850160208601612662565b604080516331a9108f60e11b815290860135600482015290915033906001600160a01b03831690636352211e90602401602060405180830381865afa1580156116a4573d6000803e3d6000fd5b505050506040513d601f19601f820116820180604052508101906116c89190612a93565b6001600160a01b0316146117155760405162461bcd60e51b815260206004820152601460248201527329b2b63632b9103737ba1027232a1037bbb732b960611b6044820152606401610433565b6040805163020604bf60e21b815290850135600482015230906001600160a01b0383169063081812fc90602401602060405180830381865afa15801561175f573d6000803e3d6000fd5b505050506040513d601f19601f820116820180604052508101906117839190612a93565b6001600160a01b03161480611801575060405163e985e9c560e01b81523360048201523060248201526001600160a01b0382169063e985e9c590604401602060405180830381865afa1580156117dd573d6000803e3d6000fd5b505050506040513d601f19601f820116820180604052508101906118019190612ab0565b6118485760405162461bcd60e51b815260206004820152601860248201527713585c9ad95d1c1b1858d9481b9bdd08185c1c1c9bdd995960421b6044820152606401610433565b60008061185e610cfd6040880160208901612662565b60085491935091506000906127109061188b90600160a01b90046001600160601b031660608a0135612acd565b6118959190612aec565b90506000816118a88460608b0135612b0e565b6118b29190612b0e565b905060006118c660a08a0160808b01612662565b6001600160a01b03160361191c5760405162461bcd60e51b815260206004820152601a60248201527f4e617469766520746f6b656e206e6f7420737570706f727465640000000000006044820152606401610433565b600061192e60a08a0160808b01612662565b905083156119585761195861194660208b018b612662565b6001600160a01b038316908787611e5a565b82156119855761198561196e60208b018b612662565b6008546001600160a01b0384811692911686611e5a565b6119a761199560208b018b612662565b6001600160a01b038316903385611e5a565b506001600160a01b0385166342842e0e336119c560208c018c612662565b604080516001600160e01b031960e086901b1681526001600160a01b0393841660048201529290911660248301528b01356044820152606401600060405180830381600087803b158015611a1857600080fd5b505af1158015611a2c573d6000803e3d6000fd5b50611a41925050506040890160208a01612662565b6001600160a01b031633611a5860208b018b612662565b6001600160a01b03167fb3e9ced55a48cc62499b816a0884c4df51f900cee0a669cf0d5cd016a0f24f6f60408c0135610fde60a08e0160808f01612662565b611a9f611b90565b600380546001600160a01b0383166001600160a01b03199091168117909155611ad06002546001600160a01b031690565b6001600160a01b03167f38d16b8cac22d99fc7c124b9cd0de2d3fa1faef420bfe791d8c362d765e2270060405160405180910390a350565b6000602083511015611b2457611b1d83611fc8565b9050611b35565b81611b2f8482612bb9565b5060ff90505b92915050565b90565b600280546001600160a01b038381166001600160a01b0319831681179093556040519116919082907f8be0079c531659141344cd1fd0a4f28419497f9722a3daafe3b4186f6b6457e090600090a35050565b6002546001600160a01b0316331461103c5760405162461bcd60e51b815260206004820181905260248201527f4f776e61626c653a2063616c6c6572206973206e6f7420746865206f776e65726044820152606401610433565b600260045403611c3c5760405162461bcd60e51b815260206004820152601f60248201527f5265656e7472616e637947756172643a207265656e7472616e742063616c6c006044820152606401610433565b6002600455565b6040516301ffc9a760e01b815263152a902d60e11b600482015260009081906001600160a01b038616906301ffc9a790602401602060405180830381865afa158015611c93573d6000803e3d6000fd5b505050506040513d601f19601f82011682018060405250810190611cb79190612ab0565b15611d325760405163152a902d60e11b815260048101859052602481018490526001600160a01b03861690632a55205a906044016040805180830381865afa925050508015611d23575060408051601f3d908101601f19168201909252611d2091810190612c79565b60015b15611d32579092509050611d39565b5060009050805b935093915050565b80471015611d915760405162461bcd60e51b815260206004820152601d60248201527f416464726573733a20696e73756666696369656e742062616c616e63650000006044820152606401610433565b6000826001600160a01b03168260405160006040518083038185875af1925050503d8060008114611dde576040519150601f19603f3d011682016040523d82523d6000602084013e611de3565b606091505b50509050806110255760405162461bcd60e51b815260206004820152603a60248201527f416464726573733a20756e61626c6520746f2073656e642076616c75652c207260448201527f6563697069656e74206d617920686176652072657665727465640000000000006064820152608401610433565b604080516001600160a01b0385811660248301528416604482015260648082018490528251808303909101815260849091019091526020810180516001600160e01b03166323b872dd60e01b179052611eb4908590612006565b50505050565b600380546001600160a01b031916905561111981611b3e565b606060ff8314611ee657611b1d836120db565b818054611ef290612b37565b80601f0160208091040260200160405190810160405280929190818152602001828054611f1e90612b37565b8015611f6b5780601f10611f4057610100808354040283529160200191611f6b565b820191906000526020600020905b815481529060010190602001808311611f4e57829003601f168201915b50505050509050611b35565b6000611b35611f8461211a565b8360405161190160f01b8152600281019290925260228201526042902090565b6000806000611fb3858561224a565b91509150611fc08161228f565b509392505050565b600080829050601f81511115611ff3578260405163305a27a960e01b81526004016104339190612ca7565b8051611ffe82612cba565b179392505050565b600061205b826040518060400160405280602081526020017f5361666545524332303a206c6f772d6c6576656c2063616c6c206661696c6564815250856001600160a01b03166123d99092919063ffffffff16565b905080516000148061207c57508080602001905181019061207c9190612ab0565b6110255760405162461bcd60e51b815260206004820152602a60248201527f5361666545524332303a204552433230206f7065726174696f6e20646964206e6044820152691bdd081cdd58d8d9595960b21b6064820152608401610433565b606060006120e8836123e8565b604080516020808252818301909252919250600091906020820181803683375050509182525060208101929092525090565b6000306001600160a01b037f00000000000000000000000000000000000000000000000000000000000000001614801561217357507f000000000000000000000000000000000000000000000000000000000000000046145b1561219d57507f000000000000000000000000000000000000000000000000000000000000000090565b612245604080517f8b73c3c69bb8fe3d512ecc4cf759cc79239f7b179b0ffacaa9a75d522b39400f60208201527f0000000000000000000000000000000000000000000000000000000000000000918101919091527f000000000000000000000000000000000000000000000000000000000000000060608201524660808201523060a082015260009060c00160405160208183030381529060405280519060200120905090565b905090565b60008082516041036122805760208301516040840151606085015160001a61227487828585612410565b94509450505050612288565b506000905060025b9250929050565b60008160048111156122a3576122a3612cde565b036122ab5750565b60018160048111156122bf576122bf612cde565b0361230c5760405162461bcd60e51b815260206004820152601860248201527f45434453413a20696e76616c6964207369676e617475726500000000000000006044820152606401610433565b600281600481111561232057612320612cde565b0361236d5760405162461bcd60e51b815260206004820152601f60248201527f45434453413a20696e76616c6964207369676e6174757265206c656e677468006044820152606401610433565b600381600481111561238157612381612cde565b036111195760405162461bcd60e51b815260206004820152602260248201527f45434453413a20696e76616c6964207369676e6174757265202773272076616c604482015261756560f01b6064820152608401610433565b606061136684846000856124d4565b600060ff8216601f811115611b3557604051632cd44ac360e21b815260040160405180910390fd5b6000807f7fffffffffffffffffffffffffffffff5d576e7357a4501ddfe92f46681b20a083111561244757506000905060036124cb565b6040805160008082526020820180845289905260ff881692820192909252606081018690526080810185905260019060a0016020604051602081039080840390855afa15801561249b573d6000803e3d6000fd5b5050604051601f1901519150506001600160a01b0381166124c4576000600192509250506124cb565b9150600090505b94509492505050565b6060824710156125355760405162461bcd60e51b815260206004820152602660248201527f416464726573733a20696e73756666696369656e742062616c616e636520666f6044820152651c8818d85b1b60d21b6064820152608401610433565b600080866001600160a01b031685876040516125519190612cf4565b60006040518083038185875af1925050503d806000811461258e576040519150601f19603f3d011682016040523d82523d6000602084013e612593565b606091505b50915091506125a4878383876125af565b979650505050505050565b6060831561261e578251600003612617576001600160a01b0385163b6126175760405162461bcd60e51b815260206004820152601d60248201527f416464726573733a2063616c6c20746f206e6f6e2d636f6e74726163740000006044820152606401610433565b5081611366565b61136683838151156126335781518083602001fd5b8060405162461bcd60e51b81526004016104339190612ca7565b6001600160a01b038116811461111957600080fd5b60006020828403121561267457600080fd5b813561267f8161264d565b9392505050565b60008083601f84011261269857600080fd5b50813567ffffffffffffffff8111156126b057600080fd5b6020830191508360208260051b850101111561228857600080fd5b600080600080600080606087890312156126e457600080fd5b863567ffffffffffffffff808211156126fc57600080fd5b6127088a838b01612686565b9098509650602089013591508082111561272157600080fd5b61272d8a838b01612686565b9096509450604089013591508082111561274657600080fd5b5061275389828a01612686565b979a9699509497509295939492505050565b60008060006060848603121561277a57600080fd5b83356127858161264d565b95602085013595506040909401359392505050565b801515811461111957600080fd5b600080604083850312156127bb57600080fd5b82356127c68161264d565b915060208301356127d68161279a565b809150509250929050565b600060e082840312156127f357600080fd5b50919050565b60008083601f84011261280b57600080fd5b50813567ffffffffffffffff81111561282357600080fd5b60208301915083602082850101111561228857600080fd5b6000806000610100848603121561285157600080fd5b61285b85856127e1565b925060e084013567ffffffffffffffff81111561287757600080fd5b612883868287016127f9565b9497909650939450505050565b600080604083850312156128a357600080fd5b82356128ae8161264d565b915060208301356001600160601b03811681146127d657600080fd5b60005b838110156128e55781810151838201526020016128cd565b50506000910152565b600081518084526129068160208601602086016128ca565b601f01601f19169290920160200192915050565b60ff60f81b881681526000602060e08184015261293a60e084018a6128ee565b838103604085015261294c818a6128ee565b606085018990526001600160a01b038816608086015260a0850187905284810360c0860152855180825283870192509083019060005b8181101561299e57835183529284019291840191600101612982565b50909c9b505050505050505050505050565b60008060008061012085870312156129c757600080fd5b843593506129d886602087016127e1565b925061010085013567ffffffffffffffff8111156129f557600080fd5b612a01878288016127f9565b95989497509550505050565b600080600060608486031215612a2257600080fd5b8335612a2d8161264d565b92506020840135612a3d8161264d565b929592945050506040919091013590565b634e487b7160e01b600052603260045260246000fd5b634e487b7160e01b600052601160045260246000fd5b600060018201612a8c57612a8c612a64565b5060010190565b600060208284031215612aa557600080fd5b815161267f8161264d565b600060208284031215612ac257600080fd5b815161267f8161279a565b6000816000190483118215151615612ae757612ae7612a64565b500290565b600082612b0957634e487b7160e01b600052601260045260246000fd5b500490565b81810381811115611b3557611b35612a64565b634e487b7160e01b600052604160045260246000fd5b600181811c90821680612b4b57607f821691505b6020821081036127f357634e487b7160e01b600052602260045260246000fd5b601f82111561102557600081815260208120601f850160051c81016020861015612b925750805b601f850160051c820191505b81811015612bb157828155600101612b9e565b505050505050565b815167ffffffffffffffff811115612bd357612bd3612b21565b612be781612be18454612b37565b84612b6b565b602080601f831160018114612c1c5760008415612c045750858301515b600019600386901b1c1916600185901b178555612bb1565b600085815260208120601f198616915b82811015612c4b57888601518255948401946001909101908401612c2c565b5085821015612c695787850151600019600388901b60f8161c191681555b5050505050600190811b01905550565b60008060408385031215612c8c57600080fd5b8251612c978161264d565b6020939093015192949293505050565b60208152600061267f60208301846128ee565b805160208083015191908110156127f35760001960209190910360031b1b16919050565b634e487b7160e01b600052602160045260246000fd5b60008251612d068184602087016128ca565b919091019291505056fea2646970667358221220710424a465dfd9ccbd9fd7f1c4d6d0eb8d96e79d6a916d0610f8eea36262bbaa64736f6c63430008100033",
  "devdoc": {
    "kind": "dev",
    "methods": {
      "acceptOwnership()": {
        "details": "The new owner accepts the ownership transfer."
      },
      "eip712Domain()": {
        "details": "See {EIP-5267}. _Available since v4.9._"
      },
      "owner()": {
        "details": "Returns the address of the current owner."
      },
      "pendingOwner()": {
        "details": "Returns the address of the pending owner."
      },
      "renounceOwnership()": {
        "details": "Leaves the contract without owner. It will not be possible to call `onlyOwner` functions. Can only be called by the current owner. NOTE: Renouncing ownership will leave the contract without an owner, thereby disabling any functionality that is only available to the owner."
      },
      "transferOwnership(address)": {
        "details": "Starts the ownership transfer of the contract to a new account. Replaces the pending transfer if there is one. Can only be called by the current owner."
      }
    },
    "version": 1
  },
  "userdoc": {
    "kind": "user",
    "methods": {},
    "version": 1
  },
  "storageLayout": {
    "storage": [
      {
        "astId": 4773,
        "contract": "contracts/FireVerseNFTMarketplace.sol:FireVerseNFTMarketplace",
        "label": "_nameFallback",
        "offset": 0,
        "slot": "0",
        "type": "t_string_storage"
      },
      {
        "astId": 4775,
        "contract": "contracts/FireVerseNFTMarketplace.sol:FireVerseNFTMarketplace",
        "label": "_versionFallback",
        "offset": 0,
        "slot": "1",
        "type": "t_string_storage"
      },
      {
        "astId": 546,
        "contract": "contracts/FireVerseNFTMarketplace.sol:FireVerseNFTMarketplace",
        "label": "_owner",
        "offset": 0,
        "slot": "2",
        "type": "t_address"
      },
      {
        "astId": 659,
        "contract": "contracts/FireVerseNFTMarketplace.sol:FireVerseNFTMarketplace",
        "label": "_pendingOwner",
        "offset": 0,
        "slot": "3",
        "type": "t_address"
      },
      {
        "astId": 817,
        "contract": "contracts/FireVerseNFTMarketplace.sol:FireVerseNFTMarketplace",
        "label": "_status",
        "offset": 0,
        "slot": "4",
        "type": "t_uint256"
      },
      {
        "astId": 7525,
        "contract": "contracts/FireVerseNFTMarketplace.sol:FireVerseNFTMarketplace",
        "label": "allowedNFTs",
        "offset": 0,
        "slot": "5",
        "type": "t_mapping(t_address,t_bool)"
      },
      {
        "astId": 7529,
        "contract": "contracts/FireVerseNFTMarketplace.sol:FireVerseNFTMarketplace",
        "label": "allowedPaymentTokens",
        "offset": 0,
        "slot": "6",
        "type": "t_mapping(t_address,t_bool)"
      },
      {
        "astId": 7537,
        "contract": "contracts/FireVerseNFTMarketplace.sol:FireVerseNFTMarketplace",
        "label": "nonces",
        "offset": 0,
        "slot": "7",
        "type": "t_mapping(t_address,t_mapping(t_address,t_mapping(t_uint256,t_uint256)))"
      },
      {
        "astId": 7539,
        "contract": "contracts/FireVerseNFTMarketplace.sol:FireVerseNFTMarketplace",
        "label": "platformFeeRecipient",
        "offset": 0,
        "slot": "8",
        "type": "t_address"
      },
      {
        "astId": 7542,
        "contract": "contracts/FireVerseNFTMarketplace.sol:FireVerseNFTMarketplace",
        "label": "platformFeeBps",
        "offset": 20,
        "slot": "8",
        "type": "t_uint96"
      }
    ],
    "types": {
      "t_address": {
        "encoding": "inplace",
        "label": "address",
        "numberOfBytes": "20"
      },
      "t_bool": {
        "encoding": "inplace",
        "label": "bool",
        "numberOfBytes": "1"
      },
      "t_mapping(t_address,t_bool)": {
        "encoding": "mapping",
        "key": "t_address",
        "label": "mapping(address => bool)",
        "numberOfBytes": "32",
        "value": "t_bool"
      },
      "t_mapping(t_address,t_mapping(t_address,t_mapping(t_uint256,t_uint256)))": {
        "encoding": "mapping",
        "key": "t_address",
        "label": "mapping(address => mapping(address => mapping(uint256 => uint256)))",
        "numberOfBytes": "32",
        "value": "t_mapping(t_address,t_mapping(t_uint256,t_uint256))"
      },
      "t_mapping(t_address,t_mapping(t_uint256,t_uint256))": {
        "encoding": "mapping",
        "key": "t_address",
        "label": "mapping(address => mapping(uint256 => uint256))",
        "numberOfBytes": "32",
        "value": "t_mapping(t_uint256,t_uint256)"
      },
      "t_mapping(t_uint256,t_uint256)": {
        "encoding": "mapping",
        "key": "t_uint256",
        "label": "mapping(uint256 => uint256)",
        "numberOfBytes": "32",
        "value": "t_uint256"
      },
      "t_string_storage": {
        "encoding": "bytes",
        "label": "string",
        "numberOfBytes": "32"
      },
      "t_uint256": {
        "encoding": "inplace",
        "label": "uint256",
        "numberOfBytes": "32"
      },
      "t_uint96": {
        "encoding": "inplace",
        "label": "uint96",
        "numberOfBytes": "12"
      }
    }
  }
}