{
  "address": "0xabF9A357a766d450B9Aa252bCc7d44124eFEbC2b",
  "abi": [
    {
      "inputs": [
        {
          "internalType": "address",
          "name": "vboxNFT_",
          "type": "address"
        },
        {
          "internalType": "address",
          "name": "firToken_",
          "type": "address"
        },
        {
          "internalType": "uint256",
          "name": "minStakeAmount_",
          "type": "uint256"
        }
      ],
      "stateMutability": "nonpayable",
      "type": "constructor"
    },
    {
      "anonymous": false,
      "inputs": [
        {
          "indexed": true,
          "internalType": "address",
          "name": "user",
          "type": "address"
        },
        {
          "indexed": true,
          "internalType": "uint256",
          "name": "nftId",
          "type": "uint256"
        }
      ],
      "name": "NftRedeemed",
      "type": "event"
    },
    {
      "anonymous": false,
      "inputs": [
        {
          "indexed": true,
          "internalType": "address",
          "name": "user",
          "type": "address"
        },
        {
          "indexed": true,
          "internalType": "uint256",
          "name": "nftId",
          "type": "uint256"
        }
      ],
      "name": "NftStaked",
      "type": "event"
    },
    {
      "anonymous": false,
      "inputs": [
        {
          "indexed": true,
          "internalType": "address",
          "name": "previousOwner",
          "type": "address"
        },
        {
          "indexed": true,
          "internalType": "address",
          "name": "newOwner",
          "type": "address"
        }
      ],
      "name": "OwnershipTransferStarted",
      "type": "event"
    },
    {
      "anonymous": false,
      "inputs": [
        {
          "indexed": true,
          "internalType": "address",
          "name": "previousOwner",
          "type": "address"
        },
        {
          "indexed": true,
          "internalType": "address",
          "name": "newOwner",
          "type": "address"
        }
      ],
      "name": "OwnershipTransferred",
      "type": "event"
    },
    {
      "anonymous": false,
      "inputs": [
        {
          "indexed": true,
          "internalType": "address",
          "name": "user",
          "type": "address"
        },
        {
          "indexed": false,
          "internalType": "uint256",
          "name": "amount",
          "type": "uint256"
        }
      ],
      "name": "TokenRedeemed",
      "type": "event"
    },
    {
      "anonymous": false,
      "inputs": [
        {
          "indexed": true,
          "internalType": "address",
          "name": "user",
          "type": "address"
        },
        {
          "indexed": false,
          "internalType": "uint256",
          "name": "amount",
          "type": "uint256"
        }
      ],
      "name": "TokenStaked",
      "type": "event"
    },
    {
      "inputs": [],
      "name": "acceptOwnership",
      "outputs": [],
      "stateMutability": "nonpayable",
      "type": "function"
    },
    {
      "inputs": [],
      "name": "firToken",
      "outputs": [
        {
          "internalType": "contract IERC20",
          "name": "",
          "type": "address"
        }
      ],
      "stateMutability": "view",
      "type": "function"
    },
    {
      "inputs": [],
      "name": "minStakeAmount",
      "outputs": [
        {
          "internalType": "uint256",
          "name": "",
          "type": "uint256"
        }
      ],
      "stateMutability": "view",
      "type": "function"
    },
    {
      "inputs": [
        {
          "internalType": "address",
          "name": "",
          "type": "address"
        },
        {
          "internalType": "address",
          "name": "",
          "type": "address"
        },
        {
          "internalType": "uint256",
          "name": "",
          "type": "uint256"
        },
        {
          "internalType": "bytes",
          "name": "",
          "type": "bytes"
        }
      ],
      "name": "onERC721Received",
      "outputs": [
        {
          "internalType": "bytes4",
          "name": "",
          "type": "bytes4"
        }
      ],
      "stateMutability": "nonpayable",
      "type": "function"
    },
    {
      "inputs": [],
      "name": "owner",
      "outputs": [
        {
          "internalType": "address",
          "name": "",
          "type": "address"
        }
      ],
      "stateMutability": "view",
      "type": "function"
    },
    {
      "inputs": [],
      "name": "pendingOwner",
      "outputs": [
        {
          "internalType": "address",
          "name": "",
          "type": "address"
        }
      ],
      "stateMutability": "view",
      "type": "function"
    },
    {
      "inputs": [],
      "name": "redeemNft",
      "outputs": [],
      "stateMutability": "nonpayable",
      "type": "function"
    },
    {
      "inputs": [],
      "name": "redeemToken",
      "outputs": [],
      "stateMutability": "nonpayable",
      "type": "function"
    },
    {
      "inputs": [],
      "name": "renounceOwnership",
      "outputs": [],
      "stateMutability": "nonpayable",
      "type": "function"
    },
    {
      "inputs": [
        {
          "internalType": "uint256",
          "name": "minAmount",
          "type": "uint256"
        }
      ],
      "name": "setMinStakeAmount",
      "outputs": [],
      "stateMutability": "nonpayable",
      "type": "function"
    },
    {
      "inputs": [
        {
          "internalType": "uint256",
          "name": "nftId",
          "type": "uint256"
        }
      ],
      "name": "stakeNft",
      "outputs": [],
      "stateMutability": "nonpayable",
      "type": "function"
    },
    {
      "inputs": [
        {
          "internalType": "uint256",
          "name": "amount",
          "type": "uint256"
        }
      ],
      "name": "stakeToken",
      "outputs": [],
      "stateMutability": "nonpayable",
      "type": "function"
    },
    {
      "inputs": [
        {
          "internalType": "address",
          "name": "",
          "type": "address"
        }
      ],
      "name": "stakes",
      "outputs": [
        {
          "internalType": "uint256",
          "name": "nftId",
          "type": "uint256"
        },
        {
          "internalType": "uint256",
          "name": "amount",
          "type": "uint256"
        },
        {
          "internalType": "uint256",
          "name": "nftStakeTimestamp",
          "type": "uint256"
        },
        {
          "internalType": "uint256",
          "name": "tokenStakeTimestamp",
          "type": "uint256"
        },
        {
          "internalType": "bool",
          "name": "nftRedeemed",
          "type": "bool"
        },
        {
          "internalType": "bool",
          "name": "tokenRedeemed",
          "type": "bool"
        }
      ],
      "stateMutability": "view",
      "type": "function"
    },
    {
      "inputs": [
        {
          "internalType": "address",
          "name": "newOwner",
          "type": "address"
        }
      ],
      "name": "transferOwnership",
      "outputs": [],
      "stateMutability": "nonpayable",
      "type": "function"
    },
    {
      "inputs": [],
      "name": "vboxNFT",
      "outputs": [
        {
          "internalType": "contract IERC721",
          "name": "",
          "type": "address"
        }
      ],
      "stateMutability": "view",
      "type": "function"
    }
  ],
  "transactionHash": "0x3c950a3e6cf268a8346692547c1650829a4afbe761f5b15ac5df43a11fbd431d",
  "args": [
    "0x7d48776C4E05c3705289F661a4153f732f5D32c2",
    "0xF952F16a416dDc02574051Bf12d2a8604Ed10F47",
    "100000000000000000000"
  ],
  "numDeployments": 2,
  "solcInputHash": "fe13c35f8e0d4aed30c00581ef9e024a",
  "bytecode": "0x60c06040523480156200001157600080fd5b50604051620013d1380380620013d18339810160408190526200003491620000f7565b6200003f3362000060565b60016002556001600160a01b0392831660a052911660805260035562000138565b600180546001600160a01b031916905562000087816200008a602090811b6200042f17901c565b50565b600080546001600160a01b038381166001600160a01b0319831681178455604051919092169283917f8be0079c531659141344cd1fd0a4f28419497f9722a3daafe3b4186f6b6457e09190a35050565b80516001600160a01b0381168114620000f257600080fd5b919050565b6000806000606084860312156200010d57600080fd5b6200011884620000da565b92506200012860208501620000da565b9150604084015190509250925092565b60805160a05161125062000181600039600081816101d0015281816105ac015281816108f00152610a58015260008181610291015281816107680152610ceb01526112506000f3fe608060405234801561001057600080fd5b50600436106100f55760003560e01c806379ba509711610097578063eb4af04511610066578063eb4af0451461024f578063f188768414610262578063f2fde38b14610279578063f95d8f021461028c57600080fd5b806379ba5097146102125780638da5cb5b1461021a578063cda6b8471461022b578063e30c39781461023e57600080fd5b80632f310bad116100d35780632f310bad146101b05780634300f5e1146101b857806347921e33146101cb578063715018a61461020a57600080fd5b8063150b7a02146100fa57806316934fc41461012b57806320a6ba95146101a6575b600080fd5b61010d610108366004611024565b6102b3565b6040516001600160e01b031990911681526020015b60405180910390f35b610175610139366004611104565b60046020819052600091825260409091208054600182015460028301546003840154939094015491939092909160ff8082169161010090041686565b60408051968752602087019590955293850192909252606084015215156080830152151560a082015260c001610122565b6101ae6102c4565b005b6101ae6102e1565b6101ae6101c6366004611128565b6102f2565b6101f27f000000000000000000000000000000000000000000000000000000000000000081565b6040516001600160a01b039091168152602001610122565b6101ae610311565b6101ae610323565b6000546001600160a01b03166101f2565b6101ae610239366004611128565b61039f565b6001546001600160a01b03166101f2565b6101ae61025d366004611128565b6103b1565b61026b60035481565b604051908152602001610122565b6101ae610287366004611104565b6103be565b6101f27f000000000000000000000000000000000000000000000000000000000000000081565b630a85bd0160e11b5b949350505050565b6102cc61047f565b6102d5336104d6565b6102df6001600255565b565b6102e961047f565b6102d5336106ae565b6102fa61047f565b610304338261083e565b61030e6001600255565b50565b610319610aef565b6102df6000610b49565b60015433906001600160a01b031681146103965760405162461bcd60e51b815260206004820152602960248201527f4f776e61626c6532537465703a2063616c6c6572206973206e6f7420746865206044820152683732bb9037bbb732b960b91b60648201526084015b60405180910390fd5b61030e81610b49565b6103a761047f565b6103043382610b62565b6103b9610aef565b600355565b6103c6610aef565b600180546001600160a01b0383166001600160a01b031990911681179091556103f76000546001600160a01b031690565b6001600160a01b03167f38d16b8cac22d99fc7c124b9cd0de2d3fa1faef420bfe791d8c362d765e2270060405160405180910390a350565b600080546001600160a01b038381166001600160a01b0319831681178455604051919092169283917f8be0079c531659141344cd1fd0a4f28419497f9722a3daafe3b4186f6b6457e09190a35050565b60028054036104d05760405162461bcd60e51b815260206004820152601f60248201527f5265656e7472616e637947756172643a207265656e7472616e742063616c6c00604482015260640161038d565b60028055565b6001600160a01b038116600090815260046020818152604092839020835160c081018552815481526001820154928101929092526002810154938201939093526003830154606082015291015460ff808216158015608085015261010090920416151560a083015261057d5760405162461bcd60e51b815260206004820152601060248201526f105b1c9958591e481c995919595b595960821b604482015260640161038d565b8051604051632142170760e11b81523060048201526001600160a01b03848116602483015260448201929092527f0000000000000000000000000000000000000000000000000000000000000000909116906342842e0e90606401600060405180830381600087803b1580156105f257600080fd5b505af1158015610606573d6000803e3d6000fd5b505060016080840181815260008086526001600160a01b0387168082526004602081815260408085208a51808255928b015197810197909755808a0151600288015560608a01516003880155945195909101805460a08a015115156101000261ff00199715159790971661ffff19909116179590951790945591519294509092507f16f4a05377f83cc73e3bf3244476c7666d3041c157d872198a01e912a9dbb44a91a35050565b6001600160a01b038116600090815260046020818152604092839020835160c081018552815481526001820154928101929092526002810154938201939093526003830154606082015291015460ff808216151560808401526101009091041615801560a08301526107555760405162461bcd60e51b815260206004820152601060248201526f105b1c9958591e481c995919595b595960821b604482015260640161038d565b6020810151610790906001600160a01b037f000000000000000000000000000000000000000000000000000000000000000016908490610d5b565b600160a08201818152600060208085018281526001600160a01b038716808452600480845260409485902088518155925196830187905584880151600284015560608801516003840155608088015192018054955161ffff1990961692151561ff0019169290921761010095151595909502949094179055905192835290917fce4385affa8ad2cbec45b1660c6f6afcb691bf0a7a73ebda096ee1dfb670fe6f910160405180910390a25050565b6001600160a01b038216600090815260046020818152604092839020835160c081018552815481526001820154928101929092526002810154938201849052600381015460608301529091015460ff8082161515608084015261010090910416151560a082015290156108e45760405162461bcd60e51b815260206004820152600e60248201526d105b1c9958591e481cdd185ad95960921b604482015260640161038d565b826001600160a01b03167f00000000000000000000000000000000000000000000000000000000000000006001600160a01b0316636352211e846040518263ffffffff1660e01b815260040161093c91815260200190565b602060405180830381865afa158015610959573d6000803e3d6000fd5b505050506040513d601f19601f8201168201806040525081019061097d9190611141565b6001600160a01b0316146109c35760405162461bcd60e51b815260206004820152600d60248201526c2737ba1027232a1037bbb732b960991b604482015260640161038d565b8181524260408083019182526001600160a01b03858116600081815260046020818152918590208751815591870151600183015594516002820155606086015160038201556080860151908501805460a088015115156101000261ff00199315159390931661ffff19909116179190911790559151632142170760e11b815292830191909152306024830152604482018490527f000000000000000000000000000000000000000000000000000000000000000016906342842e0e90606401600060405180830381600087803b158015610a9c57600080fd5b505af1158015610ab0573d6000803e3d6000fd5b50506040518492506001600160a01b03861691507f67fdef29b4d3c5f8e8a10bc5f9797626d078010bb98360a511e7cde7db9d9f0690600090a3505050565b6000546001600160a01b031633146102df5760405162461bcd60e51b815260206004820181905260248201527f4f776e61626c653a2063616c6c6572206973206e6f7420746865206f776e6572604482015260640161038d565b600180546001600160a01b031916905561030e8161042f565b6001600160a01b038216600090815260046020818152604092839020835160c081018552815481526001820154928101929092526002810154938201939093526003808401546060830152929091015460ff8082161515608084015261010090910416151560a08201529054821015610c1d5760405162461bcd60e51b815260206004820152601a60248201527f42656c6f77206d696e696d756d207374616b6520616d6f756e74000000000000604482015260640161038d565b8060a0015115610c5f5760405162461bcd60e51b815260206004820152600d60248201526c43616e206e6f74207374616b6560981b604482015260640161038d565b818160200151610c6f919061115e565b602080830191825242606084019081526001600160a01b0380871660009081526004938490526040908190208651815594516001860155850151600285015590516003840155608084015192909101805460a085015115156101000261ff00199415159490941661ffff199091161792909217909155610d13907f000000000000000000000000000000000000000000000000000000000000000016843085610dc3565b826001600160a01b03167f1fdab8a8457aaf782e4b6217d6ffa6f5006eda7e50922dd092b2e1524275d77483604051610d4e91815260200190565b60405180910390a2505050565b6040516001600160a01b038316602482015260448101829052610dbe90849063a9059cbb60e01b906064015b60408051601f198184030181529190526020810180516001600160e01b03166001600160e01b031990931692909217909152610e01565b505050565b6040516001600160a01b0380851660248301528316604482015260648101829052610dfb9085906323b872dd60e01b90608401610d87565b50505050565b6000610e56826040518060400160405280602081526020017f5361666545524332303a206c6f772d6c6576656c2063616c6c206661696c6564815250856001600160a01b0316610ed69092919063ffffffff16565b9050805160001480610e77575080806020019051810190610e779190611185565b610dbe5760405162461bcd60e51b815260206004820152602a60248201527f5361666545524332303a204552433230206f7065726174696f6e20646964206e6044820152691bdd081cdd58d8d9595960b21b606482015260840161038d565b60606102bc848460008585600080866001600160a01b03168587604051610efd91906111cb565b60006040518083038185875af1925050503d8060008114610f3a576040519150601f19603f3d011682016040523d82523d6000602084013e610f3f565b606091505b5091509150610f5087838387610f5b565b979650505050505050565b60608315610fca578251600003610fc3576001600160a01b0385163b610fc35760405162461bcd60e51b815260206004820152601d60248201527f416464726573733a2063616c6c20746f206e6f6e2d636f6e7472616374000000604482015260640161038d565b50816102bc565b6102bc8383815115610fdf5781518083602001fd5b8060405162461bcd60e51b815260040161038d91906111e7565b6001600160a01b038116811461030e57600080fd5b634e487b7160e01b600052604160045260246000fd5b6000806000806080858703121561103a57600080fd5b843561104581610ff9565b9350602085013561105581610ff9565b925060408501359150606085013567ffffffffffffffff8082111561107957600080fd5b818701915087601f83011261108d57600080fd5b81358181111561109f5761109f61100e565b604051601f8201601f19908116603f011681019083821181831017156110c7576110c761100e565b816040528281528a60208487010111156110e057600080fd5b82602086016020830137600060208483010152809550505050505092959194509250565b60006020828403121561111657600080fd5b813561112181610ff9565b9392505050565b60006020828403121561113a57600080fd5b5035919050565b60006020828403121561115357600080fd5b815161112181610ff9565b8082018082111561117f57634e487b7160e01b600052601160045260246000fd5b92915050565b60006020828403121561119757600080fd5b8151801515811461112157600080fd5b60005b838110156111c25781810151838201526020016111aa565b50506000910152565b600082516111dd8184602087016111a7565b9190910192915050565b60208152600082518060208401526112068160408501602087016111a7565b601f01601f1916919091016040019291505056fea2646970667358221220418a874ef9e1c7b943e27628bb7268e67a4d078c56d3a02a885c76d2c977065564736f6c63430008100033",
  "devdoc": {
    "kind": "dev",
    "methods": {
      "acceptOwnership()": {
        "details": "The new owner accepts the ownership transfer."
      },
      "onERC721Received(address,address,uint256,bytes)": {
        "details": "See {IERC721Receiver-onERC721Received}. Always returns `IERC721Receiver.onERC721Received.selector`."
      },
      "owner()": {
        "details": "Returns the address of the current owner."
      },
      "pendingOwner()": {
        "details": "Returns the address of the pending owner."
      },
      "renounceOwnership()": {
        "details": "Leaves the contract without owner. It will not be possible to call `onlyOwner` functions. Can only be called by the current owner. NOTE: Renouncing ownership will leave the contract without an owner, thereby disabling any functionality that is only available to the owner."
      },
      "transferOwnership(address)": {
        "details": "Starts the ownership transfer of the contract to a new account. Replaces the pending transfer if there is one. Can only be called by the current owner."
      }
    },
    "version": 1
  },
  "userdoc": {
    "kind": "user",
    "methods": {},
    "version": 1
  },
  "storageLayout": {
    "storage": [
      {
        "astId": 7,
        "contract": "contracts/FirVerseStake2.sol:FirVerseStake2",
        "label": "_owner",
        "offset": 0,
        "slot": "0",
        "type": "t_address"
      },
      {
        "astId": 120,
        "contract": "contracts/FirVerseStake2.sol:FirVerseStake2",
        "label": "_pendingOwner",
        "offset": 0,
        "slot": "1",
        "type": "t_address"
      },
      {
        "astId": 206,
        "contract": "contracts/FirVerseStake2.sol:FirVerseStake2",
        "label": "_status",
        "offset": 0,
        "slot": "2",
        "type": "t_uint256"
      },
      {
        "astId": 1837,
        "contract": "contracts/FirVerseStake2.sol:FirVerseStake2",
        "label": "minStakeAmount",
        "offset": 0,
        "slot": "3",
        "type": "t_uint256"
      },
      {
        "astId": 1855,
        "contract": "contracts/FirVerseStake2.sol:FirVerseStake2",
        "label": "stakes",
        "offset": 0,
        "slot": "4",
        "type": "t_mapping(t_address,t_struct(StakeInfo)1850_storage)"
      }
    ],
    "types": {
      "t_address": {
        "encoding": "inplace",
        "label": "address",
        "numberOfBytes": "20"
      },
      "t_bool": {
        "encoding": "inplace",
        "label": "bool",
        "numberOfBytes": "1"
      },
      "t_mapping(t_address,t_struct(StakeInfo)1850_storage)": {
        "encoding": "mapping",
        "key": "t_address",
        "label": "mapping(address => struct FirVerseStake2.StakeInfo)",
        "numberOfBytes": "32",
        "value": "t_struct(StakeInfo)1850_storage"
      },
      "t_struct(StakeInfo)1850_storage": {
        "encoding": "inplace",
        "label": "struct FirVerseStake2.StakeInfo",
        "members": [
          {
            "astId": 1839,
            "contract": "contracts/FirVerseStake2.sol:FirVerseStake2",
            "label": "nftId",
            "offset": 0,
            "slot": "0",
            "type": "t_uint256"
          },
          {
            "astId": 1841,
            "contract": "contracts/FirVerseStake2.sol:FirVerseStake2",
            "label": "amount",
            "offset": 0,
            "slot": "1",
            "type": "t_uint256"
          },
          {
            "astId": 1843,
            "contract": "contracts/FirVerseStake2.sol:FirVerseStake2",
            "label": "nftStakeTimestamp",
            "offset": 0,
            "slot": "2",
            "type": "t_uint256"
          },
          {
            "astId": 1845,
            "contract": "contracts/FirVerseStake2.sol:FirVerseStake2",
            "label": "tokenStakeTimestamp",
            "offset": 0,
            "slot": "3",
            "type": "t_uint256"
          },
          {
            "astId": 1847,
            "contract": "contracts/FirVerseStake2.sol:FirVerseStake2",
            "label": "nftRedeemed",
            "offset": 0,
            "slot": "4",
            "type": "t_bool"
          },
          {
            "astId": 1849,
            "contract": "contracts/FirVerseStake2.sol:FirVerseStake2",
            "label": "tokenRedeemed",
            "offset": 1,
            "slot": "4",
            "type": "t_bool"
          }
        ],
        "numberOfBytes": "160"
      },
      "t_uint256": {
        "encoding": "inplace",
        "label": "uint256",
        "numberOfBytes": "32"
      }
    }
  }
}