{
  "address": "0x0fadc856e688Fbd56531c1cA379E35caf43d1Bf6",
  "abi": [
    {
      "inputs": [
        {
          "internalType": "address",
          "name": "vboxNFT_",
          "type": "address"
        },
        {
          "internalType": "address",
          "name": "firToken_",
          "type": "address"
        },
        {
          "internalType": "uint256",
          "name": "startTimestamp_",
          "type": "uint256"
        },
        {
          "internalType": "uint256",
          "name": "totalReward_",
          "type": "uint256"
        }
      ],
      "stateMutability": "nonpayable",
      "type": "constructor"
    },
    {
      "anonymous": false,
      "inputs": [
        {
          "indexed": true,
          "internalType": "address",
          "name": "user",
          "type": "address"
        },
        {
          "indexed": true,
          "internalType": "uint256",
          "name": "stakeId",
          "type": "uint256"
        },
        {
          "indexed": false,
          "internalType": "uint256",
          "name": "reward",
          "type": "uint256"
        },
        {
          "indexed": false,
          "internalType": "uint256",
          "name": "day",
          "type": "uint256"
        }
      ],
      "name": "Claimed",
      "type": "event"
    },
    {
      "anonymous": false,
      "inputs": [
        {
          "indexed": true,
          "internalType": "uint256",
          "name": "day",
          "type": "uint256"
        },
        {
          "indexed": false,
          "internalType": "uint256",
          "name": "amount",
          "type": "uint256"
        }
      ],
      "name": "DailyBurned",
      "type": "event"
    },
    {
      "anonymous": false,
      "inputs": [
        {
          "indexed": true,
          "internalType": "address",
          "name": "user",
          "type": "address"
        },
        {
          "indexed": false,
          "internalType": "uint256",
          "name": "nftId",
          "type": "uint256"
        }
      ],
      "name": "NFTWithdrawn",
      "type": "event"
    },
    {
      "anonymous": false,
      "inputs": [
        {
          "indexed": true,
          "internalType": "address",
          "name": "previousOwner",
          "type": "address"
        },
        {
          "indexed": true,
          "internalType": "address",
          "name": "newOwner",
          "type": "address"
        }
      ],
      "name": "OwnershipTransferStarted",
      "type": "event"
    },
    {
      "anonymous": false,
      "inputs": [
        {
          "indexed": true,
          "internalType": "address",
          "name": "previousOwner",
          "type": "address"
        },
        {
          "indexed": true,
          "internalType": "address",
          "name": "newOwner",
          "type": "address"
        }
      ],
      "name": "OwnershipTransferred",
      "type": "event"
    },
    {
      "anonymous": false,
      "inputs": [
        {
          "indexed": true,
          "internalType": "address",
          "name": "user",
          "type": "address"
        },
        {
          "indexed": true,
          "internalType": "uint256",
          "name": "stakeId",
          "type": "uint256"
        }
      ],
      "name": "Redeemed",
      "type": "event"
    },
    {
      "anonymous": false,
      "inputs": [
        {
          "indexed": false,
          "internalType": "uint8",
          "name": "index",
          "type": "uint8"
        },
        {
          "indexed": false,
          "internalType": "uint256",
          "name": "lockDays",
          "type": "uint256"
        },
        {
          "indexed": false,
          "internalType": "uint256",
          "name": "rewardRate",
          "type": "uint256"
        }
      ],
      "name": "StakeTypeUpdated",
      "type": "event"
    },
    {
      "anonymous": false,
      "inputs": [
        {
          "indexed": true,
          "internalType": "address",
          "name": "user",
          "type": "address"
        },
        {
          "indexed": true,
          "internalType": "uint256",
          "name": "stakeId",
          "type": "uint256"
        },
        {
          "indexed": false,
          "internalType": "uint256",
          "name": "nftId",
          "type": "uint256"
        },
        {
          "indexed": false,
          "internalType": "uint256",
          "name": "amount",
          "type": "uint256"
        },
        {
          "indexed": false,
          "internalType": "uint256",
          "name": "lockDays",
          "type": "uint256"
        }
      ],
      "name": "Staked",
      "type": "event"
    },
    {
      "inputs": [],
      "name": "BASIS_POINTS_DIVISOR",
      "outputs": [
        {
          "internalType": "uint256",
          "name": "",
          "type": "uint256"
        }
      ],
      "stateMutability": "view",
      "type": "function"
    },
    {
      "inputs": [],
      "name": "TOTAL_DAYS",
      "outputs": [
        {
          "internalType": "uint256",
          "name": "",
          "type": "uint256"
        }
      ],
      "stateMutability": "view",
      "type": "function"
    },
    {
      "inputs": [],
      "name": "acceptOwnership",
      "outputs": [],
      "stateMutability": "nonpayable",
      "type": "function"
    },
    {
      "inputs": [
        {
          "internalType": "uint256",
          "name": "lockDays",
          "type": "uint256"
        },
        {
          "internalType": "uint256",
          "name": "rewardRate",
          "type": "uint256"
        }
      ],
      "name": "addStakeType",
      "outputs": [],
      "stateMutability": "nonpayable",
      "type": "function"
    },
    {
      "inputs": [
        {
          "internalType": "uint256[]",
          "name": "nftIdArr",
          "type": "uint256[]"
        },
        {
          "internalType": "uint256[]",
          "name": "stakeTypeArr",
          "type": "uint256[]"
        },
        {
          "internalType": "uint256[]",
          "name": "amountArr",
          "type": "uint256[]"
        }
      ],
      "name": "batchStake",
      "outputs": [],
      "stateMutability": "nonpayable",
      "type": "function"
    },
    {
      "inputs": [
        {
          "internalType": "uint256",
          "name": "from",
          "type": "uint256"
        },
        {
          "internalType": "uint256",
          "name": "to",
          "type": "uint256"
        }
      ],
      "name": "claim",
      "outputs": [],
      "stateMutability": "nonpayable",
      "type": "function"
    },
    {
      "inputs": [
        {
          "internalType": "uint256",
          "name": "",
          "type": "uint256"
        }
      ],
      "name": "dailyClaimed",
      "outputs": [
        {
          "internalType": "uint256",
          "name": "",
          "type": "uint256"
        }
      ],
      "stateMutability": "view",
      "type": "function"
    },
    {
      "inputs": [],
      "name": "dailyUnlock",
      "outputs": [
        {
          "internalType": "uint256",
          "name": "",
          "type": "uint256"
        }
      ],
      "stateMutability": "view",
      "type": "function"
    },
    {
      "inputs": [],
      "name": "firToken",
      "outputs": [
        {
          "internalType": "contract ERC20Burnable",
          "name": "",
          "type": "address"
        }
      ],
      "stateMutability": "view",
      "type": "function"
    },
    {
      "inputs": [],
      "name": "getCurrentDay",
      "outputs": [
        {
          "internalType": "uint256",
          "name": "",
          "type": "uint256"
        }
      ],
      "stateMutability": "view",
      "type": "function"
    },
    {
      "inputs": [
        {
          "internalType": "address",
          "name": "user",
          "type": "address"
        }
      ],
      "name": "getUserStakeIds",
      "outputs": [
        {
          "internalType": "uint256[]",
          "name": "ids",
          "type": "uint256[]"
        }
      ],
      "stateMutability": "view",
      "type": "function"
    },
    {
      "inputs": [
        {
          "internalType": "address",
          "name": "user",
          "type": "address"
        }
      ],
      "name": "getUserStakes",
      "outputs": [
        {
          "components": [
            {
              "internalType": "address",
              "name": "owner",
              "type": "address"
            },
            {
              "internalType": "uint256",
              "name": "nftId",
              "type": "uint256"
            },
            {
              "internalType": "uint256",
              "name": "amount",
              "type": "uint256"
            },
            {
              "internalType": "uint256",
              "name": "startDay",
              "type": "uint256"
            },
            {
              "internalType": "uint256",
              "name": "lockDays",
              "type": "uint256"
            },
            {
              "internalType": "uint256",
              "name": "rewardRate",
              "type": "uint256"
            },
            {
              "internalType": "uint256",
              "name": "claimedDay",
              "type": "uint256"
            },
            {
              "internalType": "bool",
              "name": "redeemed",
              "type": "bool"
            }
          ],
          "internalType": "struct FirVerseStake.StakeInfo[]",
          "name": "infos",
          "type": "tuple[]"
        }
      ],
      "stateMutability": "view",
      "type": "function"
    },
    {
      "inputs": [],
      "name": "lastBurnedDay",
      "outputs": [
        {
          "internalType": "uint256",
          "name": "",
          "type": "uint256"
        }
      ],
      "stateMutability": "view",
      "type": "function"
    },
    {
      "inputs": [],
      "name": "maxStakePerNFT",
      "outputs": [
        {
          "internalType": "uint256",
          "name": "",
          "type": "uint256"
        }
      ],
      "stateMutability": "view",
      "type": "function"
    },
    {
      "inputs": [],
      "name": "minStakeAmount",
      "outputs": [
        {
          "internalType": "uint256",
          "name": "",
          "type": "uint256"
        }
      ],
      "stateMutability": "view",
      "type": "function"
    },
    {
      "inputs": [
        {
          "internalType": "uint256",
          "name": "",
          "type": "uint256"
        }
      ],
      "name": "nftOwner",
      "outputs": [
        {
          "internalType": "address",
          "name": "",
          "type": "address"
        }
      ],
      "stateMutability": "view",
      "type": "function"
    },
    {
      "inputs": [
        {
          "internalType": "uint256",
          "name": "",
          "type": "uint256"
        }
      ],
      "name": "nftStakedAmount",
      "outputs": [
        {
          "internalType": "uint256",
          "name": "",
          "type": "uint256"
        }
      ],
      "stateMutability": "view",
      "type": "function"
    },
    {
      "inputs": [
        {
          "internalType": "address",
          "name": "",
          "type": "address"
        },
        {
          "internalType": "address",
          "name": "",
          "type": "address"
        },
        {
          "internalType": "uint256",
          "name": "",
          "type": "uint256"
        },
        {
          "internalType": "bytes",
          "name": "",
          "type": "bytes"
        }
      ],
      "name": "onERC721Received",
      "outputs": [
        {
          "internalType": "bytes4",
          "name": "",
          "type": "bytes4"
        }
      ],
      "stateMutability": "nonpayable",
      "type": "function"
    },
    {
      "inputs": [],
      "name": "owner",
      "outputs": [
        {
          "internalType": "address",
          "name": "",
          "type": "address"
        }
      ],
      "stateMutability": "view",
      "type": "function"
    },
    {
      "inputs": [],
      "name": "pendingOwner",
      "outputs": [
        {
          "internalType": "address",
          "name": "",
          "type": "address"
        }
      ],
      "stateMutability": "view",
      "type": "function"
    },
    {
      "inputs": [
        {
          "internalType": "uint256",
          "name": "stakeId",
          "type": "uint256"
        }
      ],
      "name": "redeem",
      "outputs": [],
      "stateMutability": "nonpayable",
      "type": "function"
    },
    {
      "inputs": [],
      "name": "renounceOwnership",
      "outputs": [],
      "stateMutability": "nonpayable",
      "type": "function"
    },
    {
      "inputs": [
        {
          "internalType": "uint256",
          "name": "minAmount",
          "type": "uint256"
        },
        {
          "internalType": "uint256",
          "name": "maxAmount",
          "type": "uint256"
        }
      ],
      "name": "setStakeAmountLimits",
      "outputs": [],
      "stateMutability": "nonpayable",
      "type": "function"
    },
    {
      "inputs": [
        {
          "internalType": "uint256",
          "name": "nftId",
          "type": "uint256"
        },
        {
          "internalType": "uint256",
          "name": "stakeTypeId",
          "type": "uint256"
        },
        {
          "internalType": "uint256",
          "name": "amount",
          "type": "uint256"
        }
      ],
      "name": "stake",
      "outputs": [],
      "stateMutability": "nonpayable",
      "type": "function"
    },
    {
      "inputs": [],
      "name": "stakeCounter",
      "outputs": [
        {
          "internalType": "uint256",
          "name": "",
          "type": "uint256"
        }
      ],
      "stateMutability": "view",
      "type": "function"
    },
    {
      "inputs": [
        {
          "internalType": "uint256",
          "name": "",
          "type": "uint256"
        }
      ],
      "name": "stakeTypes",
      "outputs": [
        {
          "internalType": "uint256",
          "name": "lockDays",
          "type": "uint256"
        },
        {
          "internalType": "uint256",
          "name": "rewardRate",
          "type": "uint256"
        }
      ],
      "stateMutability": "view",
      "type": "function"
    },
    {
      "inputs": [
        {
          "internalType": "uint256",
          "name": "",
          "type": "uint256"
        }
      ],
      "name": "stakes",
      "outputs": [
        {
          "internalType": "address",
          "name": "owner",
          "type": "address"
        },
        {
          "internalType": "uint256",
          "name": "nftId",
          "type": "uint256"
        },
        {
          "internalType": "uint256",
          "name": "amount",
          "type": "uint256"
        },
        {
          "internalType": "uint256",
          "name": "startDay",
          "type": "uint256"
        },
        {
          "internalType": "uint256",
          "name": "lockDays",
          "type": "uint256"
        },
        {
          "internalType": "uint256",
          "name": "rewardRate",
          "type": "uint256"
        },
        {
          "internalType": "uint256",
          "name": "claimedDay",
          "type": "uint256"
        },
        {
          "internalType": "bool",
          "name": "redeemed",
          "type": "bool"
        }
      ],
      "stateMutability": "view",
      "type": "function"
    },
    {
      "inputs": [],
      "name": "startTimestamp",
      "outputs": [
        {
          "internalType": "uint256",
          "name": "",
          "type": "uint256"
        }
      ],
      "stateMutability": "view",
      "type": "function"
    },
    {
      "inputs": [],
      "name": "totalReward",
      "outputs": [
        {
          "internalType": "uint256",
          "name": "",
          "type": "uint256"
        }
      ],
      "stateMutability": "view",
      "type": "function"
    },
    {
      "inputs": [],
      "name": "totalUnlocked",
      "outputs": [
        {
          "internalType": "uint256",
          "name": "",
          "type": "uint256"
        }
      ],
      "stateMutability": "view",
      "type": "function"
    },
    {
      "inputs": [
        {
          "internalType": "address",
          "name": "newOwner",
          "type": "address"
        }
      ],
      "name": "transferOwnership",
      "outputs": [],
      "stateMutability": "nonpayable",
      "type": "function"
    },
    {
      "inputs": [
        {
          "internalType": "uint8",
          "name": "index",
          "type": "uint8"
        },
        {
          "internalType": "uint256",
          "name": "newLockDays",
          "type": "uint256"
        },
        {
          "internalType": "uint256",
          "name": "newRewardRate",
          "type": "uint256"
        }
      ],
      "name": "updateStakeType",
      "outputs": [],
      "stateMutability": "nonpayable",
      "type": "function"
    },
    {
      "inputs": [],
      "name": "vboxNFT",
      "outputs": [
        {
          "internalType": "contract IERC721",
          "name": "",
          "type": "address"
        }
      ],
      "stateMutability": "view",
      "type": "function"
    },
    {
      "inputs": [
        {
          "internalType": "uint256",
          "name": "nftId",
          "type": "uint256"
        }
      ],
      "name": "withdrawNFT",
      "outputs": [],
      "stateMutability": "nonpayable",
      "type": "function"
    }
  ],
  "transactionHash": "0x3cf3c12ba696b819a9dce300821fa37b6c447b40b1bf5b9f31a6aa0bf97a5bd6",
  "args": [
    "0x7d48776C4E05c3705289F661a4153f732f5D32c2",
    "0xF952F16a416dDc02574051Bf12d2a8604Ed10F47",
    1755216000,
    "300000000000000000000000000"
  ],
  "numDeployments": 2,
  "solcInputHash": "0c213143e8af2380b9acc1973c1fd24b",
  "bytecode": "0x610120604052670de0b6b3a7640000600355686c6b935b8bbd4000006004553480156200002b57600080fd5b50604051620028e4380380620028e48339810160408190526200004e91620002ce565b620000593362000237565b60016002556200006d62015180836200032c565b15620000bf5760405162461bcd60e51b815260206004820152601860248201527f53746172742074696d65206d7573742062652055544320300000000000000000604482015260640160405180910390fd5b6001600160a01b0380851660a052831660805260c082905260e0819052620000ea6101688262000343565b610100525050604080518082018252600f81526109c4602080830191825260088054600181810183556000838152955160029283027ff3f7a9fe364faab93b216da50a3214154f22a0a2b415b23a84c8169e8b636ee38181019290925595517ff3f7a9fe364faab93b216da50a3214154f22a0a2b415b23a84c8169e8b636ee49687015587518089018952602d815261138881870190815285548085018755868a52915191850280840192909255519087015587518089018952605a8152611d4c81870190815285548085018755868a5291519185028084019290925551908701558751808901895260b48152613a9881870190815285548085018755868a529151918502808401929092555190870155875180890190985261016888526161a89488019485528354918201845592909552945193909402938401929092559051910155506200035a9050565b600180546001600160a01b03191690556200025e8162000261602090811b6200148117901c565b50565b600080546001600160a01b038381166001600160a01b0319831681178455604051919092169283917f8be0079c531659141344cd1fd0a4f28419497f9722a3daafe3b4186f6b6457e09190a35050565b80516001600160a01b0381168114620002c957600080fd5b919050565b60008060008060808587031215620002e557600080fd5b620002f085620002b1565b93506200030060208601620002b1565b6040860151606090960151949790965092505050565b634e487b7160e01b600052601260045260246000fd5b6000826200033e576200033e62000316565b500690565b60008262000355576200035562000316565b500490565b60805160a05160c05160e051610100516124ce62000416600039600081816103a3015281816110870152611af70152600081816102f801528181611b360152611b7001526000818161052a0152818161082e0152818161089c01528181610981015281816109b601528181610d580152610dc60152600081816102a8015281816106ba0152818161168a015261175d015260008181610576015281816111f0015281816113b0015281816119c70152611bea01526124ce6000f3fe608060405234801561001057600080fd5b50600436106102065760003560e01c8063a779d0801161011a578063db006a75116100ad578063f18876841161007c578063f18876841461054c578063f2fde38b14610555578063f7b17d1014610568578063f95d8f0214610571578063fd7318371461059857600080fd5b8063db006a75146104e1578063e167e457146104f4578063e30c397814610514578063e6fd48bc1461052557600080fd5b8063c082a42c116100e9578063c082a42c146103f8578063c349026314610401578063cf251c9214610414578063d5a44f861461043c57600080fd5b8063a779d08014610395578063b491940c1461039e578063b6d5f0f2146103c5578063b94070d5146103e557600080fd5b8063715018a61161019d5780638da5cb5b1161016c5780638da5cb5b1461034257806397d5932a14610353578063982dfdd1146103665780639a654cb31461036f578063a638f2e21461038257600080fd5b8063715018a6146102eb578063750142e6146102f357806379ba50971461031a578063842e29811461032257600080fd5b80633a180ef6116101d95780633a180ef6146102885780633e6968b61461029b57806347921e33146102a357806357980a43146102e257600080fd5b8063023245d71461020b578063126082cf14610220578063150b7a021461023c578063313da78f14610268575b600080fd5b61021e610219366004611fae565b6105c1565b005b61022961271081565b6040519081526020015b60405180910390f35b61024f61024a366004611ff2565b610758565b6040516001600160e01b03199091168152602001610233565b61027b6102763660046120d2565b610769565b60405161023391906120ef565b61021e61029636600461217f565b610824565b61022961097d565b6102ca7f000000000000000000000000000000000000000000000000000000000000000081565b6040516001600160a01b039091168152602001610233565b61022961016881565b61021e6109f5565b6102297f000000000000000000000000000000000000000000000000000000000000000081565b61021e610a09565b6103356103303660046120d2565b610a80565b6040516102339190612219565b6000546001600160a01b03166102ca565b61021e6103613660046122b1565b610c0d565b61022960055481565b61021e61037d3660046122ec565b610cef565b61021e61039036600461230e565b610d4e565b61022960065481565b6102297f000000000000000000000000000000000000000000000000000000000000000081565b6102296103d3366004611fae565b600a6020526000908152604090205481565b61021e6103f33660046122ec565b610e3e565b61022960045481565b61021e61040f3660046122ec565b610ebe565b610427610422366004611fae565b61122a565b60408051928352602083019190915201610233565b61049a61044a366004611fae565b600960205260009081526040902080546001820154600283015460038401546004850154600586015460068701546007909701546001600160a01b03909616969495939492939192909160ff1688565b604080516001600160a01b0390991689526020890197909752958701949094526060860192909252608085015260a084015260c0830152151560e082015261010001610233565b61021e6104ef366004611fae565b611258565b610229610502366004611fae565b600d6020526000908152604090205481565b6001546001600160a01b03166102ca565b6102297f000000000000000000000000000000000000000000000000000000000000000081565b61022960035481565b61021e6105633660046120d2565b611410565b61022960075481565b6102ca7f000000000000000000000000000000000000000000000000000000000000000081565b6102ca6105a6366004611fae565b600b602052600090815260409020546001600160a01b031681565b6105c96114d1565b6000818152600b60205260409020546001600160a01b031633146106255760405162461bcd60e51b815260206004820152600e60248201526d2737ba1027232a1039ba30b5b2b960911b60448201526064015b60405180910390fd5b6000818152600a6020526040902054156106745760405162461bcd60e51b815260206004820152601060248201526f4e4654207374696c6c20696e2075736560801b604482015260640161061c565b6000818152600b60205260409081902080546001600160a01b031916905551632142170760e11b8152306004820152336024820152604481018290526001600160a01b037f000000000000000000000000000000000000000000000000000000000000000016906342842e0e90606401600060405180830381600087803b1580156106fe57600080fd5b505af1158015610712573d6000803e3d6000fd5b50506040518381523392507f2aa1b4c95f3b2da9c955947fca584743ea0d457708fadf209c093061e98c4ccb915060200160405180910390a26107556001600255565b50565b630a85bd0160e11b5b949350505050565b6001600160a01b0381166000908152600c6020526040902060609061078d81611528565b67ffffffffffffffff8111156107a5576107a5611fdc565b6040519080825280602002602001820160405280156107ce578160200160208202803683370190505b50915060005b6107dd82611528565b81101561081d576107ee8282611538565b8382815181106108005761080061233a565b60209081029190910101528061081581612366565b9150506107d4565b5050919050565b61082c6114d1565b7f000000000000000000000000000000000000000000000000000000000000000042116108875760405162461bcd60e51b8152602060048201526009602482015268139bdd081cdd185c9d60ba1b604482015260640161061c565b6108966101686201518061237f565b6108c0907f000000000000000000000000000000000000000000000000000000000000000061239e565b42106108fa5760405162461bcd60e51b815260206004820152600960248201526814dd185ad948195b9960ba1b604482015260640161061c565b60005b8581101561096a5761095887878381811061091a5761091a61233a565b905060200201358686848181106109335761093361233a565b9050602002013585858581811061094c5761094c61233a565b9050602002013561154b565b8061096281612366565b9150506108fd565b506109756001600255565b505050505050565b60007f00000000000000000000000000000000000000000000000000000000000000004210156109ad5750600090565b620151806109db7f0000000000000000000000000000000000000000000000000000000000000000426123b1565b6109e591906123c4565b6109f090600161239e565b905090565b6109fd611a3d565b610a076000611a97565b565b60015433906001600160a01b03168114610a775760405162461bcd60e51b815260206004820152602960248201527f4f776e61626c6532537465703a2063616c6c6572206973206e6f7420746865206044820152683732bb9037bbb732b960b91b606482015260840161061c565b61075581611a97565b6001600160a01b0381166000908152600c60205260409020606090610aa481611528565b67ffffffffffffffff811115610abc57610abc611fdc565b604051908082528060200260200182016040528015610b4057816020015b610b2d60405180610100016040528060006001600160a01b031681526020016000815260200160008152602001600081526020016000815260200160008152602001600081526020016000151581525090565b815260200190600190039081610ada5790505b50915060005b610b4f82611528565b81101561081d5760096000610b648484611538565b8152602080820192909252604090810160002081516101008101835281546001600160a01b031681526001820154938101939093526002810154918301919091526003810154606083015260048101546080830152600581015460a0830152600681015460c08301526007015460ff16151560e08201528351849083908110610bef57610bef61233a565b60200260200101819052508080610c0590612366565b915050610b46565b610c15611a3d565b60085460ff841610610c595760405162461bcd60e51b815260206004820152600d60248201526c092dcecc2d8d2c840d2dcc8caf609b1b604482015260640161061c565b60405180604001604052808381526020018281525060088460ff1681548110610c8457610c8461233a565b6000918252602091829020835160029290920201908155918101516001909201919091556040805160ff8616815291820184905281018290527f757b30a6dd6cc015927bf86b829a46795a18a58e4faeb6747cef69149e65561f9060600160405180910390a1505050565b610cf7611a3d565b600082118015610d0657508181115b610d435760405162461bcd60e51b815260206004820152600e60248201526d496e76616c6964206c696d69747360901b604482015260640161061c565b600391909155600455565b610d566114d1565b7f00000000000000000000000000000000000000000000000000000000000000004211610db15760405162461bcd60e51b8152602060048201526009602482015268139bdd081cdd185c9d60ba1b604482015260640161061c565b610dc06101686201518061237f565b610dea907f000000000000000000000000000000000000000000000000000000000000000061239e565b4210610e245760405162461bcd60e51b815260206004820152600960248201526814dd185ad948195b9960ba1b604482015260640161061c565b610e2f83838361154b565b610e396001600255565b505050565b610e46611a3d565b60408051808201909152918252602082019081526008805460018101825560009190915291517ff3f7a9fe364faab93b216da50a3214154f22a0a2b415b23a84c8169e8b636ee3600290930292830155517ff3f7a9fe364faab93b216da50a3214154f22a0a2b415b23a84c8169e8b636ee490910155565b610ec66114d1565b610ece611ab0565b6000610ed861097d565b9050610168811115610eea575061121c565b336000908152600c6020526040812081610f0382611528565b90508486108015610f145750808511155b610f505760405162461bcd60e51b815260206004820152600d60248201526c496e76616c69642072616e676560981b604482015260640161061c565b855b858110156111dc576000610f668483611538565b60008181526009602090815260409182902082516101008101845281546001600160a01b031681526001820154928101929092526002810154928201929092526003820154606082015260048201546080820152600582015460a0820152600682015460c082015260079091015460ff1615801560e083015291925090610fee5750506111cc565b6000610ffb6001896123b1565b9050600182608001518360600151611013919061239e565b61101d91906123b1565b811061102b575050506111cc565b878260c001511061103e575050506111cc565b60006101686127108460a00151856040015161105a919061237f565b61106491906123c4565b61106e91906123c4565b6000838152600d6020526040812054919250906110ab907f00000000000000000000000000000000000000000000000000000000000000006123b1565b905060008183116110bc57826110be565b815b9050806000036110d3575050505050506111cc565b60c085018b90526110e4818b61239e565b6000878152600960209081526040808320895181546001600160a01b0319166001600160a01b0390911617815589830151600182015589820151600282015560608a0151600382015560808a0151600482015560a08a0151600582015560c08a0151600682015560e08a01516007909101805460ff1916911515919091179055878352600d90915281208054929c50839290919061118390849061239e565b90915550506040805182815260208101869052879133917f9cdcf2f7714cca3508c7f0110b04a90a80a3a8dd0e35de99689db74d28c5383e910160405180910390a35050505050505b6111d581612366565b9050610f52565b508215611217576112176001600160a01b037f0000000000000000000000000000000000000000000000000000000000000000163385611c96565b505050505b6112266001600255565b5050565b6008818154811061123a57600080fd5b60009182526020909120600290910201805460019091015490915082565b6112606114d1565b600081815260096020526040902080546001600160a01b031633146112b95760405162461bcd60e51b815260206004820152600f60248201526e2737ba1039ba30b5b29037bbb732b960891b604482015260640161061c565b600781015460ff16156113015760405162461bcd60e51b815260206004820152601060248201526f105b1c9958591e481c995919595b595960821b604482015260640161061c565b80600401548160030154611315919061239e565b61131d61097d565b101561135f5760405162461bcd60e51b815260206004820152601160248201527014dd185ad9481b9bdd081b585d1d5c9959607a1b604482015260640161061c565b60078101805460ff191660019081179091556002820154908201546000908152600a6020526040812080549091906113989084906123b1565b909155505060028101546113d8906001600160a01b037f000000000000000000000000000000000000000000000000000000000000000016903390611c96565b604051829033907f4896181ff8f4543cc00db9fe9b6fb7e6f032b7eb772c72ab1ec1b4d2e03b936990600090a3506107556001600255565b611418611a3d565b600180546001600160a01b0383166001600160a01b031990911681179091556114496000546001600160a01b031690565b6001600160a01b03167f38d16b8cac22d99fc7c124b9cd0de2d3fa1faef420bfe791d8c362d765e2270060405160405180910390a350565b600080546001600160a01b038381166001600160a01b0319831681178455604051919092169283917f8be0079c531659141344cd1fd0a4f28419497f9722a3daafe3b4186f6b6457e09190a35050565b60028054036115225760405162461bcd60e51b815260206004820152601f60248201527f5265656e7472616e637947756172643a207265656e7472616e742063616c6c00604482015260640161061c565b60028055565b6000611532825490565b92915050565b60006115448383611cf9565b9392505050565b60035481101561159d5760405162461bcd60e51b815260206004820152601a60248201527f42656c6f77206d696e696d756d207374616b6520616d6f756e74000000000000604482015260640161061c565b6004546000848152600a60205260409020546115ba90839061239e565b11156116085760405162461bcd60e51b815260206004820152601760248201527f45786365656473204e4654207374616b65206c696d6974000000000000000000604482015260640161061c565b600854821061164e5760405162461bcd60e51b8152602060048201526012602482015271496e76616c6964207374616b65207479706560701b604482015260640161061c565b6000838152600b60205260409020546001600160a01b03166117e4576040516331a9108f60e11b81526004810184905233906001600160a01b037f00000000000000000000000000000000000000000000000000000000000000001690636352211e90602401602060405180830381865afa1580156116d1573d6000803e3d6000fd5b505050506040513d601f19601f820116820180604052508101906116f591906123e6565b6001600160a01b03161461173b5760405162461bcd60e51b815260206004820152600d60248201526c2737ba1027232a1037bbb732b960991b604482015260640161061c565b604051632142170760e11b8152336004820152306024820152604481018490527f00000000000000000000000000000000000000000000000000000000000000006001600160a01b0316906342842e0e90606401600060405180830381600087803b1580156117a957600080fd5b505af11580156117bd573d6000803e3d6000fd5b5050506000848152600b6020526040902080546001600160a01b031916331790555061184a565b6000838152600b60205260409020546001600160a01b0316331461184a5760405162461bcd60e51b815260206004820152601b60248201527f4e46542062656c6f6e677320746f20616e6f7468657220757365720000000000604482015260640161061c565b6000838152600a60205260408120805483929061186890849061239e565b925050819055506000600883815481106118845761188461233a565b600091825260208083206040805180820190915260029093020180548352600101549082015291506118b461097d565b6007805491925060009190826118c983612366565b919050559050604051806101000160405280336001600160a01b03168152602001878152602001858152602001838152602001846000015181526020018460200151815260200160018461191d91906123b1565b815260006020918201819052838152600982526040808220845181546001600160a01b0319166001600160a01b03909116178155848401516001820155848201516002820155606085015160038201556080850151600482015560a0850151600582015560c0850151600682015560e0909401516007909401805460ff191694151594909417909355338152600c909152206119b99082611d23565b506119ef6001600160a01b037f000000000000000000000000000000000000000000000000000000000000000016333087611d2f565b825160408051888152602081018790528082019290925251829133917f9cfd25589d1eb8ad71e342a86a8524e83522e3936c0803048c08f6d9ad974f409181900360600190a3505050505050565b6000546001600160a01b03163314610a075760405162461bcd60e51b815260206004820181905260248201527f4f776e61626c653a2063616c6c6572206973206e6f7420746865206f776e6572604482015260640161061c565b600180546001600160a01b031916905561075581611481565b6000611aba61097d565b9050611ac76001826123b1565b60055410611ad25750565b600554600090611ae36001846123b1565b611aed91906123b1565b90506000611b1b827f000000000000000000000000000000000000000000000000000000000000000061237f565b6005546000908152600d6020526040902054600654919250907f000000000000000000000000000000000000000000000000000000000000000090611b6190849061239e565b1115611b9757600654611b94907f00000000000000000000000000000000000000000000000000000000000000006123b1565b91505b8160066000828254611ba9919061239e565b90915550611bba90506001856123b1565b60055581811015611c90576000611bd182846123b1565b604051630852cd8d60e31b8152600481018290529091507f00000000000000000000000000000000000000000000000000000000000000006001600160a01b0316906342966c6890602401600060405180830381600087803b158015611c3657600080fd5b505af1158015611c4a573d6000803e3d6000fd5b50505050600185611c5b91906123b1565b6040518281527f680a9523b78758cea84e0ee508df3bfc20df80ab55cf0bde8956e0c13e830cdf9060200160405180910390a2505b50505050565b6040516001600160a01b038316602482015260448101829052610e3990849063a9059cbb60e01b906064015b60408051601f198184030181529190526020810180516001600160e01b03166001600160e01b031990931692909217909152611d67565b6000826000018281548110611d1057611d1061233a565b9060005260206000200154905092915050565b60006115448383611e3c565b6040516001600160a01b0380851660248301528316604482015260648101829052611c909085906323b872dd60e01b90608401611cc2565b6000611dbc826040518060400160405280602081526020017f5361666545524332303a206c6f772d6c6576656c2063616c6c206661696c6564815250856001600160a01b0316611e8b9092919063ffffffff16565b9050805160001480611ddd575080806020019051810190611ddd9190612403565b610e395760405162461bcd60e51b815260206004820152602a60248201527f5361666545524332303a204552433230206f7065726174696f6e20646964206e6044820152691bdd081cdd58d8d9595960b21b606482015260840161061c565b6000818152600183016020526040812054611e8357508154600181810184556000848152602080822090930184905584548482528286019093526040902091909155611532565b506000611532565b6060610761848460008585600080866001600160a01b03168587604051611eb29190612449565b60006040518083038185875af1925050503d8060008114611eef576040519150601f19603f3d011682016040523d82523d6000602084013e611ef4565b606091505b5091509150611f0587838387611f10565b979650505050505050565b60608315611f7f578251600003611f78576001600160a01b0385163b611f785760405162461bcd60e51b815260206004820152601d60248201527f416464726573733a2063616c6c20746f206e6f6e2d636f6e7472616374000000604482015260640161061c565b5081610761565b6107618383815115611f945781518083602001fd5b8060405162461bcd60e51b815260040161061c9190612465565b600060208284031215611fc057600080fd5b5035919050565b6001600160a01b038116811461075557600080fd5b634e487b7160e01b600052604160045260246000fd5b6000806000806080858703121561200857600080fd5b843561201381611fc7565b9350602085013561202381611fc7565b925060408501359150606085013567ffffffffffffffff8082111561204757600080fd5b818701915087601f83011261205b57600080fd5b81358181111561206d5761206d611fdc565b604051601f8201601f19908116603f0116810190838211818310171561209557612095611fdc565b816040528281528a60208487010111156120ae57600080fd5b82602086016020830137600060208483010152809550505050505092959194509250565b6000602082840312156120e457600080fd5b813561154481611fc7565b6020808252825182820181905260009190848201906040850190845b818110156121275783518352928401929184019160010161210b565b50909695505050505050565b60008083601f84011261214557600080fd5b50813567ffffffffffffffff81111561215d57600080fd5b6020830191508360208260051b850101111561217857600080fd5b9250929050565b6000806000806000806060878903121561219857600080fd5b863567ffffffffffffffff808211156121b057600080fd5b6121bc8a838b01612133565b909850965060208901359150808211156121d557600080fd5b6121e18a838b01612133565b909650945060408901359150808211156121fa57600080fd5b5061220789828a01612133565b979a9699509497509295939492505050565b602080825282518282018190526000919060409081850190868401855b828110156122a457815180516001600160a01b0316855286810151878601528581015186860152606080820151908601526080808201519086015260a0808201519086015260c0808201519086015260e0908101511515908501526101009093019290850190600101612236565b5091979650505050505050565b6000806000606084860312156122c657600080fd5b833560ff811681146122d757600080fd5b95602085013595506040909401359392505050565b600080604083850312156122ff57600080fd5b50508035926020909101359150565b60008060006060848603121561232357600080fd5b505081359360208301359350604090920135919050565b634e487b7160e01b600052603260045260246000fd5b634e487b7160e01b600052601160045260246000fd5b60006001820161237857612378612350565b5060010190565b600081600019048311821515161561239957612399612350565b500290565b8082018082111561153257611532612350565b8181038181111561153257611532612350565b6000826123e157634e487b7160e01b600052601260045260246000fd5b500490565b6000602082840312156123f857600080fd5b815161154481611fc7565b60006020828403121561241557600080fd5b8151801515811461154457600080fd5b60005b83811015612440578181015183820152602001612428565b50506000910152565b6000825161245b818460208701612425565b9190910192915050565b6020815260008251806020840152612484816040850160208701612425565b601f01601f1916919091016040019291505056fea26469706673582212205feac49bbe9e69910d567f55bbf8ccfe1d39c1248eaf2b5360af48e70fc2623964736f6c63430008100033",
  "devdoc": {
    "kind": "dev",
    "methods": {
      "acceptOwnership()": {
        "details": "The new owner accepts the ownership transfer."
      },
      "onERC721Received(address,address,uint256,bytes)": {
        "details": "See {IERC721Receiver-onERC721Received}. Always returns `IERC721Receiver.onERC721Received.selector`."
      },
      "owner()": {
        "details": "Returns the address of the current owner."
      },
      "pendingOwner()": {
        "details": "Returns the address of the pending owner."
      },
      "renounceOwnership()": {
        "details": "Leaves the contract without owner. It will not be possible to call `onlyOwner` functions. Can only be called by the current owner. NOTE: Renouncing ownership will leave the contract without an owner, thereby disabling any functionality that is only available to the owner."
      },
      "transferOwnership(address)": {
        "details": "Starts the ownership transfer of the contract to a new account. Replaces the pending transfer if there is one. Can only be called by the current owner."
      }
    },
    "version": 1
  },
  "userdoc": {
    "kind": "user",
    "methods": {},
    "version": 1
  },
  "storageLayout": {
    "storage": [
      {
        "astId": 7,
        "contract": "contracts/FirVerseStake.sol:FirVerseStake",
        "label": "_owner",
        "offset": 0,
        "slot": "0",
        "type": "t_address"
      },
      {
        "astId": 120,
        "contract": "contracts/FirVerseStake.sol:FirVerseStake",
        "label": "_pendingOwner",
        "offset": 0,
        "slot": "1",
        "type": "t_address"
      },
      {
        "astId": 206,
        "contract": "contracts/FirVerseStake.sol:FirVerseStake",
        "label": "_status",
        "offset": 0,
        "slot": "2",
        "type": "t_uint256"
      },
      {
        "astId": 2596,
        "contract": "contracts/FirVerseStake.sol:FirVerseStake",
        "label": "minStakeAmount",
        "offset": 0,
        "slot": "3",
        "type": "t_uint256"
      },
      {
        "astId": 2599,
        "contract": "contracts/FirVerseStake.sol:FirVerseStake",
        "label": "maxStakePerNFT",
        "offset": 0,
        "slot": "4",
        "type": "t_uint256"
      },
      {
        "astId": 2601,
        "contract": "contracts/FirVerseStake.sol:FirVerseStake",
        "label": "lastBurnedDay",
        "offset": 0,
        "slot": "5",
        "type": "t_uint256"
      },
      {
        "astId": 2603,
        "contract": "contracts/FirVerseStake.sol:FirVerseStake",
        "label": "totalUnlocked",
        "offset": 0,
        "slot": "6",
        "type": "t_uint256"
      },
      {
        "astId": 2605,
        "contract": "contracts/FirVerseStake.sol:FirVerseStake",
        "label": "stakeCounter",
        "offset": 0,
        "slot": "7",
        "type": "t_uint256"
      },
      {
        "astId": 2631,
        "contract": "contracts/FirVerseStake.sol:FirVerseStake",
        "label": "stakeTypes",
        "offset": 0,
        "slot": "8",
        "type": "t_array(t_struct(StakeType)2610_storage)dyn_storage"
      },
      {
        "astId": 2636,
        "contract": "contracts/FirVerseStake.sol:FirVerseStake",
        "label": "stakes",
        "offset": 0,
        "slot": "9",
        "type": "t_mapping(t_uint256,t_struct(StakeInfo)2627_storage)"
      },
      {
        "astId": 2640,
        "contract": "contracts/FirVerseStake.sol:FirVerseStake",
        "label": "nftStakedAmount",
        "offset": 0,
        "slot": "10",
        "type": "t_mapping(t_uint256,t_uint256)"
      },
      {
        "astId": 2644,
        "contract": "contracts/FirVerseStake.sol:FirVerseStake",
        "label": "nftOwner",
        "offset": 0,
        "slot": "11",
        "type": "t_mapping(t_uint256,t_address)"
      },
      {
        "astId": 2649,
        "contract": "contracts/FirVerseStake.sol:FirVerseStake",
        "label": "userStakes",
        "offset": 0,
        "slot": "12",
        "type": "t_mapping(t_address,t_struct(UintSet)2422_storage)"
      },
      {
        "astId": 2653,
        "contract": "contracts/FirVerseStake.sol:FirVerseStake",
        "label": "dailyClaimed",
        "offset": 0,
        "slot": "13",
        "type": "t_mapping(t_uint256,t_uint256)"
      }
    ],
    "types": {
      "t_address": {
        "encoding": "inplace",
        "label": "address",
        "numberOfBytes": "20"
      },
      "t_array(t_bytes32)dyn_storage": {
        "base": "t_bytes32",
        "encoding": "dynamic_array",
        "label": "bytes32[]",
        "numberOfBytes": "32"
      },
      "t_array(t_struct(StakeType)2610_storage)dyn_storage": {
        "base": "t_struct(StakeType)2610_storage",
        "encoding": "dynamic_array",
        "label": "struct FirVerseStake.StakeType[]",
        "numberOfBytes": "32"
      },
      "t_bool": {
        "encoding": "inplace",
        "label": "bool",
        "numberOfBytes": "1"
      },
      "t_bytes32": {
        "encoding": "inplace",
        "label": "bytes32",
        "numberOfBytes": "32"
      },
      "t_mapping(t_address,t_struct(UintSet)2422_storage)": {
        "encoding": "mapping",
        "key": "t_address",
        "label": "mapping(address => struct EnumerableSet.UintSet)",
        "numberOfBytes": "32",
        "value": "t_struct(UintSet)2422_storage"
      },
      "t_mapping(t_bytes32,t_uint256)": {
        "encoding": "mapping",
        "key": "t_bytes32",
        "label": "mapping(bytes32 => uint256)",
        "numberOfBytes": "32",
        "value": "t_uint256"
      },
      "t_mapping(t_uint256,t_address)": {
        "encoding": "mapping",
        "key": "t_uint256",
        "label": "mapping(uint256 => address)",
        "numberOfBytes": "32",
        "value": "t_address"
      },
      "t_mapping(t_uint256,t_struct(StakeInfo)2627_storage)": {
        "encoding": "mapping",
        "key": "t_uint256",
        "label": "mapping(uint256 => struct FirVerseStake.StakeInfo)",
        "numberOfBytes": "32",
        "value": "t_struct(StakeInfo)2627_storage"
      },
      "t_mapping(t_uint256,t_uint256)": {
        "encoding": "mapping",
        "key": "t_uint256",
        "label": "mapping(uint256 => uint256)",
        "numberOfBytes": "32",
        "value": "t_uint256"
      },
      "t_struct(Set)1950_storage": {
        "encoding": "inplace",
        "label": "struct EnumerableSet.Set",
        "members": [
          {
            "astId": 1945,
            "contract": "contracts/FirVerseStake.sol:FirVerseStake",
            "label": "_values",
            "offset": 0,
            "slot": "0",
            "type": "t_array(t_bytes32)dyn_storage"
          },
          {
            "astId": 1949,
            "contract": "contracts/FirVerseStake.sol:FirVerseStake",
            "label": "_indexes",
            "offset": 0,
            "slot": "1",
            "type": "t_mapping(t_bytes32,t_uint256)"
          }
        ],
        "numberOfBytes": "64"
      },
      "t_struct(StakeInfo)2627_storage": {
        "encoding": "inplace",
        "label": "struct FirVerseStake.StakeInfo",
        "members": [
          {
            "astId": 2612,
            "contract": "contracts/FirVerseStake.sol:FirVerseStake",
            "label": "owner",
            "offset": 0,
            "slot": "0",
            "type": "t_address"
          },
          {
            "astId": 2614,
            "contract": "contracts/FirVerseStake.sol:FirVerseStake",
            "label": "nftId",
            "offset": 0,
            "slot": "1",
            "type": "t_uint256"
          },
          {
            "astId": 2616,
            "contract": "contracts/FirVerseStake.sol:FirVerseStake",
            "label": "amount",
            "offset": 0,
            "slot": "2",
            "type": "t_uint256"
          },
          {
            "astId": 2618,
            "contract": "contracts/FirVerseStake.sol:FirVerseStake",
            "label": "startDay",
            "offset": 0,
            "slot": "3",
            "type": "t_uint256"
          },
          {
            "astId": 2620,
            "contract": "contracts/FirVerseStake.sol:FirVerseStake",
            "label": "lockDays",
            "offset": 0,
            "slot": "4",
            "type": "t_uint256"
          },
          {
            "astId": 2622,
            "contract": "contracts/FirVerseStake.sol:FirVerseStake",
            "label": "rewardRate",
            "offset": 0,
            "slot": "5",
            "type": "t_uint256"
          },
          {
            "astId": 2624,
            "contract": "contracts/FirVerseStake.sol:FirVerseStake",
            "label": "claimedDay",
            "offset": 0,
            "slot": "6",
            "type": "t_uint256"
          },
          {
            "astId": 2626,
            "contract": "contracts/FirVerseStake.sol:FirVerseStake",
            "label": "redeemed",
            "offset": 0,
            "slot": "7",
            "type": "t_bool"
          }
        ],
        "numberOfBytes": "256"
      },
      "t_struct(StakeType)2610_storage": {
        "encoding": "inplace",
        "label": "struct FirVerseStake.StakeType",
        "members": [
          {
            "astId": 2607,
            "contract": "contracts/FirVerseStake.sol:FirVerseStake",
            "label": "lockDays",
            "offset": 0,
            "slot": "0",
            "type": "t_uint256"
          },
          {
            "astId": 2609,
            "contract": "contracts/FirVerseStake.sol:FirVerseStake",
            "label": "rewardRate",
            "offset": 0,
            "slot": "1",
            "type": "t_uint256"
          }
        ],
        "numberOfBytes": "64"
      },
      "t_struct(UintSet)2422_storage": {
        "encoding": "inplace",
        "label": "struct EnumerableSet.UintSet",
        "members": [
          {
            "astId": 2421,
            "contract": "contracts/FirVerseStake.sol:FirVerseStake",
            "label": "_inner",
            "offset": 0,
            "slot": "0",
            "type": "t_struct(Set)1950_storage"
          }
        ],
        "numberOfBytes": "64"
      },
      "t_uint256": {
        "encoding": "inplace",
        "label": "uint256",
        "numberOfBytes": "32"
      }
    }
  }
}