{
  "address": "0x64D68A5119deB4b5f858E1c032D9e7E77eE53685",
  "abi": [
    {
      "inputs": [
        {
          "internalType": "address",
          "name": "vboxNFT_",
          "type": "address"
        },
        {
          "internalType": "address",
          "name": "firToken_",
          "type": "address"
        },
        {
          "internalType": "uint256",
          "name": "startTimestamp_",
          "type": "uint256"
        },
        {
          "internalType": "uint256",
          "name": "totalReward_",
          "type": "uint256"
        }
      ],
      "stateMutability": "nonpayable",
      "type": "constructor"
    },
    {
      "anonymous": false,
      "inputs": [
        {
          "indexed": true,
          "internalType": "address",
          "name": "user",
          "type": "address"
        },
        {
          "indexed": false,
          "internalType": "uint256",
          "name": "reward",
          "type": "uint256"
        },
        {
          "indexed": false,
          "internalType": "uint256",
          "name": "day",
          "type": "uint256"
        }
      ],
      "name": "Claimed",
      "type": "event"
    },
    {
      "anonymous": false,
      "inputs": [
        {
          "indexed": true,
          "internalType": "uint256",
          "name": "day",
          "type": "uint256"
        },
        {
          "indexed": false,
          "internalType": "uint256",
          "name": "amount",
          "type": "uint256"
        }
      ],
      "name": "DailyBurned",
      "type": "event"
    },
    {
      "anonymous": false,
      "inputs": [
        {
          "indexed": true,
          "internalType": "address",
          "name": "user",
          "type": "address"
        },
        {
          "indexed": false,
          "internalType": "uint256",
          "name": "nftId",
          "type": "uint256"
        }
      ],
      "name": "NFTWithdrawn",
      "type": "event"
    },
    {
      "anonymous": false,
      "inputs": [
        {
          "indexed": true,
          "internalType": "address",
          "name": "previousOwner",
          "type": "address"
        },
        {
          "indexed": true,
          "internalType": "address",
          "name": "newOwner",
          "type": "address"
        }
      ],
      "name": "OwnershipTransferStarted",
      "type": "event"
    },
    {
      "anonymous": false,
      "inputs": [
        {
          "indexed": true,
          "internalType": "address",
          "name": "previousOwner",
          "type": "address"
        },
        {
          "indexed": true,
          "internalType": "address",
          "name": "newOwner",
          "type": "address"
        }
      ],
      "name": "OwnershipTransferred",
      "type": "event"
    },
    {
      "anonymous": false,
      "inputs": [
        {
          "indexed": true,
          "internalType": "address",
          "name": "user",
          "type": "address"
        },
        {
          "indexed": true,
          "internalType": "uint256",
          "name": "stakeId",
          "type": "uint256"
        }
      ],
      "name": "Redeemed",
      "type": "event"
    },
    {
      "anonymous": false,
      "inputs": [
        {
          "indexed": false,
          "internalType": "uint8",
          "name": "index",
          "type": "uint8"
        },
        {
          "indexed": false,
          "internalType": "uint256",
          "name": "lockDays",
          "type": "uint256"
        },
        {
          "indexed": false,
          "internalType": "uint256",
          "name": "rewardRate",
          "type": "uint256"
        }
      ],
      "name": "StakeTypeUpdated",
      "type": "event"
    },
    {
      "anonymous": false,
      "inputs": [
        {
          "indexed": true,
          "internalType": "address",
          "name": "user",
          "type": "address"
        },
        {
          "indexed": true,
          "internalType": "uint256",
          "name": "stakeId",
          "type": "uint256"
        },
        {
          "indexed": false,
          "internalType": "uint256",
          "name": "nftId",
          "type": "uint256"
        },
        {
          "indexed": false,
          "internalType": "uint256",
          "name": "amount",
          "type": "uint256"
        },
        {
          "indexed": false,
          "internalType": "uint256",
          "name": "lockDays",
          "type": "uint256"
        }
      ],
      "name": "Staked",
      "type": "event"
    },
    {
      "inputs": [],
      "name": "BASIS_POINTS_DIVISOR",
      "outputs": [
        {
          "internalType": "uint256",
          "name": "",
          "type": "uint256"
        }
      ],
      "stateMutability": "view",
      "type": "function"
    },
    {
      "inputs": [],
      "name": "TOTAL_DAYS",
      "outputs": [
        {
          "internalType": "uint256",
          "name": "",
          "type": "uint256"
        }
      ],
      "stateMutability": "view",
      "type": "function"
    },
    {
      "inputs": [],
      "name": "acceptOwnership",
      "outputs": [],
      "stateMutability": "nonpayable",
      "type": "function"
    },
    {
      "inputs": [
        {
          "internalType": "uint256",
          "name": "lockDays",
          "type": "uint256"
        },
        {
          "internalType": "uint256",
          "name": "rewardRate",
          "type": "uint256"
        }
      ],
      "name": "addStakeType",
      "outputs": [],
      "stateMutability": "nonpayable",
      "type": "function"
    },
    {
      "inputs": [
        {
          "internalType": "uint256[]",
          "name": "nftIdArr",
          "type": "uint256[]"
        },
        {
          "internalType": "uint256[]",
          "name": "stakeTypeArr",
          "type": "uint256[]"
        },
        {
          "internalType": "uint256[]",
          "name": "amountArr",
          "type": "uint256[]"
        }
      ],
      "name": "batchStake",
      "outputs": [],
      "stateMutability": "nonpayable",
      "type": "function"
    },
    {
      "inputs": [
        {
          "internalType": "uint256",
          "name": "dailyTotalReward",
          "type": "uint256"
        },
        {
          "internalType": "bytes32[]",
          "name": "proof",
          "type": "bytes32[]"
        }
      ],
      "name": "claim",
      "outputs": [],
      "stateMutability": "nonpayable",
      "type": "function"
    },
    {
      "inputs": [
        {
          "internalType": "uint256",
          "name": "",
          "type": "uint256"
        }
      ],
      "name": "dailyClaimed",
      "outputs": [
        {
          "internalType": "uint256",
          "name": "",
          "type": "uint256"
        }
      ],
      "stateMutability": "view",
      "type": "function"
    },
    {
      "inputs": [
        {
          "internalType": "uint256",
          "name": "",
          "type": "uint256"
        }
      ],
      "name": "dailyRewardRoot",
      "outputs": [
        {
          "internalType": "bytes32",
          "name": "",
          "type": "bytes32"
        }
      ],
      "stateMutability": "view",
      "type": "function"
    },
    {
      "inputs": [],
      "name": "dailyUnlock",
      "outputs": [
        {
          "internalType": "uint256",
          "name": "",
          "type": "uint256"
        }
      ],
      "stateMutability": "view",
      "type": "function"
    },
    {
      "inputs": [],
      "name": "firToken",
      "outputs": [
        {
          "internalType": "contract ERC20Burnable",
          "name": "",
          "type": "address"
        }
      ],
      "stateMutability": "view",
      "type": "function"
    },
    {
      "inputs": [],
      "name": "getCurrentDay",
      "outputs": [
        {
          "internalType": "uint256",
          "name": "",
          "type": "uint256"
        }
      ],
      "stateMutability": "view",
      "type": "function"
    },
    {
      "inputs": [
        {
          "internalType": "address",
          "name": "user",
          "type": "address"
        }
      ],
      "name": "getUserStakeIds",
      "outputs": [
        {
          "internalType": "uint256[]",
          "name": "ids",
          "type": "uint256[]"
        }
      ],
      "stateMutability": "view",
      "type": "function"
    },
    {
      "inputs": [
        {
          "internalType": "address",
          "name": "user",
          "type": "address"
        }
      ],
      "name": "getUserStakes",
      "outputs": [
        {
          "components": [
            {
              "internalType": "address",
              "name": "owner",
              "type": "address"
            },
            {
              "internalType": "uint256",
              "name": "nftId",
              "type": "uint256"
            },
            {
              "internalType": "uint256",
              "name": "amount",
              "type": "uint256"
            },
            {
              "internalType": "uint256",
              "name": "startDay",
              "type": "uint256"
            },
            {
              "internalType": "uint256",
              "name": "lockDays",
              "type": "uint256"
            },
            {
              "internalType": "uint256",
              "name": "rewardRate",
              "type": "uint256"
            },
            {
              "internalType": "bool",
              "name": "redeemed",
              "type": "bool"
            }
          ],
          "internalType": "struct FirVerseStake.StakeInfo[]",
          "name": "infos",
          "type": "tuple[]"
        }
      ],
      "stateMutability": "view",
      "type": "function"
    },
    {
      "inputs": [],
      "name": "lastBurnedDay",
      "outputs": [
        {
          "internalType": "uint256",
          "name": "",
          "type": "uint256"
        }
      ],
      "stateMutability": "view",
      "type": "function"
    },
    {
      "inputs": [],
      "name": "maxStakePerNFT",
      "outputs": [
        {
          "internalType": "uint256",
          "name": "",
          "type": "uint256"
        }
      ],
      "stateMutability": "view",
      "type": "function"
    },
    {
      "inputs": [],
      "name": "minStakeAmount",
      "outputs": [
        {
          "internalType": "uint256",
          "name": "",
          "type": "uint256"
        }
      ],
      "stateMutability": "view",
      "type": "function"
    },
    {
      "inputs": [
        {
          "internalType": "uint256",
          "name": "",
          "type": "uint256"
        }
      ],
      "name": "nftOwner",
      "outputs": [
        {
          "internalType": "address",
          "name": "",
          "type": "address"
        }
      ],
      "stateMutability": "view",
      "type": "function"
    },
    {
      "inputs": [
        {
          "internalType": "uint256",
          "name": "",
          "type": "uint256"
        }
      ],
      "name": "nftStakedAmount",
      "outputs": [
        {
          "internalType": "uint256",
          "name": "",
          "type": "uint256"
        }
      ],
      "stateMutability": "view",
      "type": "function"
    },
    {
      "inputs": [
        {
          "internalType": "address",
          "name": "",
          "type": "address"
        },
        {
          "internalType": "address",
          "name": "",
          "type": "address"
        },
        {
          "internalType": "uint256",
          "name": "",
          "type": "uint256"
        },
        {
          "internalType": "bytes",
          "name": "",
          "type": "bytes"
        }
      ],
      "name": "onERC721Received",
      "outputs": [
        {
          "internalType": "bytes4",
          "name": "",
          "type": "bytes4"
        }
      ],
      "stateMutability": "nonpayable",
      "type": "function"
    },
    {
      "inputs": [],
      "name": "owner",
      "outputs": [
        {
          "internalType": "address",
          "name": "",
          "type": "address"
        }
      ],
      "stateMutability": "view",
      "type": "function"
    },
    {
      "inputs": [],
      "name": "pendingOwner",
      "outputs": [
        {
          "internalType": "address",
          "name": "",
          "type": "address"
        }
      ],
      "stateMutability": "view",
      "type": "function"
    },
    {
      "inputs": [
        {
          "internalType": "uint256",
          "name": "stakeId",
          "type": "uint256"
        }
      ],
      "name": "redeem",
      "outputs": [],
      "stateMutability": "nonpayable",
      "type": "function"
    },
    {
      "inputs": [],
      "name": "renounceOwnership",
      "outputs": [],
      "stateMutability": "nonpayable",
      "type": "function"
    },
    {
      "inputs": [
        {
          "internalType": "uint256",
          "name": "day",
          "type": "uint256"
        },
        {
          "internalType": "bytes32",
          "name": "root",
          "type": "bytes32"
        }
      ],
      "name": "setMerkleRoot",
      "outputs": [],
      "stateMutability": "nonpayable",
      "type": "function"
    },
    {
      "inputs": [
        {
          "internalType": "uint256",
          "name": "minAmount",
          "type": "uint256"
        },
        {
          "internalType": "uint256",
          "name": "maxAmount",
          "type": "uint256"
        }
      ],
      "name": "setStakeAmountLimits",
      "outputs": [],
      "stateMutability": "nonpayable",
      "type": "function"
    },
    {
      "inputs": [
        {
          "internalType": "uint256",
          "name": "nftId",
          "type": "uint256"
        },
        {
          "internalType": "uint256",
          "name": "stakeTypeId",
          "type": "uint256"
        },
        {
          "internalType": "uint256",
          "name": "amount",
          "type": "uint256"
        }
      ],
      "name": "stake",
      "outputs": [],
      "stateMutability": "nonpayable",
      "type": "function"
    },
    {
      "inputs": [],
      "name": "stakeCounter",
      "outputs": [
        {
          "internalType": "uint256",
          "name": "",
          "type": "uint256"
        }
      ],
      "stateMutability": "view",
      "type": "function"
    },
    {
      "inputs": [
        {
          "internalType": "uint256",
          "name": "",
          "type": "uint256"
        }
      ],
      "name": "stakeTypes",
      "outputs": [
        {
          "internalType": "uint256",
          "name": "lockDays",
          "type": "uint256"
        },
        {
          "internalType": "uint256",
          "name": "rewardRate",
          "type": "uint256"
        }
      ],
      "stateMutability": "view",
      "type": "function"
    },
    {
      "inputs": [
        {
          "internalType": "uint256",
          "name": "",
          "type": "uint256"
        }
      ],
      "name": "stakes",
      "outputs": [
        {
          "internalType": "address",
          "name": "owner",
          "type": "address"
        },
        {
          "internalType": "uint256",
          "name": "nftId",
          "type": "uint256"
        },
        {
          "internalType": "uint256",
          "name": "amount",
          "type": "uint256"
        },
        {
          "internalType": "uint256",
          "name": "startDay",
          "type": "uint256"
        },
        {
          "internalType": "uint256",
          "name": "lockDays",
          "type": "uint256"
        },
        {
          "internalType": "uint256",
          "name": "rewardRate",
          "type": "uint256"
        },
        {
          "internalType": "bool",
          "name": "redeemed",
          "type": "bool"
        }
      ],
      "stateMutability": "view",
      "type": "function"
    },
    {
      "inputs": [],
      "name": "startTimestamp",
      "outputs": [
        {
          "internalType": "uint256",
          "name": "",
          "type": "uint256"
        }
      ],
      "stateMutability": "view",
      "type": "function"
    },
    {
      "inputs": [],
      "name": "totalReward",
      "outputs": [
        {
          "internalType": "uint256",
          "name": "",
          "type": "uint256"
        }
      ],
      "stateMutability": "view",
      "type": "function"
    },
    {
      "inputs": [],
      "name": "totalUnlocked",
      "outputs": [
        {
          "internalType": "uint256",
          "name": "",
          "type": "uint256"
        }
      ],
      "stateMutability": "view",
      "type": "function"
    },
    {
      "inputs": [
        {
          "internalType": "address",
          "name": "newOwner",
          "type": "address"
        }
      ],
      "name": "transferOwnership",
      "outputs": [],
      "stateMutability": "nonpayable",
      "type": "function"
    },
    {
      "inputs": [
        {
          "internalType": "uint8",
          "name": "index",
          "type": "uint8"
        },
        {
          "internalType": "uint256",
          "name": "newLockDays",
          "type": "uint256"
        },
        {
          "internalType": "uint256",
          "name": "newRewardRate",
          "type": "uint256"
        }
      ],
      "name": "updateStakeType",
      "outputs": [],
      "stateMutability": "nonpayable",
      "type": "function"
    },
    {
      "inputs": [
        {
          "internalType": "address",
          "name": "",
          "type": "address"
        },
        {
          "internalType": "uint256",
          "name": "",
          "type": "uint256"
        }
      ],
      "name": "userDailyClaimed",
      "outputs": [
        {
          "internalType": "uint256",
          "name": "",
          "type": "uint256"
        }
      ],
      "stateMutability": "view",
      "type": "function"
    },
    {
      "inputs": [],
      "name": "vboxNFT",
      "outputs": [
        {
          "internalType": "contract IERC721",
          "name": "",
          "type": "address"
        }
      ],
      "stateMutability": "view",
      "type": "function"
    },
    {
      "inputs": [
        {
          "internalType": "uint256",
          "name": "nftId",
          "type": "uint256"
        }
      ],
      "name": "withdrawNFT",
      "outputs": [],
      "stateMutability": "nonpayable",
      "type": "function"
    }
  ],
  "transactionHash": "0x564b75e285f32c58febba0002b9e498608a67d478901e74b64340f5b6765dca7",
  "args": [
    "0x7d48776C4E05c3705289F661a4153f732f5D32c2",
    "0xF952F16a416dDc02574051Bf12d2a8604Ed10F47",
    1753920000,
    "3000000000000000000000000"
  ],
  "numDeployments": 5,
  "solcInputHash": "55855fe719b3d508d8a6a287d0880a9c",
  "bytecode": "0x610120604052670de0b6b3a7640000600355686c6b935b8bbd4000006004553480156200002b57600080fd5b5060405162002988380380620029888339810160408190526200004e91620002ce565b620000593362000237565b60016002556200006d62015180836200032c565b15620000bf5760405162461bcd60e51b815260206004820152601860248201527f53746172742074696d65206d7573742062652055544320300000000000000000604482015260640160405180910390fd5b6001600160a01b0380851660a052831660805260c082905260e0819052620000ea6101688262000343565b610100525050604080518082018252600f81526109c4602080830191825260088054600181810183556000838152955160029283027ff3f7a9fe364faab93b216da50a3214154f22a0a2b415b23a84c8169e8b636ee38181019290925595517ff3f7a9fe364faab93b216da50a3214154f22a0a2b415b23a84c8169e8b636ee49687015587518089018952602d815261138881870190815285548085018755868a52915191850280840192909255519087015587518089018952605a8152611d4c81870190815285548085018755868a5291519185028084019290925551908701558751808901895260b48152613a9881870190815285548085018755868a529151918502808401929092555190870155875180890190985261016888526161a89488019485528354918201845592909552945193909402938401929092559051910155506200035a9050565b600180546001600160a01b03191690556200025e8162000261602090811b620013e717901c565b50565b600080546001600160a01b038381166001600160a01b0319831681178455604051919092169283917f8be0079c531659141344cd1fd0a4f28419497f9722a3daafe3b4186f6b6457e09190a35050565b80516001600160a01b0381168114620002c957600080fd5b919050565b60008060008060808587031215620002e557600080fd5b620002f085620002b1565b93506200030060208601620002b1565b6040860151606090960151949790965092505050565b634e487b7160e01b600052601260045260246000fd5b6000826200033e576200033e62000316565b500690565b60008262000355576200035562000316565b500490565b60805160a05160c05160e05161010051612572620004166000396000818161040a01528181610968015261153101526000818161035f0152818161157f01526115bb01526000818161057201528181610b2e01528181610b9c01528181610c8101528181610cb60152818161103a01526110a801526000818161030f0152818161072d015281816118bc015261198f0152600081816105be015281816109f001528181611316015281816116350152611bc001526125726000f3fe608060405234801561001057600080fd5b50600436106102275760003560e01c80639a654cb311610130578063db006a75116100b8578063f2fde38b1161007c578063f2fde38b1461059d578063f7b17d10146105b0578063f95d8f02146105b9578063fd731837146105e0578063fe773fc51461060957600080fd5b8063db006a7514610529578063e167e4571461053c578063e30c39781461055c578063e6fd48bc1461056d578063f18876841461059457600080fd5b8063b6d5f0f2116100ff578063b6d5f0f21461042c578063b94070d51461044c578063c082a42c1461045f578063cf251c9214610468578063d5a44f861461049057600080fd5b80639a654cb3146103d6578063a638f2e2146103e9578063a779d080146103fc578063b491940c1461040557600080fd5b806347921e33116101b357806379ba50971161018257806379ba509714610381578063842e2981146103895780638da5cb5b146103a957806397d5932a146103ba578063982dfdd1146103cd57600080fd5b806347921e331461030a57806357980a4314610349578063715018a614610352578063750142e61461035a57600080fd5b80632f52ebb7116101fa5780632f52ebb71461029c578063313da78f146102af5780633a180ef6146102cf5780633df25e35146102e25780633e6968b61461030257600080fd5b8063023245d71461022c578063126082cf14610241578063150b7a021461025d57806318712c2114610289575b600080fd5b61023f61023a366004611fe5565b610634565b005b61024a61271081565b6040519081526020015b60405180910390f35b61027061026b366004612029565b6107cb565b6040516001600160e01b03199091168152602001610254565b61023f610297366004612109565b6107dc565b61023f6102aa366004612177565b6107f6565b6102c26102bd3660046121c3565b610a69565b60405161025491906121e0565b61023f6102dd366004612224565b610b24565b61024a6102f0366004611fe5565b600f6020526000908152604090205481565b61024a610c7d565b6103317f000000000000000000000000000000000000000000000000000000000000000081565b6040516001600160a01b039091168152602001610254565b61024a61016881565b61023f610cea565b61024a7f000000000000000000000000000000000000000000000000000000000000000081565b61023f610cfe565b61039c6103973660046121c3565b610d75565b60405161025491906122be565b6000546001600160a01b0316610331565b61023f6103c836600461234b565b610eef565b61024a60055481565b61023f6103e4366004612109565b610fd1565b61023f6103f7366004612386565b611030565b61024a60065481565b61024a7f000000000000000000000000000000000000000000000000000000000000000081565b61024a61043a366004611fe5565b600a6020526000908152604090205481565b61023f61045a366004612109565b611111565b61024a60045481565b61047b610476366004611fe5565b611191565b60408051928352602083019190915201610254565b6104e861049e366004611fe5565b60096020526000908152604090208054600182015460028301546003840154600485015460058601546006909601546001600160a01b039095169593949293919290919060ff1687565b604080516001600160a01b0390981688526020880196909652948601939093526060850191909152608084015260a0830152151560c082015260e001610254565b61023f610537366004611fe5565b6111bf565b61024a61054a366004611fe5565b600d6020526000908152604090205481565b6001546001600160a01b0316610331565b61024a7f000000000000000000000000000000000000000000000000000000000000000081565b61024a60035481565b61023f6105ab3660046121c3565b611376565b61024a60075481565b6103317f000000000000000000000000000000000000000000000000000000000000000081565b6103316105ee366004611fe5565b600b602052600090815260409020546001600160a01b031681565b61024a6106173660046123b2565b600e60209081526000928352604080842090915290825290205481565b61063c611437565b6000818152600b60205260409020546001600160a01b031633146106985760405162461bcd60e51b815260206004820152600e60248201526d2737ba1027232a1039ba30b5b2b960911b60448201526064015b60405180910390fd5b6000818152600a6020526040902054156106e75760405162461bcd60e51b815260206004820152601060248201526f4e4654207374696c6c20696e2075736560801b604482015260640161068f565b6000818152600b60205260409081902080546001600160a01b031916905551632142170760e11b8152306004820152336024820152604481018290526001600160a01b037f000000000000000000000000000000000000000000000000000000000000000016906342842e0e90606401600060405180830381600087803b15801561077157600080fd5b505af1158015610785573d6000803e3d6000fd5b50506040518381523392507f2aa1b4c95f3b2da9c955947fca584743ea0d457708fadf209c093061e98c4ccb915060200160405180910390a26107c86001600255565b50565b630a85bd0160e11b5b949350505050565b6107e461148e565b6000918252600f602052604090912055565b6107fe611437565b6108066114e8565b6000610810610c7d565b90506101688111156108225750610a5a565b80806108635760405162461bcd60e51b815260206004820152601060248201526f14995dd85c99081b9bdd081cdd185c9d60821b604482015260640161068f565b6040516bffffffffffffffffffffffff193360601b166020820152603481018690526000906054016040516020818303038152906040528051906020012090506108ee8585808060200260200160405190810160405280939291908181526020018383602002808284376000920182905250878152600f602052604090205492508591506116e19050565b61092a5760405162461bcd60e51b815260206004820152600d60248201526c24b73b30b634b210383937b7b360991b604482015260640161068f565b336000908152600e6020908152604080832085845290915281205461094f90886123f4565b6000848152600d60205260408120549192509061098c907f00000000000000000000000000000000000000000000000000000000000000006123f4565b9050600081831161099d578261099f565b815b336000908152600e602090815260408083208984528252808320849055600d9091528120805492935083929091906109d8908490612407565b90915550508015610a5357610a176001600160a01b037f00000000000000000000000000000000000000000000000000000000000000001633836116f7565b604080518281526020810187905233917f987d620f307ff6b94d58743cb7a7509f24071586a77759b77c2d4e29f75a2f9a910160405180910390a25b5050505050505b610a646001600255565b505050565b6001600160a01b0381166000908152600c60205260409020606090610a8d8161175a565b67ffffffffffffffff811115610aa557610aa5612013565b604051908082528060200260200182016040528015610ace578160200160208202803683370190505b50915060005b610add8261175a565b811015610b1d57610aee828261176a565b838281518110610b0057610b0061241a565b602090810291909101015280610b1581612430565b915050610ad4565b5050919050565b610b2c611437565b7f00000000000000000000000000000000000000000000000000000000000000004211610b875760405162461bcd60e51b8152602060048201526009602482015268139bdd081cdd185c9d60ba1b604482015260640161068f565b610b9661016862015180612449565b610bc0907f0000000000000000000000000000000000000000000000000000000000000000612407565b4210610bfa5760405162461bcd60e51b815260206004820152600960248201526814dd185ad948195b9960ba1b604482015260640161068f565b60005b85811015610c6a57610c58878783818110610c1a57610c1a61241a565b90506020020135868684818110610c3357610c3361241a565b90506020020135858585818110610c4c57610c4c61241a565b9050602002013561177d565b80610c6281612430565b915050610bfd565b50610c756001600255565b505050505050565b60007f0000000000000000000000000000000000000000000000000000000000000000421015610cad5750600090565b62015180610cdb7f0000000000000000000000000000000000000000000000000000000000000000426123f4565b610ce59190612468565b905090565b610cf261148e565b610cfc6000611c36565b565b60015433906001600160a01b03168114610d6c5760405162461bcd60e51b815260206004820152602960248201527f4f776e61626c6532537465703a2063616c6c6572206973206e6f7420746865206044820152683732bb9037bbb732b960b91b606482015260840161068f565b6107c881611c36565b6001600160a01b0381166000908152600c60205260409020606090610d998161175a565b67ffffffffffffffff811115610db157610db1612013565b604051908082528060200260200182016040528015610e2d57816020015b610e1a6040518060e0016040528060006001600160a01b0316815260200160008152602001600081526020016000815260200160008152602001600081526020016000151581525090565b815260200190600190039081610dcf5790505b50915060005b610e3c8261175a565b811015610b1d5760096000610e51848461176a565b81526020808201929092526040908101600020815160e08101835281546001600160a01b031681526001820154938101939093526002810154918301919091526003810154606083015260048101546080830152600581015460a08301526006015460ff16151560c08201528351849083908110610ed157610ed161241a565b60200260200101819052508080610ee790612430565b915050610e33565b610ef761148e565b60085460ff841610610f3b5760405162461bcd60e51b815260206004820152600d60248201526c092dcecc2d8d2c840d2dcc8caf609b1b604482015260640161068f565b60405180604001604052808381526020018281525060088460ff1681548110610f6657610f6661241a565b6000918252602091829020835160029290920201908155918101516001909201919091556040805160ff8616815291820184905281018290527f757b30a6dd6cc015927bf86b829a46795a18a58e4faeb6747cef69149e65561f9060600160405180910390a1505050565b610fd961148e565b600082118015610fe857508181115b6110255760405162461bcd60e51b815260206004820152600e60248201526d496e76616c6964206c696d69747360901b604482015260640161068f565b600391909155600455565b611038611437565b7f000000000000000000000000000000000000000000000000000000000000000042116110935760405162461bcd60e51b8152602060048201526009602482015268139bdd081cdd185c9d60ba1b604482015260640161068f565b6110a261016862015180612449565b6110cc907f0000000000000000000000000000000000000000000000000000000000000000612407565b42106111065760405162461bcd60e51b815260206004820152600960248201526814dd185ad948195b9960ba1b604482015260640161068f565b610a5a83838361177d565b61111961148e565b60408051808201909152918252602082019081526008805460018101825560009190915291517ff3f7a9fe364faab93b216da50a3214154f22a0a2b415b23a84c8169e8b636ee3600290930292830155517ff3f7a9fe364faab93b216da50a3214154f22a0a2b415b23a84c8169e8b636ee490910155565b600881815481106111a157600080fd5b60009182526020909120600290910201805460019091015490915082565b6111c7611437565b600081815260096020526040902080546001600160a01b031633146112205760405162461bcd60e51b815260206004820152600f60248201526e2737ba1039ba30b5b29037bbb732b960891b604482015260640161068f565b600681015460ff16156112685760405162461bcd60e51b815260206004820152601060248201526f105b1c9958591e481c995919595b595960821b604482015260640161068f565b8060040154816003015461127c9190612407565b611284610c7d565b116112c55760405162461bcd60e51b815260206004820152601160248201527014dd185ad9481b9bdd081b585d1d5c9959607a1b604482015260640161068f565b60068101805460ff191660019081179091556002820154908201546000908152600a6020526040812080549091906112fe9084906123f4565b9091555050600281015461133e906001600160a01b037f0000000000000000000000000000000000000000000000000000000000000000169033906116f7565b604051829033907f4896181ff8f4543cc00db9fe9b6fb7e6f032b7eb772c72ab1ec1b4d2e03b936990600090a3506107c86001600255565b61137e61148e565b600180546001600160a01b0383166001600160a01b031990911681179091556113af6000546001600160a01b031690565b6001600160a01b03167f38d16b8cac22d99fc7c124b9cd0de2d3fa1faef420bfe791d8c362d765e2270060405160405180910390a350565b600080546001600160a01b038381166001600160a01b0319831681178455604051919092169283917f8be0079c531659141344cd1fd0a4f28419497f9722a3daafe3b4186f6b6457e09190a35050565b60028054036114885760405162461bcd60e51b815260206004820152601f60248201527f5265656e7472616e637947756172643a207265656e7472616e742063616c6c00604482015260640161068f565b60028055565b6000546001600160a01b03163314610cfc5760405162461bcd60e51b815260206004820181905260248201527f4f776e61626c653a2063616c6c6572206973206e6f7420746865206f776e6572604482015260640161068f565b60006114f2610c7d565b90508060055460016115049190612407565b1061150c5750565b60055460009061151d6001846123f4565b61152791906123f4565b90506000611555827f0000000000000000000000000000000000000000000000000000000000000000612449565b90506000600d6000600554600161156c9190612407565b81526020019081526020016000205490507f0000000000000000000000000000000000000000000000000000000000000000826006546115ac9190612407565b11156115e2576006546115df907f00000000000000000000000000000000000000000000000000000000000000006123f4565b91505b81600660008282546115f49190612407565b9091555061160590506001856123f4565b600555818110156116db57600061161c82846123f4565b604051630852cd8d60e31b8152600481018290529091507f00000000000000000000000000000000000000000000000000000000000000006001600160a01b0316906342966c6890602401600060405180830381600087803b15801561168157600080fd5b505af1158015611695573d6000803e3d6000fd5b505050506001856116a691906123f4565b6040518281527f680a9523b78758cea84e0ee508df3bfc20df80ab55cf0bde8956e0c13e830cdf9060200160405180910390a2505b50505050565b6000826116ee8584611c4f565b14949350505050565b6040516001600160a01b038316602482015260448101829052610a6490849063a9059cbb60e01b906064015b60408051601f198184030181529190526020810180516001600160e01b03166001600160e01b031990931692909217909152611c9c565b6000611764825490565b92915050565b60006117768383611d71565b9392505050565b6003548110156117cf5760405162461bcd60e51b815260206004820152601a60248201527f42656c6f77206d696e696d756d207374616b6520616d6f756e74000000000000604482015260640161068f565b6004546000848152600a60205260409020546117ec908390612407565b111561183a5760405162461bcd60e51b815260206004820152601760248201527f45786365656473204e4654207374616b65206c696d6974000000000000000000604482015260640161068f565b60085482106118805760405162461bcd60e51b8152602060048201526012602482015271496e76616c6964207374616b65207479706560701b604482015260640161068f565b6000838152600b60205260409020546001600160a01b0316611a16576040516331a9108f60e11b81526004810184905233906001600160a01b037f00000000000000000000000000000000000000000000000000000000000000001690636352211e90602401602060405180830381865afa158015611903573d6000803e3d6000fd5b505050506040513d601f19601f82011682018060405250810190611927919061248a565b6001600160a01b03161461196d5760405162461bcd60e51b815260206004820152600d60248201526c2737ba1027232a1037bbb732b960991b604482015260640161068f565b604051632142170760e11b8152336004820152306024820152604481018490527f00000000000000000000000000000000000000000000000000000000000000006001600160a01b0316906342842e0e90606401600060405180830381600087803b1580156119db57600080fd5b505af11580156119ef573d6000803e3d6000fd5b5050506000848152600b6020526040902080546001600160a01b0319163317905550611a7c565b6000838152600b60205260409020546001600160a01b03163314611a7c5760405162461bcd60e51b815260206004820152601b60248201527f4e46542062656c6f6e677320746f20616e6f7468657220757365720000000000604482015260640161068f565b6000838152600a602052604081208054839290611a9a908490612407565b92505081905550600060088381548110611ab657611ab661241a565b60009182526020808320604080518082019091526002909302018054835260010154908201529150611ae6610c7d565b600780549192506000919082611afb83612430565b909155506040805160e0810182523380825260208083018b81528385018a8152606085018981528a51608087019081528b85015160a08801908152600060c089018181528b8252600988528a822099518a546001600160a01b0319166001600160a01b03909116178a55955160018a0155935160028901559151600388015551600487015551600586015590516006909401805460ff191694151594909417909355908252600c905220909150611bb29082611d9b565b50611be86001600160a01b037f000000000000000000000000000000000000000000000000000000000000000016333087611da7565b825160408051888152602081018790528082019290925251829133917f9cfd25589d1eb8ad71e342a86a8524e83522e3936c0803048c08f6d9ad974f409181900360600190a3505050505050565b600180546001600160a01b03191690556107c8816113e7565b600081815b8451811015611c9457611c8082868381518110611c7357611c7361241a565b6020026020010151611ddf565b915080611c8c81612430565b915050611c54565b509392505050565b6000611cf1826040518060400160405280602081526020017f5361666545524332303a206c6f772d6c6576656c2063616c6c206661696c6564815250856001600160a01b0316611e0e9092919063ffffffff16565b9050805160001480611d12575080806020019051810190611d1291906124a7565b610a645760405162461bcd60e51b815260206004820152602a60248201527f5361666545524332303a204552433230206f7065726174696f6e20646964206e6044820152691bdd081cdd58d8d9595960b21b606482015260840161068f565b6000826000018281548110611d8857611d8861241a565b9060005260206000200154905092915050565b60006117768383611e1d565b6040516001600160a01b03808516602483015283166044820152606481018290526116db9085906323b872dd60e01b90608401611723565b6000818310611dfb576000828152602084905260409020611776565b6000838152602083905260409020611776565b60606107d48484600085611e6c565b6000818152600183016020526040812054611e6457508154600181810184556000848152602080822090930184905584548482528286019093526040902091909155611764565b506000611764565b606082471015611ecd5760405162461bcd60e51b815260206004820152602660248201527f416464726573733a20696e73756666696369656e742062616c616e636520666f6044820152651c8818d85b1b60d21b606482015260840161068f565b600080866001600160a01b03168587604051611ee991906124ed565b60006040518083038185875af1925050503d8060008114611f26576040519150601f19603f3d011682016040523d82523d6000602084013e611f2b565b606091505b5091509150611f3c87838387611f47565b979650505050505050565b60608315611fb6578251600003611faf576001600160a01b0385163b611faf5760405162461bcd60e51b815260206004820152601d60248201527f416464726573733a2063616c6c20746f206e6f6e2d636f6e7472616374000000604482015260640161068f565b50816107d4565b6107d48383815115611fcb5781518083602001fd5b8060405162461bcd60e51b815260040161068f9190612509565b600060208284031215611ff757600080fd5b5035919050565b6001600160a01b03811681146107c857600080fd5b634e487b7160e01b600052604160045260246000fd5b6000806000806080858703121561203f57600080fd5b843561204a81611ffe565b9350602085013561205a81611ffe565b925060408501359150606085013567ffffffffffffffff8082111561207e57600080fd5b818701915087601f83011261209257600080fd5b8135818111156120a4576120a4612013565b604051601f8201601f19908116603f011681019083821181831017156120cc576120cc612013565b816040528281528a60208487010111156120e557600080fd5b82602086016020830137600060208483010152809550505050505092959194509250565b6000806040838503121561211c57600080fd5b50508035926020909101359150565b60008083601f84011261213d57600080fd5b50813567ffffffffffffffff81111561215557600080fd5b6020830191508360208260051b850101111561217057600080fd5b9250929050565b60008060006040848603121561218c57600080fd5b83359250602084013567ffffffffffffffff8111156121aa57600080fd5b6121b68682870161212b565b9497909650939450505050565b6000602082840312156121d557600080fd5b813561177681611ffe565b6020808252825182820181905260009190848201906040850190845b81811015612218578351835292840192918401916001016121fc565b50909695505050505050565b6000806000806000806060878903121561223d57600080fd5b863567ffffffffffffffff8082111561225557600080fd5b6122618a838b0161212b565b9098509650602089013591508082111561227a57600080fd5b6122868a838b0161212b565b9096509450604089013591508082111561229f57600080fd5b506122ac89828a0161212b565b979a9699509497509295939492505050565b602080825282518282018190526000919060409081850190868401855b8281101561233e57815180516001600160a01b0316855286810151878601528581015186860152606080820151908601526080808201519086015260a0808201519086015260c09081015115159085015260e090930192908501906001016122db565b5091979650505050505050565b60008060006060848603121561236057600080fd5b833560ff8116811461237157600080fd5b95602085013595506040909401359392505050565b60008060006060848603121561239b57600080fd5b505081359360208301359350604090920135919050565b600080604083850312156123c557600080fd5b82356123d081611ffe565b946020939093013593505050565b634e487b7160e01b600052601160045260246000fd5b81810381811115611764576117646123de565b80820180821115611764576117646123de565b634e487b7160e01b600052603260045260246000fd5b600060018201612442576124426123de565b5060010190565b6000816000190483118215151615612463576124636123de565b500290565b60008261248557634e487b7160e01b600052601260045260246000fd5b500490565b60006020828403121561249c57600080fd5b815161177681611ffe565b6000602082840312156124b957600080fd5b8151801515811461177657600080fd5b60005b838110156124e45781810151838201526020016124cc565b50506000910152565b600082516124ff8184602087016124c9565b9190910192915050565b60208152600082518060208401526125288160408501602087016124c9565b601f01601f1916919091016040019291505056fea26469706673582212209e82c3b72270caf17b09a818334a8655d3a5569f4fa6f8b4cead6a83d832d27f64736f6c63430008100033",
  "devdoc": {
    "kind": "dev",
    "methods": {
      "acceptOwnership()": {
        "details": "The new owner accepts the ownership transfer."
      },
      "onERC721Received(address,address,uint256,bytes)": {
        "details": "See {IERC721Receiver-onERC721Received}. Always returns `IERC721Receiver.onERC721Received.selector`."
      },
      "owner()": {
        "details": "Returns the address of the current owner."
      },
      "pendingOwner()": {
        "details": "Returns the address of the pending owner."
      },
      "renounceOwnership()": {
        "details": "Leaves the contract without owner. It will not be possible to call `onlyOwner` functions. Can only be called by the current owner. NOTE: Renouncing ownership will leave the contract without an owner, thereby disabling any functionality that is only available to the owner."
      },
      "transferOwnership(address)": {
        "details": "Starts the ownership transfer of the contract to a new account. Replaces the pending transfer if there is one. Can only be called by the current owner."
      }
    },
    "version": 1
  },
  "userdoc": {
    "kind": "user",
    "methods": {},
    "version": 1
  },
  "storageLayout": {
    "storage": [
      {
        "astId": 7,
        "contract": "contracts/FirVerseStake.sol:FirVerseStake",
        "label": "_owner",
        "offset": 0,
        "slot": "0",
        "type": "t_address"
      },
      {
        "astId": 120,
        "contract": "contracts/FirVerseStake.sol:FirVerseStake",
        "label": "_pendingOwner",
        "offset": 0,
        "slot": "1",
        "type": "t_address"
      },
      {
        "astId": 206,
        "contract": "contracts/FirVerseStake.sol:FirVerseStake",
        "label": "_status",
        "offset": 0,
        "slot": "2",
        "type": "t_uint256"
      },
      {
        "astId": 3125,
        "contract": "contracts/FirVerseStake.sol:FirVerseStake",
        "label": "minStakeAmount",
        "offset": 0,
        "slot": "3",
        "type": "t_uint256"
      },
      {
        "astId": 3128,
        "contract": "contracts/FirVerseStake.sol:FirVerseStake",
        "label": "maxStakePerNFT",
        "offset": 0,
        "slot": "4",
        "type": "t_uint256"
      },
      {
        "astId": 3130,
        "contract": "contracts/FirVerseStake.sol:FirVerseStake",
        "label": "lastBurnedDay",
        "offset": 0,
        "slot": "5",
        "type": "t_uint256"
      },
      {
        "astId": 3132,
        "contract": "contracts/FirVerseStake.sol:FirVerseStake",
        "label": "totalUnlocked",
        "offset": 0,
        "slot": "6",
        "type": "t_uint256"
      },
      {
        "astId": 3134,
        "contract": "contracts/FirVerseStake.sol:FirVerseStake",
        "label": "stakeCounter",
        "offset": 0,
        "slot": "7",
        "type": "t_uint256"
      },
      {
        "astId": 3158,
        "contract": "contracts/FirVerseStake.sol:FirVerseStake",
        "label": "stakeTypes",
        "offset": 0,
        "slot": "8",
        "type": "t_array(t_struct(StakeType)3139_storage)dyn_storage"
      },
      {
        "astId": 3163,
        "contract": "contracts/FirVerseStake.sol:FirVerseStake",
        "label": "stakes",
        "offset": 0,
        "slot": "9",
        "type": "t_mapping(t_uint256,t_struct(StakeInfo)3154_storage)"
      },
      {
        "astId": 3167,
        "contract": "contracts/FirVerseStake.sol:FirVerseStake",
        "label": "nftStakedAmount",
        "offset": 0,
        "slot": "10",
        "type": "t_mapping(t_uint256,t_uint256)"
      },
      {
        "astId": 3171,
        "contract": "contracts/FirVerseStake.sol:FirVerseStake",
        "label": "nftOwner",
        "offset": 0,
        "slot": "11",
        "type": "t_mapping(t_uint256,t_address)"
      },
      {
        "astId": 3176,
        "contract": "contracts/FirVerseStake.sol:FirVerseStake",
        "label": "userStakes",
        "offset": 0,
        "slot": "12",
        "type": "t_mapping(t_address,t_struct(UintSet)2950_storage)"
      },
      {
        "astId": 3180,
        "contract": "contracts/FirVerseStake.sol:FirVerseStake",
        "label": "dailyClaimed",
        "offset": 0,
        "slot": "13",
        "type": "t_mapping(t_uint256,t_uint256)"
      },
      {
        "astId": 3186,
        "contract": "contracts/FirVerseStake.sol:FirVerseStake",
        "label": "userDailyClaimed",
        "offset": 0,
        "slot": "14",
        "type": "t_mapping(t_address,t_mapping(t_uint256,t_uint256))"
      },
      {
        "astId": 3190,
        "contract": "contracts/FirVerseStake.sol:FirVerseStake",
        "label": "dailyRewardRoot",
        "offset": 0,
        "slot": "15",
        "type": "t_mapping(t_uint256,t_bytes32)"
      }
    ],
    "types": {
      "t_address": {
        "encoding": "inplace",
        "label": "address",
        "numberOfBytes": "20"
      },
      "t_array(t_bytes32)dyn_storage": {
        "base": "t_bytes32",
        "encoding": "dynamic_array",
        "label": "bytes32[]",
        "numberOfBytes": "32"
      },
      "t_array(t_struct(StakeType)3139_storage)dyn_storage": {
        "base": "t_struct(StakeType)3139_storage",
        "encoding": "dynamic_array",
        "label": "struct FirVerseStake.StakeType[]",
        "numberOfBytes": "32"
      },
      "t_bool": {
        "encoding": "inplace",
        "label": "bool",
        "numberOfBytes": "1"
      },
      "t_bytes32": {
        "encoding": "inplace",
        "label": "bytes32",
        "numberOfBytes": "32"
      },
      "t_mapping(t_address,t_mapping(t_uint256,t_uint256))": {
        "encoding": "mapping",
        "key": "t_address",
        "label": "mapping(address => mapping(uint256 => uint256))",
        "numberOfBytes": "32",
        "value": "t_mapping(t_uint256,t_uint256)"
      },
      "t_mapping(t_address,t_struct(UintSet)2950_storage)": {
        "encoding": "mapping",
        "key": "t_address",
        "label": "mapping(address => struct EnumerableSet.UintSet)",
        "numberOfBytes": "32",
        "value": "t_struct(UintSet)2950_storage"
      },
      "t_mapping(t_bytes32,t_uint256)": {
        "encoding": "mapping",
        "key": "t_bytes32",
        "label": "mapping(bytes32 => uint256)",
        "numberOfBytes": "32",
        "value": "t_uint256"
      },
      "t_mapping(t_uint256,t_address)": {
        "encoding": "mapping",
        "key": "t_uint256",
        "label": "mapping(uint256 => address)",
        "numberOfBytes": "32",
        "value": "t_address"
      },
      "t_mapping(t_uint256,t_bytes32)": {
        "encoding": "mapping",
        "key": "t_uint256",
        "label": "mapping(uint256 => bytes32)",
        "numberOfBytes": "32",
        "value": "t_bytes32"
      },
      "t_mapping(t_uint256,t_struct(StakeInfo)3154_storage)": {
        "encoding": "mapping",
        "key": "t_uint256",
        "label": "mapping(uint256 => struct FirVerseStake.StakeInfo)",
        "numberOfBytes": "32",
        "value": "t_struct(StakeInfo)3154_storage"
      },
      "t_mapping(t_uint256,t_uint256)": {
        "encoding": "mapping",
        "key": "t_uint256",
        "label": "mapping(uint256 => uint256)",
        "numberOfBytes": "32",
        "value": "t_uint256"
      },
      "t_struct(Set)2478_storage": {
        "encoding": "inplace",
        "label": "struct EnumerableSet.Set",
        "members": [
          {
            "astId": 2473,
            "contract": "contracts/FirVerseStake.sol:FirVerseStake",
            "label": "_values",
            "offset": 0,
            "slot": "0",
            "type": "t_array(t_bytes32)dyn_storage"
          },
          {
            "astId": 2477,
            "contract": "contracts/FirVerseStake.sol:FirVerseStake",
            "label": "_indexes",
            "offset": 0,
            "slot": "1",
            "type": "t_mapping(t_bytes32,t_uint256)"
          }
        ],
        "numberOfBytes": "64"
      },
      "t_struct(StakeInfo)3154_storage": {
        "encoding": "inplace",
        "label": "struct FirVerseStake.StakeInfo",
        "members": [
          {
            "astId": 3141,
            "contract": "contracts/FirVerseStake.sol:FirVerseStake",
            "label": "owner",
            "offset": 0,
            "slot": "0",
            "type": "t_address"
          },
          {
            "astId": 3143,
            "contract": "contracts/FirVerseStake.sol:FirVerseStake",
            "label": "nftId",
            "offset": 0,
            "slot": "1",
            "type": "t_uint256"
          },
          {
            "astId": 3145,
            "contract": "contracts/FirVerseStake.sol:FirVerseStake",
            "label": "amount",
            "offset": 0,
            "slot": "2",
            "type": "t_uint256"
          },
          {
            "astId": 3147,
            "contract": "contracts/FirVerseStake.sol:FirVerseStake",
            "label": "startDay",
            "offset": 0,
            "slot": "3",
            "type": "t_uint256"
          },
          {
            "astId": 3149,
            "contract": "contracts/FirVerseStake.sol:FirVerseStake",
            "label": "lockDays",
            "offset": 0,
            "slot": "4",
            "type": "t_uint256"
          },
          {
            "astId": 3151,
            "contract": "contracts/FirVerseStake.sol:FirVerseStake",
            "label": "rewardRate",
            "offset": 0,
            "slot": "5",
            "type": "t_uint256"
          },
          {
            "astId": 3153,
            "contract": "contracts/FirVerseStake.sol:FirVerseStake",
            "label": "redeemed",
            "offset": 0,
            "slot": "6",
            "type": "t_bool"
          }
        ],
        "numberOfBytes": "224"
      },
      "t_struct(StakeType)3139_storage": {
        "encoding": "inplace",
        "label": "struct FirVerseStake.StakeType",
        "members": [
          {
            "astId": 3136,
            "contract": "contracts/FirVerseStake.sol:FirVerseStake",
            "label": "lockDays",
            "offset": 0,
            "slot": "0",
            "type": "t_uint256"
          },
          {
            "astId": 3138,
            "contract": "contracts/FirVerseStake.sol:FirVerseStake",
            "label": "rewardRate",
            "offset": 0,
            "slot": "1",
            "type": "t_uint256"
          }
        ],
        "numberOfBytes": "64"
      },
      "t_struct(UintSet)2950_storage": {
        "encoding": "inplace",
        "label": "struct EnumerableSet.UintSet",
        "members": [
          {
            "astId": 2949,
            "contract": "contracts/FirVerseStake.sol:FirVerseStake",
            "label": "_inner",
            "offset": 0,
            "slot": "0",
            "type": "t_struct(Set)2478_storage"
          }
        ],
        "numberOfBytes": "64"
      },
      "t_uint256": {
        "encoding": "inplace",
        "label": "uint256",
        "numberOfBytes": "32"
      }
    }
  }
}